{"abi":[{"inputs":[{"internalType":"uint256","name":"minimum","type":"uint256"},{"internalType":"address","name":"creator","type":"address"}],"stateMutability":"nonpayable","type":"constructor"},{"inputs":[{"internalType":"uint256","name":"index","type":"uint256"}],"name":"approveRequest","outputs":[],"stateMutability":"nonpayable","type":"function"},{"inputs":[{"internalType":"address","name":"","type":"address"}],"name":"approvers","outputs":[{"internalType":"bool","name":"","type":"bool"}],"stateMutability":"view","type":"function"},{"inputs":[],"name":"approversCount","outputs":[{"internalType":"uint256","name":"","type":"uint256"}],"stateMutability":"view","type":"function"},{"inputs":[],"name":"contribute","outputs":[],"stateMutability":"payable","type":"function"},{"inputs":[{"internalType":"string","name":"description","type":"string"},{"internalType":"uint256","name":"value","type":"uint256"},{"internalType":"address payable","name":"recipient","type":"address"}],"name":"createRequest","outputs":[],"stateMutability":"nonpayable","type":"function"},{"inputs":[{"internalType":"uint256","name":"index","type":"uint256"}],"name":"finalizeRequest","outputs":[],"stateMutability":"nonpayable","type":"function"},{"inputs":[],"name":"manager","outputs":[{"internalType":"address payable","name":"","type":"address"}],"stateMutability":"view","type":"function"},{"inputs":[],"name":"minimumContribution","outputs":[{"internalType":"uint256","name":"","type":"uint256"}],"stateMutability":"view","type":"function"},{"inputs":[{"internalType":"uint256","name":"","type":"uint256"}],"name":"requests","outputs":[{"internalType":"string","name":"description","type":"string"},{"internalType":"uint256","name":"value","type":"uint256"},{"internalType":"address payable","name":"recipient","type":"address"},{"internalType":"bool","name":"complete","type":"bool"},{"internalType":"uint256","name":"approvalCount","type":"uint256"}],"stateMutability":"view","type":"function"}],"devdoc":{"kind":"dev","methods":{},"version":1},"evm":{"assembly":"    /* \"Campaign.sol\":443:2288  contract Campaign {... */\n  mstore(0x40, 0x80)\n    /* \"Campaign.sol\":1004:1132  constructor(uint minimum, address creator) {... */\n  callvalue\n  dup1\n  iszero\n  tag_1\n  jumpi\n  0x00\n  dup1\n  revert\ntag_1:\n  pop\n  mload(0x40)\n  sub(codesize, bytecodeSize)\n  dup1\n  bytecodeSize\n  dup4\n  codecopy\n  dup2\n  dup2\n  add\n  0x40\n  mstore\n  dup2\n  add\n  swap1\n  tag_2\n  swap2\n  swap1\n  tag_3\n  jump\t// in\ntag_2:\n    /* \"Campaign.sol\":1076:1083  creator */\n  dup1\n    /* \"Campaign.sol\":1058:1065  manager */\n  0x03\n  0x00\n    /* \"Campaign.sol\":1058:1084  manager = payable(creator) */\n  0x0100\n  exp\n  dup2\n  sload\n  dup2\n  0xffffffffffffffffffffffffffffffffffffffff\n  mul\n  not\n  and\n  swap1\n  dup4\n  0xffffffffffffffffffffffffffffffffffffffff\n  and\n  mul\n  or\n  swap1\n  sstore\n  pop\n    /* \"Campaign.sol\":1117:1124  minimum */\n  dup2\n    /* \"Campaign.sol\":1095:1114  minimumContribution */\n  0x01\n    /* \"Campaign.sol\":1095:1124  minimumContribution = minimum */\n  dup2\n  swap1\n  sstore\n  pop\n    /* \"Campaign.sol\":1004:1132  constructor(uint minimum, address creator) {... */\n  pop\n  pop\n    /* \"Campaign.sol\":443:2288  contract Campaign {... */\n  jump(tag_6)\n    /* \"#utility.yul\":88:205   */\ntag_8:\n    /* \"#utility.yul\":197:198   */\n  0x00\n    /* \"#utility.yul\":194:195   */\n  dup1\n    /* \"#utility.yul\":187:199   */\n  revert\n    /* \"#utility.yul\":334:411   */\ntag_10:\n    /* \"#utility.yul\":371:378   */\n  0x00\n    /* \"#utility.yul\":400:405   */\n  dup2\n    /* \"#utility.yul\":389:405   */\n  swap1\n  pop\n    /* \"#utility.yul\":334:411   */\n  swap2\n  swap1\n  pop\n  jump\t// out\n    /* \"#utility.yul\":417:539   */\ntag_11:\n    /* \"#utility.yul\":490:514   */\n  tag_23\n    /* \"#utility.yul\":508:513   */\n  dup2\n    /* \"#utility.yul\":490:514   */\n  tag_10\n  jump\t// in\ntag_23:\n    /* \"#utility.yul\":483:488   */\n  dup2\n    /* \"#utility.yul\":480:515   */\n  eq\n    /* \"#utility.yul\":470:533   */\n  tag_24\n  jumpi\n    /* \"#utility.yul\":529:530   */\n  0x00\n    /* \"#utility.yul\":526:527   */\n  dup1\n    /* \"#utility.yul\":519:531   */\n  revert\n    /* \"#utility.yul\":470:533   */\ntag_24:\n    /* \"#utility.yul\":417:539   */\n  pop\n  jump\t// out\n    /* \"#utility.yul\":545:688   */\ntag_12:\n    /* \"#utility.yul\":602:607   */\n  0x00\n    /* \"#utility.yul\":633:639   */\n  dup2\n    /* \"#utility.yul\":627:640   */\n  mload\n    /* \"#utility.yul\":618:640   */\n  swap1\n  pop\n    /* \"#utility.yul\":649:682   */\n  tag_26\n    /* \"#utility.yul\":676:681   */\n  dup2\n    /* \"#utility.yul\":649:682   */\n  tag_11\n  jump\t// in\ntag_26:\n    /* \"#utility.yul\":545:688   */\n  swap3\n  swap2\n  pop\n  pop\n  jump\t// out\n    /* \"#utility.yul\":694:820   */\ntag_13:\n    /* \"#utility.yul\":731:738   */\n  0x00\n    /* \"#utility.yul\":771:813   */\n  0xffffffffffffffffffffffffffffffffffffffff\n    /* \"#utility.yul\":764:769   */\n  dup3\n    /* \"#utility.yul\":760:814   */\n  and\n    /* \"#utility.yul\":749:814   */\n  swap1\n  pop\n    /* \"#utility.yul\":694:820   */\n  swap2\n  swap1\n  pop\n  jump\t// out\n    /* \"#utility.yul\":826:922   */\ntag_14:\n    /* \"#utility.yul\":863:870   */\n  0x00\n    /* \"#utility.yul\":892:916   */\n  tag_29\n    /* \"#utility.yul\":910:915   */\n  dup3\n    /* \"#utility.yul\":892:916   */\n  tag_13\n  jump\t// in\ntag_29:\n    /* \"#utility.yul\":881:916   */\n  swap1\n  pop\n    /* \"#utility.yul\":826:922   */\n  swap2\n  swap1\n  pop\n  jump\t// out\n    /* \"#utility.yul\":928:1050   */\ntag_15:\n    /* \"#utility.yul\":1001:1025   */\n  tag_31\n    /* \"#utility.yul\":1019:1024   */\n  dup2\n    /* \"#utility.yul\":1001:1025   */\n  tag_14\n  jump\t// in\ntag_31:\n    /* \"#utility.yul\":994:999   */\n  dup2\n    /* \"#utility.yul\":991:1026   */\n  eq\n    /* \"#utility.yul\":981:1044   */\n  tag_32\n  jumpi\n    /* \"#utility.yul\":1040:1041   */\n  0x00\n    /* \"#utility.yul\":1037:1038   */\n  dup1\n    /* \"#utility.yul\":1030:1042   */\n  revert\n    /* \"#utility.yul\":981:1044   */\ntag_32:\n    /* \"#utility.yul\":928:1050   */\n  pop\n  jump\t// out\n    /* \"#utility.yul\":1056:1199   */\ntag_16:\n    /* \"#utility.yul\":1113:1118   */\n  0x00\n    /* \"#utility.yul\":1144:1150   */\n  dup2\n    /* \"#utility.yul\":1138:1151   */\n  mload\n    /* \"#utility.yul\":1129:1151   */\n  swap1\n  pop\n    /* \"#utility.yul\":1160:1193   */\n  tag_34\n    /* \"#utility.yul\":1187:1192   */\n  dup2\n    /* \"#utility.yul\":1160:1193   */\n  tag_15\n  jump\t// in\ntag_34:\n    /* \"#utility.yul\":1056:1199   */\n  swap3\n  swap2\n  pop\n  pop\n  jump\t// out\n    /* \"#utility.yul\":1205:1712   */\ntag_3:\n    /* \"#utility.yul\":1284:1290   */\n  0x00\n    /* \"#utility.yul\":1292:1298   */\n  dup1\n    /* \"#utility.yul\":1341:1343   */\n  0x40\n    /* \"#utility.yul\":1329:1338   */\n  dup4\n    /* \"#utility.yul\":1320:1327   */\n  dup6\n    /* \"#utility.yul\":1316:1339   */\n  sub\n    /* \"#utility.yul\":1312:1344   */\n  slt\n    /* \"#utility.yul\":1309:1428   */\n  iszero\n  tag_36\n  jumpi\n    /* \"#utility.yul\":1347:1426   */\n  tag_37\n  tag_8\n  jump\t// in\ntag_37:\n    /* \"#utility.yul\":1309:1428   */\ntag_36:\n    /* \"#utility.yul\":1467:1468   */\n  0x00\n    /* \"#utility.yul\":1492:1556   */\n  tag_38\n    /* \"#utility.yul\":1548:1555   */\n  dup6\n    /* \"#utility.yul\":1539:1545   */\n  dup3\n    /* \"#utility.yul\":1528:1537   */\n  dup7\n    /* \"#utility.yul\":1524:1546   */\n  add\n    /* \"#utility.yul\":1492:1556   */\n  tag_12\n  jump\t// in\ntag_38:\n    /* \"#utility.yul\":1482:1556   */\n  swap3\n  pop\n    /* \"#utility.yul\":1438:1566   */\n  pop\n    /* \"#utility.yul\":1605:1607   */\n  0x20\n    /* \"#utility.yul\":1631:1695   */\n  tag_39\n    /* \"#utility.yul\":1687:1694   */\n  dup6\n    /* \"#utility.yul\":1678:1684   */\n  dup3\n    /* \"#utility.yul\":1667:1676   */\n  dup7\n    /* \"#utility.yul\":1663:1685   */\n  add\n    /* \"#utility.yul\":1631:1695   */\n  tag_16\n  jump\t// in\ntag_39:\n    /* \"#utility.yul\":1621:1695   */\n  swap2\n  pop\n    /* \"#utility.yul\":1576:1705   */\n  pop\n    /* \"#utility.yul\":1205:1712   */\n  swap3\n  pop\n  swap3\n  swap1\n  pop\n  jump\t// out\n    /* \"Campaign.sol\":443:2288  contract Campaign {... */\ntag_6:\n  dataSize(sub_0)\n  dup1\n  dataOffset(sub_0)\n  0x00\n  codecopy\n  0x00\n  return\nstop\n\nsub_0: assembly {\n        /* \"Campaign.sol\":443:2288  contract Campaign {... */\n      mstore(0x40, 0x80)\n      jumpi(tag_1, lt(calldatasize, 0x04))\n      shr(0xe0, calldataload(0x00))\n      dup1\n      0x82fde093\n      gt\n      tag_11\n      jumpi\n      dup1\n      0x82fde093\n      eq\n      tag_6\n      jumpi\n      dup1\n      0x8a9cfd55\n      eq\n      tag_7\n      jumpi\n      dup1\n      0x937e09b1\n      eq\n      tag_8\n      jumpi\n      dup1\n      0xd7bb99ba\n      eq\n      tag_9\n      jumpi\n      dup1\n      0xd7d1bbdb\n      eq\n      tag_10\n      jumpi\n      jump(tag_1)\n    tag_11:\n      dup1\n      0x03441006\n      eq\n      tag_2\n      jumpi\n      dup1\n      0x0a144391\n      eq\n      tag_3\n      jumpi\n      dup1\n      0x481c6a75\n      eq\n      tag_4\n      jumpi\n      dup1\n      0x81d12c58\n      eq\n      tag_5\n      jumpi\n    tag_1:\n      0x00\n      dup1\n      revert\n        /* \"Campaign.sol\":1981:2285  function finalizeRequest(uint index) public restricted {... */\n    tag_2:\n      callvalue\n      dup1\n      iszero\n      tag_12\n      jumpi\n      0x00\n      dup1\n      revert\n    tag_12:\n      pop\n      tag_13\n      0x04\n      dup1\n      calldatasize\n      sub\n      dup2\n      add\n      swap1\n      tag_14\n      swap2\n      swap1\n      tag_15\n      jump\t// in\n    tag_14:\n      tag_16\n      jump\t// in\n    tag_13:\n      stop\n        /* \"Campaign.sol\":863:904  mapping(address => bool) public approvers */\n    tag_3:\n      callvalue\n      dup1\n      iszero\n      tag_17\n      jumpi\n      0x00\n      dup1\n      revert\n    tag_17:\n      pop\n      tag_18\n      0x04\n      dup1\n      calldatasize\n      sub\n      dup2\n      add\n      swap1\n      tag_19\n      swap2\n      swap1\n      tag_20\n      jump\t// in\n    tag_19:\n      tag_21\n      jump\t// in\n    tag_18:\n      mload(0x40)\n      tag_22\n      swap2\n      swap1\n      tag_23\n      jump\t// in\n    tag_22:\n      mload(0x40)\n      dup1\n      swap2\n      sub\n      swap1\n      return\n        /* \"Campaign.sol\":778:808  address payable public manager */\n    tag_4:\n      callvalue\n      dup1\n      iszero\n      tag_24\n      jumpi\n      0x00\n      dup1\n      revert\n    tag_24:\n      pop\n      tag_25\n      tag_26\n      jump\t// in\n    tag_25:\n      mload(0x40)\n      tag_27\n      swap2\n      swap1\n      tag_28\n      jump\t// in\n    tag_27:\n      mload(0x40)\n      dup1\n      swap2\n      sub\n      swap1\n      return\n        /* \"Campaign.sol\":815:856  mapping (uint => Request) public requests */\n    tag_5:\n      callvalue\n      dup1\n      iszero\n      tag_29\n      jumpi\n      0x00\n      dup1\n      revert\n    tag_29:\n      pop\n      tag_30\n      0x04\n      dup1\n      calldatasize\n      sub\n      dup2\n      add\n      swap1\n      tag_31\n      swap2\n      swap1\n      tag_15\n      jump\t// in\n    tag_31:\n      tag_32\n      jump\t// in\n    tag_30:\n      mload(0x40)\n      tag_33\n      swap6\n      swap5\n      swap4\n      swap3\n      swap2\n      swap1\n      tag_34\n      jump\t// in\n    tag_33:\n      mload(0x40)\n      dup1\n      swap2\n      sub\n      swap1\n      return\n        /* \"Campaign.sol\":745:771  uint public approversCount */\n    tag_6:\n      callvalue\n      dup1\n      iszero\n      tag_35\n      jumpi\n      0x00\n      dup1\n      revert\n    tag_35:\n      pop\n      tag_36\n      tag_37\n      jump\t// in\n    tag_36:\n      mload(0x40)\n      tag_38\n      swap2\n      swap1\n      tag_39\n      jump\t// in\n    tag_38:\n      mload(0x40)\n      dup1\n      swap2\n      sub\n      swap1\n      return\n        /* \"Campaign.sol\":1310:1688  function createRequest(string memory description, uint value, address payable recipient) public restricted {... */\n    tag_7:\n      callvalue\n      dup1\n      iszero\n      tag_40\n      jumpi\n      0x00\n      dup1\n      revert\n    tag_40:\n      pop\n      tag_41\n      0x04\n      dup1\n      calldatasize\n      sub\n      dup2\n      add\n      swap1\n      tag_42\n      swap2\n      swap1\n      tag_43\n      jump\t// in\n    tag_42:\n      tag_44\n      jump\t// in\n    tag_41:\n      stop\n        /* \"Campaign.sol\":707:738  uint public minimumContribution */\n    tag_8:\n      callvalue\n      dup1\n      iszero\n      tag_45\n      jumpi\n      0x00\n      dup1\n      revert\n    tag_45:\n      pop\n      tag_46\n      tag_47\n      jump\t// in\n    tag_46:\n      mload(0x40)\n      tag_48\n      swap2\n      swap1\n      tag_39\n      jump\t// in\n    tag_48:\n      mload(0x40)\n      dup1\n      swap2\n      sub\n      swap1\n      return\n        /* \"Campaign.sol\":1140:1302  function contribute() public payable {... */\n    tag_9:\n      tag_49\n      tag_50\n      jump\t// in\n    tag_49:\n      stop\n        /* \"Campaign.sol\":1696:1973  function approveRequest(uint index) public {... */\n    tag_10:\n      callvalue\n      dup1\n      iszero\n      tag_51\n      jumpi\n      0x00\n      dup1\n      revert\n    tag_51:\n      pop\n      tag_52\n      0x04\n      dup1\n      calldatasize\n      sub\n      dup2\n      add\n      swap1\n      tag_53\n      swap2\n      swap1\n      tag_15\n      jump\t// in\n    tag_53:\n      tag_54\n      jump\t// in\n    tag_52:\n      stop\n        /* \"Campaign.sol\":1981:2285  function finalizeRequest(uint index) public restricted {... */\n    tag_16:\n        /* \"Campaign.sol\":968:975  manager */\n      0x03\n      0x00\n      swap1\n      sload\n      swap1\n      0x0100\n      exp\n      swap1\n      div\n      0xffffffffffffffffffffffffffffffffffffffff\n      and\n        /* \"Campaign.sol\":954:975  msg.sender == manager */\n      0xffffffffffffffffffffffffffffffffffffffff\n      and\n        /* \"Campaign.sol\":954:964  msg.sender */\n      caller\n        /* \"Campaign.sol\":954:975  msg.sender == manager */\n      0xffffffffffffffffffffffffffffffffffffffff\n      and\n      eq\n        /* \"Campaign.sol\":946:976  require(msg.sender == manager) */\n      tag_56\n      jumpi\n      0x00\n      dup1\n      revert\n    tag_56:\n        /* \"Campaign.sol\":2047:2070  Request storage request */\n      0x00\n        /* \"Campaign.sol\":2073:2081  requests */\n      0x04\n        /* \"Campaign.sol\":2073:2088  requests[index] */\n      0x00\n        /* \"Campaign.sol\":2082:2087  index */\n      dup4\n        /* \"Campaign.sol\":2073:2088  requests[index] */\n      dup2\n      mstore\n      0x20\n      add\n      swap1\n      dup2\n      mstore\n      0x20\n      add\n      0x00\n      keccak256\n        /* \"Campaign.sol\":2047:2088  Request storage request = requests[index] */\n      swap1\n      pop\n        /* \"Campaign.sol\":2149:2150  2 */\n      0x02\n        /* \"Campaign.sol\":2132:2146  approversCount */\n      dup1\n      sload\n        /* \"Campaign.sol\":2132:2150  approversCount / 2 */\n      tag_58\n      swap2\n      swap1\n      tag_59\n      jump\t// in\n    tag_58:\n        /* \"Campaign.sol\":2107:2114  request */\n      dup2\n        /* \"Campaign.sol\":2107:2128  request.approvalCount */\n      0x03\n      add\n      sload\n        /* \"Campaign.sol\":2107:2151  request.approvalCount > (approversCount / 2) */\n      gt\n        /* \"Campaign.sol\":2099:2152  require(request.approvalCount > (approversCount / 2)) */\n      tag_60\n      jumpi\n      0x00\n      dup1\n      revert\n    tag_60:\n        /* \"Campaign.sol\":2172:2179  request */\n      dup1\n        /* \"Campaign.sol\":2172:2188  request.complete */\n      0x02\n      add\n      0x14\n      swap1\n      sload\n      swap1\n      0x0100\n      exp\n      swap1\n      div\n      0xff\n      and\n        /* \"Campaign.sol\":2171:2188  !request.complete */\n      iszero\n        /* \"Campaign.sol\":2163:2189  require(!request.complete) */\n      tag_61\n      jumpi\n      0x00\n      dup1\n      revert\n    tag_61:\n        /* \"Campaign.sol\":2202:2209  request */\n      dup1\n        /* \"Campaign.sol\":2202:2219  request.recipient */\n      0x02\n      add\n      0x00\n      swap1\n      sload\n      swap1\n      0x0100\n      exp\n      swap1\n      div\n      0xffffffffffffffffffffffffffffffffffffffff\n      and\n        /* \"Campaign.sol\":2202:2228  request.recipient.transfer */\n      0xffffffffffffffffffffffffffffffffffffffff\n      and\n        /* \"Campaign.sol\":2202:2243  request.recipient.transfer(request.value) */\n      0x08fc\n        /* \"Campaign.sol\":2229:2236  request */\n      dup3\n        /* \"Campaign.sol\":2229:2242  request.value */\n      0x01\n      add\n      sload\n        /* \"Campaign.sol\":2202:2243  request.recipient.transfer(request.value) */\n      swap1\n      dup2\n      iszero\n      mul\n      swap1\n      mload(0x40)\n      0x00\n      mload(0x40)\n      dup1\n      dup4\n      sub\n      dup2\n      dup6\n      dup9\n      dup9\n      call\n      swap4\n      pop\n      pop\n      pop\n      pop\n      iszero\n      dup1\n      iszero\n      tag_63\n      jumpi\n      returndatasize\n      0x00\n      dup1\n      returndatacopy\n      revert(0x00, returndatasize)\n    tag_63:\n      pop\n        /* \"Campaign.sol\":2273:2277  true */\n      0x01\n        /* \"Campaign.sol\":2254:2261  request */\n      dup2\n        /* \"Campaign.sol\":2254:2270  request.complete */\n      0x02\n      add\n      0x14\n        /* \"Campaign.sol\":2254:2277  request.complete = true */\n      0x0100\n      exp\n      dup2\n      sload\n      dup2\n      0xff\n      mul\n      not\n      and\n      swap1\n      dup4\n      iszero\n      iszero\n      mul\n      or\n      swap1\n      sstore\n      pop\n        /* \"Campaign.sol\":2036:2285  {... */\n      pop\n        /* \"Campaign.sol\":1981:2285  function finalizeRequest(uint index) public restricted {... */\n      pop\n      jump\t// out\n        /* \"Campaign.sol\":863:904  mapping(address => bool) public approvers */\n    tag_21:\n      mstore(0x20, 0x05)\n      dup1\n      0x00\n      mstore\n      keccak256(0x00, 0x40)\n      0x00\n      swap2\n      pop\n      sload\n      swap1\n      0x0100\n      exp\n      swap1\n      div\n      0xff\n      and\n      dup2\n      jump\t// out\n        /* \"Campaign.sol\":778:808  address payable public manager */\n    tag_26:\n      0x03\n      0x00\n      swap1\n      sload\n      swap1\n      0x0100\n      exp\n      swap1\n      div\n      0xffffffffffffffffffffffffffffffffffffffff\n      and\n      dup2\n      jump\t// out\n        /* \"Campaign.sol\":815:856  mapping (uint => Request) public requests */\n    tag_32:\n      mstore(0x20, 0x04)\n      dup1\n      0x00\n      mstore\n      keccak256(0x00, 0x40)\n      0x00\n      swap2\n      pop\n      swap1\n      pop\n      dup1\n      0x00\n      add\n      dup1\n      sload\n      tag_64\n      swap1\n      tag_65\n      jump\t// in\n    tag_64:\n      dup1\n      0x1f\n      add\n      0x20\n      dup1\n      swap2\n      div\n      mul\n      0x20\n      add\n      mload(0x40)\n      swap1\n      dup2\n      add\n      0x40\n      mstore\n      dup1\n      swap3\n      swap2\n      swap1\n      dup2\n      dup2\n      mstore\n      0x20\n      add\n      dup3\n      dup1\n      sload\n      tag_66\n      swap1\n      tag_65\n      jump\t// in\n    tag_66:\n      dup1\n      iszero\n      tag_67\n      jumpi\n      dup1\n      0x1f\n      lt\n      tag_68\n      jumpi\n      0x0100\n      dup1\n      dup4\n      sload\n      div\n      mul\n      dup4\n      mstore\n      swap2\n      0x20\n      add\n      swap2\n      jump(tag_67)\n    tag_68:\n      dup3\n      add\n      swap2\n      swap1\n      0x00\n      mstore\n      keccak256(0x00, 0x20)\n      swap1\n    tag_69:\n      dup2\n      sload\n      dup2\n      mstore\n      swap1\n      0x01\n      add\n      swap1\n      0x20\n      add\n      dup1\n      dup4\n      gt\n      tag_69\n      jumpi\n      dup3\n      swap1\n      sub\n      0x1f\n      and\n      dup3\n      add\n      swap2\n    tag_67:\n      pop\n      pop\n      pop\n      pop\n      pop\n      swap1\n      dup1\n      0x01\n      add\n      sload\n      swap1\n      dup1\n      0x02\n      add\n      0x00\n      swap1\n      sload\n      swap1\n      0x0100\n      exp\n      swap1\n      div\n      0xffffffffffffffffffffffffffffffffffffffff\n      and\n      swap1\n      dup1\n      0x02\n      add\n      0x14\n      swap1\n      sload\n      swap1\n      0x0100\n      exp\n      swap1\n      div\n      0xff\n      and\n      swap1\n      dup1\n      0x03\n      add\n      sload\n      swap1\n      pop\n      dup6\n      jump\t// out\n        /* \"Campaign.sol\":745:771  uint public approversCount */\n    tag_37:\n      sload(0x02)\n      dup2\n      jump\t// out\n        /* \"Campaign.sol\":1310:1688  function createRequest(string memory description, uint value, address payable recipient) public restricted {... */\n    tag_44:\n        /* \"Campaign.sol\":968:975  manager */\n      0x03\n      0x00\n      swap1\n      sload\n      swap1\n      0x0100\n      exp\n      swap1\n      div\n      0xffffffffffffffffffffffffffffffffffffffff\n      and\n        /* \"Campaign.sol\":954:975  msg.sender == manager */\n      0xffffffffffffffffffffffffffffffffffffffff\n      and\n        /* \"Campaign.sol\":954:964  msg.sender */\n      caller\n        /* \"Campaign.sol\":954:975  msg.sender == manager */\n      0xffffffffffffffffffffffffffffffffffffffff\n      and\n      eq\n        /* \"Campaign.sol\":946:976  require(msg.sender == manager) */\n      tag_71\n      jumpi\n      0x00\n      dup1\n      revert\n    tag_71:\n        /* \"Campaign.sol\":1428:1454  Request storage newRequest */\n      0x00\n        /* \"Campaign.sol\":1457:1465  requests */\n      0x04\n        /* \"Campaign.sol\":1457:1481  requests[_numRequests++] */\n      0x00\n        /* \"Campaign.sol\":1466:1478  _numRequests */\n      dup1\n      0x00\n        /* \"Campaign.sol\":1466:1480  _numRequests++ */\n      dup2\n      sload\n      dup1\n      swap3\n      swap2\n      swap1\n      tag_73\n      swap1\n      tag_74\n      jump\t// in\n    tag_73:\n      swap2\n      swap1\n      pop\n      sstore\n        /* \"Campaign.sol\":1457:1481  requests[_numRequests++] */\n      dup2\n      mstore\n      0x20\n      add\n      swap1\n      dup2\n      mstore\n      0x20\n      add\n      0x00\n      keccak256\n        /* \"Campaign.sol\":1428:1481  Request storage newRequest = requests[_numRequests++] */\n      swap1\n      pop\n        /* \"Campaign.sol\":1518:1529  description */\n      dup4\n        /* \"Campaign.sol\":1494:1504  newRequest */\n      dup2\n        /* \"Campaign.sol\":1494:1516  newRequest.description */\n      0x00\n      add\n        /* \"Campaign.sol\":1494:1529  newRequest.description= description */\n      swap1\n      dup2\n      tag_75\n      swap2\n      swap1\n      tag_76\n      jump\t// in\n    tag_75:\n      pop\n        /* \"Campaign.sol\":1558:1563  value */\n      dup3\n        /* \"Campaign.sol\":1540:1550  newRequest */\n      dup2\n        /* \"Campaign.sol\":1540:1556  newRequest.value */\n      0x01\n      add\n        /* \"Campaign.sol\":1540:1563  newRequest.value= value */\n      dup2\n      swap1\n      sstore\n      pop\n        /* \"Campaign.sol\":1596:1605  recipient */\n      dup2\n        /* \"Campaign.sol\":1574:1584  newRequest */\n      dup2\n        /* \"Campaign.sol\":1574:1594  newRequest.recipient */\n      0x02\n      add\n      0x00\n        /* \"Campaign.sol\":1574:1605  newRequest.recipient= recipient */\n      0x0100\n      exp\n      dup2\n      sload\n      dup2\n      0xffffffffffffffffffffffffffffffffffffffff\n      mul\n      not\n      and\n      swap1\n      dup4\n      0xffffffffffffffffffffffffffffffffffffffff\n      and\n      mul\n      or\n      swap1\n      sstore\n      pop\n        /* \"Campaign.sol\":1637:1642  false */\n      0x00\n        /* \"Campaign.sol\":1616:1626  newRequest */\n      dup2\n        /* \"Campaign.sol\":1616:1635  newRequest.complete */\n      0x02\n      add\n      0x14\n        /* \"Campaign.sol\":1616:1642  newRequest.complete= false */\n      0x0100\n      exp\n      dup2\n      sload\n      dup2\n      0xff\n      mul\n      not\n      and\n      swap1\n      dup4\n      iszero\n      iszero\n      mul\n      or\n      swap1\n      sstore\n      pop\n        /* \"Campaign.sol\":1679:1680  0 */\n      0x00\n        /* \"Campaign.sol\":1653:1663  newRequest */\n      dup2\n        /* \"Campaign.sol\":1653:1677  newRequest.approvalCount */\n      0x03\n      add\n        /* \"Campaign.sol\":1653:1680  newRequest.approvalCount= 0 */\n      dup2\n      swap1\n      sstore\n      pop\n        /* \"Campaign.sol\":1417:1688  {... */\n      pop\n        /* \"Campaign.sol\":1310:1688  function createRequest(string memory description, uint value, address payable recipient) public restricted {... */\n      pop\n      pop\n      pop\n      jump\t// out\n        /* \"Campaign.sol\":707:738  uint public minimumContribution */\n    tag_47:\n      sload(0x01)\n      dup2\n      jump\t// out\n        /* \"Campaign.sol\":1140:1302  function contribute() public payable {... */\n    tag_50:\n        /* \"Campaign.sol\":1208:1227  minimumContribution */\n      sload(0x01)\n        /* \"Campaign.sol\":1196:1205  msg.value */\n      callvalue\n        /* \"Campaign.sol\":1196:1227  msg.value > minimumContribution */\n      gt\n        /* \"Campaign.sol\":1188:1228  require(msg.value > minimumContribution) */\n      tag_78\n      jumpi\n      0x00\n      dup1\n      revert\n    tag_78:\n        /* \"Campaign.sol\":1263:1267  true */\n      0x01\n        /* \"Campaign.sol\":1239:1248  approvers */\n      0x05\n        /* \"Campaign.sol\":1239:1260  approvers[msg.sender] */\n      0x00\n        /* \"Campaign.sol\":1249:1259  msg.sender */\n      caller\n        /* \"Campaign.sol\":1239:1260  approvers[msg.sender] */\n      0xffffffffffffffffffffffffffffffffffffffff\n      and\n      0xffffffffffffffffffffffffffffffffffffffff\n      and\n      dup2\n      mstore\n      0x20\n      add\n      swap1\n      dup2\n      mstore\n      0x20\n      add\n      0x00\n      keccak256\n      0x00\n        /* \"Campaign.sol\":1239:1267  approvers[msg.sender] = true */\n      0x0100\n      exp\n      dup2\n      sload\n      dup2\n      0xff\n      mul\n      not\n      and\n      swap1\n      dup4\n      iszero\n      iszero\n      mul\n      or\n      swap1\n      sstore\n      pop\n        /* \"Campaign.sol\":1278:1292  approversCount */\n      0x02\n      0x00\n        /* \"Campaign.sol\":1278:1294  approversCount++ */\n      dup2\n      sload\n      dup1\n      swap3\n      swap2\n      swap1\n      tag_79\n      swap1\n      tag_74\n      jump\t// in\n    tag_79:\n      swap2\n      swap1\n      pop\n      sstore\n      pop\n        /* \"Campaign.sol\":1140:1302  function contribute() public payable {... */\n      jump\t// out\n        /* \"Campaign.sol\":1696:1973  function approveRequest(uint index) public {... */\n    tag_54:\n        /* \"Campaign.sol\":1750:1773  Request storage request */\n      0x00\n        /* \"Campaign.sol\":1776:1784  requests */\n      0x04\n        /* \"Campaign.sol\":1776:1791  requests[index] */\n      0x00\n        /* \"Campaign.sol\":1785:1790  index */\n      dup4\n        /* \"Campaign.sol\":1776:1791  requests[index] */\n      dup2\n      mstore\n      0x20\n      add\n      swap1\n      dup2\n      mstore\n      0x20\n      add\n      0x00\n      keccak256\n        /* \"Campaign.sol\":1750:1791  Request storage request = requests[index] */\n      swap1\n      pop\n        /* \"Campaign.sol\":1810:1819  approvers */\n      0x05\n        /* \"Campaign.sol\":1810:1831  approvers[msg.sender] */\n      0x00\n        /* \"Campaign.sol\":1820:1830  msg.sender */\n      caller\n        /* \"Campaign.sol\":1810:1831  approvers[msg.sender] */\n      0xffffffffffffffffffffffffffffffffffffffff\n      and\n      0xffffffffffffffffffffffffffffffffffffffff\n      and\n      dup2\n      mstore\n      0x20\n      add\n      swap1\n      dup2\n      mstore\n      0x20\n      add\n      0x00\n      keccak256\n      0x00\n      swap1\n      sload\n      swap1\n      0x0100\n      exp\n      swap1\n      div\n      0xff\n      and\n        /* \"Campaign.sol\":1802:1832  require(approvers[msg.sender]) */\n      tag_81\n      jumpi\n      0x00\n      dup1\n      revert\n    tag_81:\n        /* \"Campaign.sol\":1852:1859  request */\n      dup1\n        /* \"Campaign.sol\":1852:1869  request.approvals */\n      0x04\n      add\n        /* \"Campaign.sol\":1852:1881  request.approvals[msg.sender] */\n      0x00\n        /* \"Campaign.sol\":1870:1880  msg.sender */\n      caller\n        /* \"Campaign.sol\":1852:1881  request.approvals[msg.sender] */\n      0xffffffffffffffffffffffffffffffffffffffff\n      and\n      0xffffffffffffffffffffffffffffffffffffffff\n      and\n      dup2\n      mstore\n      0x20\n      add\n      swap1\n      dup2\n      mstore\n      0x20\n      add\n      0x00\n      keccak256\n      0x00\n      swap1\n      sload\n      swap1\n      0x0100\n      exp\n      swap1\n      div\n      0xff\n      and\n        /* \"Campaign.sol\":1851:1881  !request.approvals[msg.sender] */\n      iszero\n        /* \"Campaign.sol\":1843:1882  require(!request.approvals[msg.sender]) */\n      tag_82\n      jumpi\n      0x00\n      dup1\n      revert\n    tag_82:\n        /* \"Campaign.sol\":1927:1931  true */\n      0x01\n        /* \"Campaign.sol\":1895:1902  request */\n      dup2\n        /* \"Campaign.sol\":1895:1912  request.approvals */\n      0x04\n      add\n        /* \"Campaign.sol\":1895:1924  request.approvals[msg.sender] */\n      0x00\n        /* \"Campaign.sol\":1913:1923  msg.sender */\n      caller\n        /* \"Campaign.sol\":1895:1924  request.approvals[msg.sender] */\n      0xffffffffffffffffffffffffffffffffffffffff\n      and\n      0xffffffffffffffffffffffffffffffffffffffff\n      and\n      dup2\n      mstore\n      0x20\n      add\n      swap1\n      dup2\n      mstore\n      0x20\n      add\n      0x00\n      keccak256\n      0x00\n        /* \"Campaign.sol\":1895:1931  request.approvals[msg.sender] = true */\n      0x0100\n      exp\n      dup2\n      sload\n      dup2\n      0xff\n      mul\n      not\n      and\n      swap1\n      dup4\n      iszero\n      iszero\n      mul\n      or\n      swap1\n      sstore\n      pop\n        /* \"Campaign.sol\":1942:1949  request */\n      dup1\n        /* \"Campaign.sol\":1942:1963  request.approvalCount */\n      0x03\n      add\n      0x00\n        /* \"Campaign.sol\":1942:1965  request.approvalCount++ */\n      dup2\n      sload\n      dup1\n      swap3\n      swap2\n      swap1\n      tag_83\n      swap1\n      tag_74\n      jump\t// in\n    tag_83:\n      swap2\n      swap1\n      pop\n      sstore\n      pop\n        /* \"Campaign.sol\":1739:1973  {... */\n      pop\n        /* \"Campaign.sol\":1696:1973  function approveRequest(uint index) public {... */\n      pop\n      jump\t// out\n        /* \"#utility.yul\":7:82   */\n    tag_84:\n        /* \"#utility.yul\":40:46   */\n      0x00\n        /* \"#utility.yul\":73:75   */\n      0x40\n        /* \"#utility.yul\":67:76   */\n      mload\n        /* \"#utility.yul\":57:76   */\n      swap1\n      pop\n        /* \"#utility.yul\":7:82   */\n      swap1\n      jump\t// out\n        /* \"#utility.yul\":88:205   */\n    tag_85:\n        /* \"#utility.yul\":197:198   */\n      0x00\n        /* \"#utility.yul\":194:195   */\n      dup1\n        /* \"#utility.yul\":187:199   */\n      revert\n        /* \"#utility.yul\":211:328   */\n    tag_86:\n        /* \"#utility.yul\":320:321   */\n      0x00\n        /* \"#utility.yul\":317:318   */\n      dup1\n        /* \"#utility.yul\":310:322   */\n      revert\n        /* \"#utility.yul\":334:411   */\n    tag_87:\n        /* \"#utility.yul\":371:378   */\n      0x00\n        /* \"#utility.yul\":400:405   */\n      dup2\n        /* \"#utility.yul\":389:405   */\n      swap1\n      pop\n        /* \"#utility.yul\":334:411   */\n      swap2\n      swap1\n      pop\n      jump\t// out\n        /* \"#utility.yul\":417:539   */\n    tag_88:\n        /* \"#utility.yul\":490:514   */\n      tag_139\n        /* \"#utility.yul\":508:513   */\n      dup2\n        /* \"#utility.yul\":490:514   */\n      tag_87\n      jump\t// in\n    tag_139:\n        /* \"#utility.yul\":483:488   */\n      dup2\n        /* \"#utility.yul\":480:515   */\n      eq\n        /* \"#utility.yul\":470:533   */\n      tag_140\n      jumpi\n        /* \"#utility.yul\":529:530   */\n      0x00\n        /* \"#utility.yul\":526:527   */\n      dup1\n        /* \"#utility.yul\":519:531   */\n      revert\n        /* \"#utility.yul\":470:533   */\n    tag_140:\n        /* \"#utility.yul\":417:539   */\n      pop\n      jump\t// out\n        /* \"#utility.yul\":545:684   */\n    tag_89:\n        /* \"#utility.yul\":591:596   */\n      0x00\n        /* \"#utility.yul\":629:635   */\n      dup2\n        /* \"#utility.yul\":616:636   */\n      calldataload\n        /* \"#utility.yul\":607:636   */\n      swap1\n      pop\n        /* \"#utility.yul\":645:678   */\n      tag_142\n        /* \"#utility.yul\":672:677   */\n      dup2\n        /* \"#utility.yul\":645:678   */\n      tag_88\n      jump\t// in\n    tag_142:\n        /* \"#utility.yul\":545:684   */\n      swap3\n      swap2\n      pop\n      pop\n      jump\t// out\n        /* \"#utility.yul\":690:1019   */\n    tag_15:\n        /* \"#utility.yul\":749:755   */\n      0x00\n        /* \"#utility.yul\":798:800   */\n      0x20\n        /* \"#utility.yul\":786:795   */\n      dup3\n        /* \"#utility.yul\":777:784   */\n      dup5\n        /* \"#utility.yul\":773:796   */\n      sub\n        /* \"#utility.yul\":769:801   */\n      slt\n        /* \"#utility.yul\":766:885   */\n      iszero\n      tag_144\n      jumpi\n        /* \"#utility.yul\":804:883   */\n      tag_145\n      tag_85\n      jump\t// in\n    tag_145:\n        /* \"#utility.yul\":766:885   */\n    tag_144:\n        /* \"#utility.yul\":924:925   */\n      0x00\n        /* \"#utility.yul\":949:1002   */\n      tag_146\n        /* \"#utility.yul\":994:1001   */\n      dup5\n        /* \"#utility.yul\":985:991   */\n      dup3\n        /* \"#utility.yul\":974:983   */\n      dup6\n        /* \"#utility.yul\":970:992   */\n      add\n        /* \"#utility.yul\":949:1002   */\n      tag_89\n      jump\t// in\n    tag_146:\n        /* \"#utility.yul\":939:1002   */\n      swap2\n      pop\n        /* \"#utility.yul\":895:1012   */\n      pop\n        /* \"#utility.yul\":690:1019   */\n      swap3\n      swap2\n      pop\n      pop\n      jump\t// out\n        /* \"#utility.yul\":1025:1151   */\n    tag_90:\n        /* \"#utility.yul\":1062:1069   */\n      0x00\n        /* \"#utility.yul\":1102:1144   */\n      0xffffffffffffffffffffffffffffffffffffffff\n        /* \"#utility.yul\":1095:1100   */\n      dup3\n        /* \"#utility.yul\":1091:1145   */\n      and\n        /* \"#utility.yul\":1080:1145   */\n      swap1\n      pop\n        /* \"#utility.yul\":1025:1151   */\n      swap2\n      swap1\n      pop\n      jump\t// out\n        /* \"#utility.yul\":1157:1253   */\n    tag_91:\n        /* \"#utility.yul\":1194:1201   */\n      0x00\n        /* \"#utility.yul\":1223:1247   */\n      tag_149\n        /* \"#utility.yul\":1241:1246   */\n      dup3\n        /* \"#utility.yul\":1223:1247   */\n      tag_90\n      jump\t// in\n    tag_149:\n        /* \"#utility.yul\":1212:1247   */\n      swap1\n      pop\n        /* \"#utility.yul\":1157:1253   */\n      swap2\n      swap1\n      pop\n      jump\t// out\n        /* \"#utility.yul\":1259:1381   */\n    tag_92:\n        /* \"#utility.yul\":1332:1356   */\n      tag_151\n        /* \"#utility.yul\":1350:1355   */\n      dup2\n        /* \"#utility.yul\":1332:1356   */\n      tag_91\n      jump\t// in\n    tag_151:\n        /* \"#utility.yul\":1325:1330   */\n      dup2\n        /* \"#utility.yul\":1322:1357   */\n      eq\n        /* \"#utility.yul\":1312:1375   */\n      tag_152\n      jumpi\n        /* \"#utility.yul\":1371:1372   */\n      0x00\n        /* \"#utility.yul\":1368:1369   */\n      dup1\n        /* \"#utility.yul\":1361:1373   */\n      revert\n        /* \"#utility.yul\":1312:1375   */\n    tag_152:\n        /* \"#utility.yul\":1259:1381   */\n      pop\n      jump\t// out\n        /* \"#utility.yul\":1387:1526   */\n    tag_93:\n        /* \"#utility.yul\":1433:1438   */\n      0x00\n        /* \"#utility.yul\":1471:1477   */\n      dup2\n        /* \"#utility.yul\":1458:1478   */\n      calldataload\n        /* \"#utility.yul\":1449:1478   */\n      swap1\n      pop\n        /* \"#utility.yul\":1487:1520   */\n      tag_154\n        /* \"#utility.yul\":1514:1519   */\n      dup2\n        /* \"#utility.yul\":1487:1520   */\n      tag_92\n      jump\t// in\n    tag_154:\n        /* \"#utility.yul\":1387:1526   */\n      swap3\n      swap2\n      pop\n      pop\n      jump\t// out\n        /* \"#utility.yul\":1532:1861   */\n    tag_20:\n        /* \"#utility.yul\":1591:1597   */\n      0x00\n        /* \"#utility.yul\":1640:1642   */\n      0x20\n        /* \"#utility.yul\":1628:1637   */\n      dup3\n        /* \"#utility.yul\":1619:1626   */\n      dup5\n        /* \"#utility.yul\":1615:1638   */\n      sub\n        /* \"#utility.yul\":1611:1643   */\n      slt\n        /* \"#utility.yul\":1608:1727   */\n      iszero\n      tag_156\n      jumpi\n        /* \"#utility.yul\":1646:1725   */\n      tag_157\n      tag_85\n      jump\t// in\n    tag_157:\n        /* \"#utility.yul\":1608:1727   */\n    tag_156:\n        /* \"#utility.yul\":1766:1767   */\n      0x00\n        /* \"#utility.yul\":1791:1844   */\n      tag_158\n        /* \"#utility.yul\":1836:1843   */\n      dup5\n        /* \"#utility.yul\":1827:1833   */\n      dup3\n        /* \"#utility.yul\":1816:1825   */\n      dup6\n        /* \"#utility.yul\":1812:1834   */\n      add\n        /* \"#utility.yul\":1791:1844   */\n      tag_93\n      jump\t// in\n    tag_158:\n        /* \"#utility.yul\":1781:1844   */\n      swap2\n      pop\n        /* \"#utility.yul\":1737:1854   */\n      pop\n        /* \"#utility.yul\":1532:1861   */\n      swap3\n      swap2\n      pop\n      pop\n      jump\t// out\n        /* \"#utility.yul\":1867:1957   */\n    tag_94:\n        /* \"#utility.yul\":1901:1908   */\n      0x00\n        /* \"#utility.yul\":1944:1949   */\n      dup2\n        /* \"#utility.yul\":1937:1950   */\n      iszero\n        /* \"#utility.yul\":1930:1951   */\n      iszero\n        /* \"#utility.yul\":1919:1951   */\n      swap1\n      pop\n        /* \"#utility.yul\":1867:1957   */\n      swap2\n      swap1\n      pop\n      jump\t// out\n        /* \"#utility.yul\":1963:2072   */\n    tag_95:\n        /* \"#utility.yul\":2044:2065   */\n      tag_161\n        /* \"#utility.yul\":2059:2064   */\n      dup2\n        /* \"#utility.yul\":2044:2065   */\n      tag_94\n      jump\t// in\n    tag_161:\n        /* \"#utility.yul\":2039:2042   */\n      dup3\n        /* \"#utility.yul\":2032:2066   */\n      mstore\n        /* \"#utility.yul\":1963:2072   */\n      pop\n      pop\n      jump\t// out\n        /* \"#utility.yul\":2078:2288   */\n    tag_23:\n        /* \"#utility.yul\":2165:2169   */\n      0x00\n        /* \"#utility.yul\":2203:2205   */\n      0x20\n        /* \"#utility.yul\":2192:2201   */\n      dup3\n        /* \"#utility.yul\":2188:2206   */\n      add\n        /* \"#utility.yul\":2180:2206   */\n      swap1\n      pop\n        /* \"#utility.yul\":2216:2281   */\n      tag_163\n        /* \"#utility.yul\":2278:2279   */\n      0x00\n        /* \"#utility.yul\":2267:2276   */\n      dup4\n        /* \"#utility.yul\":2263:2280   */\n      add\n        /* \"#utility.yul\":2254:2260   */\n      dup5\n        /* \"#utility.yul\":2216:2281   */\n      tag_95\n      jump\t// in\n    tag_163:\n        /* \"#utility.yul\":2078:2288   */\n      swap3\n      swap2\n      pop\n      pop\n      jump\t// out\n        /* \"#utility.yul\":2294:2398   */\n    tag_96:\n        /* \"#utility.yul\":2339:2346   */\n      0x00\n        /* \"#utility.yul\":2368:2392   */\n      tag_165\n        /* \"#utility.yul\":2386:2391   */\n      dup3\n        /* \"#utility.yul\":2368:2392   */\n      tag_90\n      jump\t// in\n    tag_165:\n        /* \"#utility.yul\":2357:2392   */\n      swap1\n      pop\n        /* \"#utility.yul\":2294:2398   */\n      swap2\n      swap1\n      pop\n      jump\t// out\n        /* \"#utility.yul\":2404:2546   */\n    tag_97:\n        /* \"#utility.yul\":2507:2539   */\n      tag_167\n        /* \"#utility.yul\":2533:2538   */\n      dup2\n        /* \"#utility.yul\":2507:2539   */\n      tag_96\n      jump\t// in\n    tag_167:\n        /* \"#utility.yul\":2502:2505   */\n      dup3\n        /* \"#utility.yul\":2495:2540   */\n      mstore\n        /* \"#utility.yul\":2404:2546   */\n      pop\n      pop\n      jump\t// out\n        /* \"#utility.yul\":2552:2806   */\n    tag_28:\n        /* \"#utility.yul\":2661:2665   */\n      0x00\n        /* \"#utility.yul\":2699:2701   */\n      0x20\n        /* \"#utility.yul\":2688:2697   */\n      dup3\n        /* \"#utility.yul\":2684:2702   */\n      add\n        /* \"#utility.yul\":2676:2702   */\n      swap1\n      pop\n        /* \"#utility.yul\":2712:2799   */\n      tag_169\n        /* \"#utility.yul\":2796:2797   */\n      0x00\n        /* \"#utility.yul\":2785:2794   */\n      dup4\n        /* \"#utility.yul\":2781:2798   */\n      add\n        /* \"#utility.yul\":2772:2778   */\n      dup5\n        /* \"#utility.yul\":2712:2799   */\n      tag_97\n      jump\t// in\n    tag_169:\n        /* \"#utility.yul\":2552:2806   */\n      swap3\n      swap2\n      pop\n      pop\n      jump\t// out\n        /* \"#utility.yul\":2812:2911   */\n    tag_98:\n        /* \"#utility.yul\":2864:2870   */\n      0x00\n        /* \"#utility.yul\":2898:2903   */\n      dup2\n        /* \"#utility.yul\":2892:2904   */\n      mload\n        /* \"#utility.yul\":2882:2904   */\n      swap1\n      pop\n        /* \"#utility.yul\":2812:2911   */\n      swap2\n      swap1\n      pop\n      jump\t// out\n        /* \"#utility.yul\":2917:3086   */\n    tag_99:\n        /* \"#utility.yul\":3001:3012   */\n      0x00\n        /* \"#utility.yul\":3035:3041   */\n      dup3\n        /* \"#utility.yul\":3030:3033   */\n      dup3\n        /* \"#utility.yul\":3023:3042   */\n      mstore\n        /* \"#utility.yul\":3075:3079   */\n      0x20\n        /* \"#utility.yul\":3070:3073   */\n      dup3\n        /* \"#utility.yul\":3066:3080   */\n      add\n        /* \"#utility.yul\":3051:3080   */\n      swap1\n      pop\n        /* \"#utility.yul\":2917:3086   */\n      swap3\n      swap2\n      pop\n      pop\n      jump\t// out\n        /* \"#utility.yul\":3092:3338   */\n    tag_100:\n        /* \"#utility.yul\":3173:3174   */\n      0x00\n        /* \"#utility.yul\":3183:3296   */\n    tag_173:\n        /* \"#utility.yul\":3197:3203   */\n      dup4\n        /* \"#utility.yul\":3194:3195   */\n      dup2\n        /* \"#utility.yul\":3191:3204   */\n      lt\n        /* \"#utility.yul\":3183:3296   */\n      iszero\n      tag_175\n      jumpi\n        /* \"#utility.yul\":3282:3283   */\n      dup1\n        /* \"#utility.yul\":3277:3280   */\n      dup3\n        /* \"#utility.yul\":3273:3284   */\n      add\n        /* \"#utility.yul\":3267:3285   */\n      mload\n        /* \"#utility.yul\":3263:3264   */\n      dup2\n        /* \"#utility.yul\":3258:3261   */\n      dup5\n        /* \"#utility.yul\":3254:3265   */\n      add\n        /* \"#utility.yul\":3247:3286   */\n      mstore\n        /* \"#utility.yul\":3219:3221   */\n      0x20\n        /* \"#utility.yul\":3216:3217   */\n      dup2\n        /* \"#utility.yul\":3212:3222   */\n      add\n        /* \"#utility.yul\":3207:3222   */\n      swap1\n      pop\n        /* \"#utility.yul\":3183:3296   */\n      jump(tag_173)\n    tag_175:\n        /* \"#utility.yul\":3330:3331   */\n      0x00\n        /* \"#utility.yul\":3321:3327   */\n      dup5\n        /* \"#utility.yul\":3316:3319   */\n      dup5\n        /* \"#utility.yul\":3312:3328   */\n      add\n        /* \"#utility.yul\":3305:3332   */\n      mstore\n        /* \"#utility.yul\":3154:3338   */\n      pop\n        /* \"#utility.yul\":3092:3338   */\n      pop\n      pop\n      pop\n      jump\t// out\n        /* \"#utility.yul\":3344:3446   */\n    tag_101:\n        /* \"#utility.yul\":3385:3391   */\n      0x00\n        /* \"#utility.yul\":3436:3438   */\n      0x1f\n        /* \"#utility.yul\":3432:3439   */\n      not\n        /* \"#utility.yul\":3427:3429   */\n      0x1f\n        /* \"#utility.yul\":3420:3425   */\n      dup4\n        /* \"#utility.yul\":3416:3430   */\n      add\n        /* \"#utility.yul\":3412:3440   */\n      and\n        /* \"#utility.yul\":3402:3440   */\n      swap1\n      pop\n        /* \"#utility.yul\":3344:3446   */\n      swap2\n      swap1\n      pop\n      jump\t// out\n        /* \"#utility.yul\":3452:3829   */\n    tag_102:\n        /* \"#utility.yul\":3540:3543   */\n      0x00\n        /* \"#utility.yul\":3568:3607   */\n      tag_178\n        /* \"#utility.yul\":3601:3606   */\n      dup3\n        /* \"#utility.yul\":3568:3607   */\n      tag_98\n      jump\t// in\n    tag_178:\n        /* \"#utility.yul\":3623:3694   */\n      tag_179\n        /* \"#utility.yul\":3687:3693   */\n      dup2\n        /* \"#utility.yul\":3682:3685   */\n      dup6\n        /* \"#utility.yul\":3623:3694   */\n      tag_99\n      jump\t// in\n    tag_179:\n        /* \"#utility.yul\":3616:3694   */\n      swap4\n      pop\n        /* \"#utility.yul\":3703:3768   */\n      tag_180\n        /* \"#utility.yul\":3761:3767   */\n      dup2\n        /* \"#utility.yul\":3756:3759   */\n      dup6\n        /* \"#utility.yul\":3749:3753   */\n      0x20\n        /* \"#utility.yul\":3742:3747   */\n      dup7\n        /* \"#utility.yul\":3738:3754   */\n      add\n        /* \"#utility.yul\":3703:3768   */\n      tag_100\n      jump\t// in\n    tag_180:\n        /* \"#utility.yul\":3793:3822   */\n      tag_181\n        /* \"#utility.yul\":3815:3821   */\n      dup2\n        /* \"#utility.yul\":3793:3822   */\n      tag_101\n      jump\t// in\n    tag_181:\n        /* \"#utility.yul\":3788:3791   */\n      dup5\n        /* \"#utility.yul\":3784:3823   */\n      add\n        /* \"#utility.yul\":3777:3823   */\n      swap2\n      pop\n        /* \"#utility.yul\":3544:3829   */\n      pop\n        /* \"#utility.yul\":3452:3829   */\n      swap3\n      swap2\n      pop\n      pop\n      jump\t// out\n        /* \"#utility.yul\":3835:3953   */\n    tag_103:\n        /* \"#utility.yul\":3922:3946   */\n      tag_183\n        /* \"#utility.yul\":3940:3945   */\n      dup2\n        /* \"#utility.yul\":3922:3946   */\n      tag_87\n      jump\t// in\n    tag_183:\n        /* \"#utility.yul\":3917:3920   */\n      dup3\n        /* \"#utility.yul\":3910:3947   */\n      mstore\n        /* \"#utility.yul\":3835:3953   */\n      pop\n      pop\n      jump\t// out\n        /* \"#utility.yul\":3959:4734   */\n    tag_34:\n        /* \"#utility.yul\":4194:4198   */\n      0x00\n        /* \"#utility.yul\":4232:4235   */\n      0xa0\n        /* \"#utility.yul\":4221:4230   */\n      dup3\n        /* \"#utility.yul\":4217:4236   */\n      add\n        /* \"#utility.yul\":4209:4236   */\n      swap1\n      pop\n        /* \"#utility.yul\":4282:4291   */\n      dup2\n        /* \"#utility.yul\":4276:4280   */\n      dup2\n        /* \"#utility.yul\":4272:4292   */\n      sub\n        /* \"#utility.yul\":4268:4269   */\n      0x00\n        /* \"#utility.yul\":4257:4266   */\n      dup4\n        /* \"#utility.yul\":4253:4270   */\n      add\n        /* \"#utility.yul\":4246:4293   */\n      mstore\n        /* \"#utility.yul\":4310:4388   */\n      tag_185\n        /* \"#utility.yul\":4383:4387   */\n      dup2\n        /* \"#utility.yul\":4374:4380   */\n      dup9\n        /* \"#utility.yul\":4310:4388   */\n      tag_102\n      jump\t// in\n    tag_185:\n        /* \"#utility.yul\":4302:4388   */\n      swap1\n      pop\n        /* \"#utility.yul\":4398:4470   */\n      tag_186\n        /* \"#utility.yul\":4466:4468   */\n      0x20\n        /* \"#utility.yul\":4455:4464   */\n      dup4\n        /* \"#utility.yul\":4451:4469   */\n      add\n        /* \"#utility.yul\":4442:4448   */\n      dup8\n        /* \"#utility.yul\":4398:4470   */\n      tag_103\n      jump\t// in\n    tag_186:\n        /* \"#utility.yul\":4480:4568   */\n      tag_187\n        /* \"#utility.yul\":4564:4566   */\n      0x40\n        /* \"#utility.yul\":4553:4562   */\n      dup4\n        /* \"#utility.yul\":4549:4567   */\n      add\n        /* \"#utility.yul\":4540:4546   */\n      dup7\n        /* \"#utility.yul\":4480:4568   */\n      tag_97\n      jump\t// in\n    tag_187:\n        /* \"#utility.yul\":4578:4644   */\n      tag_188\n        /* \"#utility.yul\":4640:4642   */\n      0x60\n        /* \"#utility.yul\":4629:4638   */\n      dup4\n        /* \"#utility.yul\":4625:4643   */\n      add\n        /* \"#utility.yul\":4616:4622   */\n      dup6\n        /* \"#utility.yul\":4578:4644   */\n      tag_95\n      jump\t// in\n    tag_188:\n        /* \"#utility.yul\":4654:4727   */\n      tag_189\n        /* \"#utility.yul\":4722:4725   */\n      0x80\n        /* \"#utility.yul\":4711:4720   */\n      dup4\n        /* \"#utility.yul\":4707:4726   */\n      add\n        /* \"#utility.yul\":4698:4704   */\n      dup5\n        /* \"#utility.yul\":4654:4727   */\n      tag_103\n      jump\t// in\n    tag_189:\n        /* \"#utility.yul\":3959:4734   */\n      swap7\n      swap6\n      pop\n      pop\n      pop\n      pop\n      pop\n      pop\n      jump\t// out\n        /* \"#utility.yul\":4740:4962   */\n    tag_39:\n        /* \"#utility.yul\":4833:4837   */\n      0x00\n        /* \"#utility.yul\":4871:4873   */\n      0x20\n        /* \"#utility.yul\":4860:4869   */\n      dup3\n        /* \"#utility.yul\":4856:4874   */\n      add\n        /* \"#utility.yul\":4848:4874   */\n      swap1\n      pop\n        /* \"#utility.yul\":4884:4955   */\n      tag_191\n        /* \"#utility.yul\":4952:4953   */\n      0x00\n        /* \"#utility.yul\":4941:4950   */\n      dup4\n        /* \"#utility.yul\":4937:4954   */\n      add\n        /* \"#utility.yul\":4928:4934   */\n      dup5\n        /* \"#utility.yul\":4884:4955   */\n      tag_103\n      jump\t// in\n    tag_191:\n        /* \"#utility.yul\":4740:4962   */\n      swap3\n      swap2\n      pop\n      pop\n      jump\t// out\n        /* \"#utility.yul\":4968:5085   */\n    tag_104:\n        /* \"#utility.yul\":5077:5078   */\n      0x00\n        /* \"#utility.yul\":5074:5075   */\n      dup1\n        /* \"#utility.yul\":5067:5079   */\n      revert\n        /* \"#utility.yul\":5091:5208   */\n    tag_105:\n        /* \"#utility.yul\":5200:5201   */\n      0x00\n        /* \"#utility.yul\":5197:5198   */\n      dup1\n        /* \"#utility.yul\":5190:5202   */\n      revert\n        /* \"#utility.yul\":5214:5394   */\n    tag_106:\n        /* \"#utility.yul\":5262:5339   */\n      0x4e487b7100000000000000000000000000000000000000000000000000000000\n        /* \"#utility.yul\":5259:5260   */\n      0x00\n        /* \"#utility.yul\":5252:5340   */\n      mstore\n        /* \"#utility.yul\":5359:5363   */\n      0x41\n        /* \"#utility.yul\":5356:5357   */\n      0x04\n        /* \"#utility.yul\":5349:5364   */\n      mstore\n        /* \"#utility.yul\":5383:5387   */\n      0x24\n        /* \"#utility.yul\":5380:5381   */\n      0x00\n        /* \"#utility.yul\":5373:5388   */\n      revert\n        /* \"#utility.yul\":5400:5681   */\n    tag_107:\n        /* \"#utility.yul\":5483:5510   */\n      tag_196\n        /* \"#utility.yul\":5505:5509   */\n      dup3\n        /* \"#utility.yul\":5483:5510   */\n      tag_101\n      jump\t// in\n    tag_196:\n        /* \"#utility.yul\":5475:5481   */\n      dup2\n        /* \"#utility.yul\":5471:5511   */\n      add\n        /* \"#utility.yul\":5613:5619   */\n      dup2\n        /* \"#utility.yul\":5601:5611   */\n      dup2\n        /* \"#utility.yul\":5598:5620   */\n      lt\n        /* \"#utility.yul\":5577:5595   */\n      0xffffffffffffffff\n        /* \"#utility.yul\":5565:5575   */\n      dup3\n        /* \"#utility.yul\":5562:5596   */\n      gt\n        /* \"#utility.yul\":5559:5621   */\n      or\n        /* \"#utility.yul\":5556:5644   */\n      iszero\n      tag_197\n      jumpi\n        /* \"#utility.yul\":5624:5642   */\n      tag_198\n      tag_106\n      jump\t// in\n    tag_198:\n        /* \"#utility.yul\":5556:5644   */\n    tag_197:\n        /* \"#utility.yul\":5664:5674   */\n      dup1\n        /* \"#utility.yul\":5660:5662   */\n      0x40\n        /* \"#utility.yul\":5653:5675   */\n      mstore\n        /* \"#utility.yul\":5443:5681   */\n      pop\n        /* \"#utility.yul\":5400:5681   */\n      pop\n      pop\n      jump\t// out\n        /* \"#utility.yul\":5687:5816   */\n    tag_108:\n        /* \"#utility.yul\":5721:5727   */\n      0x00\n        /* \"#utility.yul\":5748:5768   */\n      tag_200\n      tag_84\n      jump\t// in\n    tag_200:\n        /* \"#utility.yul\":5738:5768   */\n      swap1\n      pop\n        /* \"#utility.yul\":5777:5810   */\n      tag_201\n        /* \"#utility.yul\":5805:5809   */\n      dup3\n        /* \"#utility.yul\":5797:5803   */\n      dup3\n        /* \"#utility.yul\":5777:5810   */\n      tag_107\n      jump\t// in\n    tag_201:\n        /* \"#utility.yul\":5687:5816   */\n      swap2\n      swap1\n      pop\n      jump\t// out\n        /* \"#utility.yul\":5822:6130   */\n    tag_109:\n        /* \"#utility.yul\":5884:5888   */\n      0x00\n        /* \"#utility.yul\":5974:5992   */\n      0xffffffffffffffff\n        /* \"#utility.yul\":5966:5972   */\n      dup3\n        /* \"#utility.yul\":5963:5993   */\n      gt\n        /* \"#utility.yul\":5960:6016   */\n      iszero\n      tag_203\n      jumpi\n        /* \"#utility.yul\":5996:6014   */\n      tag_204\n      tag_106\n      jump\t// in\n    tag_204:\n        /* \"#utility.yul\":5960:6016   */\n    tag_203:\n        /* \"#utility.yul\":6034:6063   */\n      tag_205\n        /* \"#utility.yul\":6056:6062   */\n      dup3\n        /* \"#utility.yul\":6034:6063   */\n      tag_101\n      jump\t// in\n    tag_205:\n        /* \"#utility.yul\":6026:6063   */\n      swap1\n      pop\n        /* \"#utility.yul\":6118:6122   */\n      0x20\n        /* \"#utility.yul\":6112:6116   */\n      dup2\n        /* \"#utility.yul\":6108:6123   */\n      add\n        /* \"#utility.yul\":6100:6123   */\n      swap1\n      pop\n        /* \"#utility.yul\":5822:6130   */\n      swap2\n      swap1\n      pop\n      jump\t// out\n        /* \"#utility.yul\":6136:6282   */\n    tag_110:\n        /* \"#utility.yul\":6233:6239   */\n      dup3\n        /* \"#utility.yul\":6228:6231   */\n      dup2\n        /* \"#utility.yul\":6223:6226   */\n      dup4\n        /* \"#utility.yul\":6210:6240   */\n      calldatacopy\n        /* \"#utility.yul\":6274:6275   */\n      0x00\n        /* \"#utility.yul\":6265:6271   */\n      dup4\n        /* \"#utility.yul\":6260:6263   */\n      dup4\n        /* \"#utility.yul\":6256:6272   */\n      add\n        /* \"#utility.yul\":6249:6276   */\n      mstore\n        /* \"#utility.yul\":6136:6282   */\n      pop\n      pop\n      pop\n      jump\t// out\n        /* \"#utility.yul\":6288:6713   */\n    tag_111:\n        /* \"#utility.yul\":6366:6371   */\n      0x00\n        /* \"#utility.yul\":6391:6457   */\n      tag_208\n        /* \"#utility.yul\":6407:6456   */\n      tag_209\n        /* \"#utility.yul\":6449:6455   */\n      dup5\n        /* \"#utility.yul\":6407:6456   */\n      tag_109\n      jump\t// in\n    tag_209:\n        /* \"#utility.yul\":6391:6457   */\n      tag_108\n      jump\t// in\n    tag_208:\n        /* \"#utility.yul\":6382:6457   */\n      swap1\n      pop\n        /* \"#utility.yul\":6480:6486   */\n      dup3\n        /* \"#utility.yul\":6473:6478   */\n      dup2\n        /* \"#utility.yul\":6466:6487   */\n      mstore\n        /* \"#utility.yul\":6518:6522   */\n      0x20\n        /* \"#utility.yul\":6511:6516   */\n      dup2\n        /* \"#utility.yul\":6507:6523   */\n      add\n        /* \"#utility.yul\":6556:6559   */\n      dup5\n        /* \"#utility.yul\":6547:6553   */\n      dup5\n        /* \"#utility.yul\":6542:6545   */\n      dup5\n        /* \"#utility.yul\":6538:6554   */\n      add\n        /* \"#utility.yul\":6535:6560   */\n      gt\n        /* \"#utility.yul\":6532:6644   */\n      iszero\n      tag_210\n      jumpi\n        /* \"#utility.yul\":6563:6642   */\n      tag_211\n      tag_105\n      jump\t// in\n    tag_211:\n        /* \"#utility.yul\":6532:6644   */\n    tag_210:\n        /* \"#utility.yul\":6653:6707   */\n      tag_212\n        /* \"#utility.yul\":6700:6706   */\n      dup5\n        /* \"#utility.yul\":6695:6698   */\n      dup3\n        /* \"#utility.yul\":6690:6693   */\n      dup6\n        /* \"#utility.yul\":6653:6707   */\n      tag_110\n      jump\t// in\n    tag_212:\n        /* \"#utility.yul\":6372:6713   */\n      pop\n        /* \"#utility.yul\":6288:6713   */\n      swap4\n      swap3\n      pop\n      pop\n      pop\n      jump\t// out\n        /* \"#utility.yul\":6733:7073   */\n    tag_112:\n        /* \"#utility.yul\":6789:6794   */\n      0x00\n        /* \"#utility.yul\":6838:6841   */\n      dup3\n        /* \"#utility.yul\":6831:6835   */\n      0x1f\n        /* \"#utility.yul\":6823:6829   */\n      dup4\n        /* \"#utility.yul\":6819:6836   */\n      add\n        /* \"#utility.yul\":6815:6842   */\n      slt\n        /* \"#utility.yul\":6805:6927   */\n      tag_214\n      jumpi\n        /* \"#utility.yul\":6846:6925   */\n      tag_215\n      tag_104\n      jump\t// in\n    tag_215:\n        /* \"#utility.yul\":6805:6927   */\n    tag_214:\n        /* \"#utility.yul\":6963:6969   */\n      dup2\n        /* \"#utility.yul\":6950:6970   */\n      calldataload\n        /* \"#utility.yul\":6988:7067   */\n      tag_216\n        /* \"#utility.yul\":7063:7066   */\n      dup5\n        /* \"#utility.yul\":7055:7061   */\n      dup3\n        /* \"#utility.yul\":7048:7052   */\n      0x20\n        /* \"#utility.yul\":7040:7046   */\n      dup7\n        /* \"#utility.yul\":7036:7053   */\n      add\n        /* \"#utility.yul\":6988:7067   */\n      tag_111\n      jump\t// in\n    tag_216:\n        /* \"#utility.yul\":6979:7067   */\n      swap2\n      pop\n        /* \"#utility.yul\":6795:7073   */\n      pop\n        /* \"#utility.yul\":6733:7073   */\n      swap3\n      swap2\n      pop\n      pop\n      jump\t// out\n        /* \"#utility.yul\":7079:7217   */\n    tag_113:\n        /* \"#utility.yul\":7160:7192   */\n      tag_218\n        /* \"#utility.yul\":7186:7191   */\n      dup2\n        /* \"#utility.yul\":7160:7192   */\n      tag_96\n      jump\t// in\n    tag_218:\n        /* \"#utility.yul\":7153:7158   */\n      dup2\n        /* \"#utility.yul\":7150:7193   */\n      eq\n        /* \"#utility.yul\":7140:7211   */\n      tag_219\n      jumpi\n        /* \"#utility.yul\":7207:7208   */\n      0x00\n        /* \"#utility.yul\":7204:7205   */\n      dup1\n        /* \"#utility.yul\":7197:7209   */\n      revert\n        /* \"#utility.yul\":7140:7211   */\n    tag_219:\n        /* \"#utility.yul\":7079:7217   */\n      pop\n      jump\t// out\n        /* \"#utility.yul\":7223:7378   */\n    tag_114:\n        /* \"#utility.yul\":7277:7282   */\n      0x00\n        /* \"#utility.yul\":7315:7321   */\n      dup2\n        /* \"#utility.yul\":7302:7322   */\n      calldataload\n        /* \"#utility.yul\":7293:7322   */\n      swap1\n      pop\n        /* \"#utility.yul\":7331:7372   */\n      tag_221\n        /* \"#utility.yul\":7366:7371   */\n      dup2\n        /* \"#utility.yul\":7331:7372   */\n      tag_113\n      jump\t// in\n    tag_221:\n        /* \"#utility.yul\":7223:7378   */\n      swap3\n      swap2\n      pop\n      pop\n      jump\t// out\n        /* \"#utility.yul\":7384:8199   */\n    tag_43:\n        /* \"#utility.yul\":7479:7485   */\n      0x00\n        /* \"#utility.yul\":7487:7493   */\n      dup1\n        /* \"#utility.yul\":7495:7501   */\n      0x00\n        /* \"#utility.yul\":7544:7546   */\n      0x60\n        /* \"#utility.yul\":7532:7541   */\n      dup5\n        /* \"#utility.yul\":7523:7530   */\n      dup7\n        /* \"#utility.yul\":7519:7542   */\n      sub\n        /* \"#utility.yul\":7515:7547   */\n      slt\n        /* \"#utility.yul\":7512:7631   */\n      iszero\n      tag_223\n      jumpi\n        /* \"#utility.yul\":7550:7629   */\n      tag_224\n      tag_85\n      jump\t// in\n    tag_224:\n        /* \"#utility.yul\":7512:7631   */\n    tag_223:\n        /* \"#utility.yul\":7698:7699   */\n      0x00\n        /* \"#utility.yul\":7687:7696   */\n      dup5\n        /* \"#utility.yul\":7683:7700   */\n      add\n        /* \"#utility.yul\":7670:7701   */\n      calldataload\n        /* \"#utility.yul\":7728:7746   */\n      0xffffffffffffffff\n        /* \"#utility.yul\":7720:7726   */\n      dup2\n        /* \"#utility.yul\":7717:7747   */\n      gt\n        /* \"#utility.yul\":7714:7831   */\n      iszero\n      tag_225\n      jumpi\n        /* \"#utility.yul\":7750:7829   */\n      tag_226\n      tag_86\n      jump\t// in\n    tag_226:\n        /* \"#utility.yul\":7714:7831   */\n    tag_225:\n        /* \"#utility.yul\":7855:7918   */\n      tag_227\n        /* \"#utility.yul\":7910:7917   */\n      dup7\n        /* \"#utility.yul\":7901:7907   */\n      dup3\n        /* \"#utility.yul\":7890:7899   */\n      dup8\n        /* \"#utility.yul\":7886:7908   */\n      add\n        /* \"#utility.yul\":7855:7918   */\n      tag_112\n      jump\t// in\n    tag_227:\n        /* \"#utility.yul\":7845:7918   */\n      swap4\n      pop\n        /* \"#utility.yul\":7641:7928   */\n      pop\n        /* \"#utility.yul\":7967:7969   */\n      0x20\n        /* \"#utility.yul\":7993:8046   */\n      tag_228\n        /* \"#utility.yul\":8038:8045   */\n      dup7\n        /* \"#utility.yul\":8029:8035   */\n      dup3\n        /* \"#utility.yul\":8018:8027   */\n      dup8\n        /* \"#utility.yul\":8014:8036   */\n      add\n        /* \"#utility.yul\":7993:8046   */\n      tag_89\n      jump\t// in\n    tag_228:\n        /* \"#utility.yul\":7983:8046   */\n      swap3\n      pop\n        /* \"#utility.yul\":7938:8056   */\n      pop\n        /* \"#utility.yul\":8095:8097   */\n      0x40\n        /* \"#utility.yul\":8121:8182   */\n      tag_229\n        /* \"#utility.yul\":8174:8181   */\n      dup7\n        /* \"#utility.yul\":8165:8171   */\n      dup3\n        /* \"#utility.yul\":8154:8163   */\n      dup8\n        /* \"#utility.yul\":8150:8172   */\n      add\n        /* \"#utility.yul\":8121:8182   */\n      tag_114\n      jump\t// in\n    tag_229:\n        /* \"#utility.yul\":8111:8182   */\n      swap2\n      pop\n        /* \"#utility.yul\":8066:8192   */\n      pop\n        /* \"#utility.yul\":7384:8199   */\n      swap3\n      pop\n      swap3\n      pop\n      swap3\n      jump\t// out\n        /* \"#utility.yul\":8205:8385   */\n    tag_115:\n        /* \"#utility.yul\":8253:8330   */\n      0x4e487b7100000000000000000000000000000000000000000000000000000000\n        /* \"#utility.yul\":8250:8251   */\n      0x00\n        /* \"#utility.yul\":8243:8331   */\n      mstore\n        /* \"#utility.yul\":8350:8354   */\n      0x12\n        /* \"#utility.yul\":8347:8348   */\n      0x04\n        /* \"#utility.yul\":8340:8355   */\n      mstore\n        /* \"#utility.yul\":8374:8378   */\n      0x24\n        /* \"#utility.yul\":8371:8372   */\n      0x00\n        /* \"#utility.yul\":8364:8379   */\n      revert\n        /* \"#utility.yul\":8391:8571   */\n    tag_116:\n        /* \"#utility.yul\":8439:8516   */\n      0x4e487b7100000000000000000000000000000000000000000000000000000000\n        /* \"#utility.yul\":8436:8437   */\n      0x00\n        /* \"#utility.yul\":8429:8517   */\n      mstore\n        /* \"#utility.yul\":8536:8540   */\n      0x11\n        /* \"#utility.yul\":8533:8534   */\n      0x04\n        /* \"#utility.yul\":8526:8541   */\n      mstore\n        /* \"#utility.yul\":8560:8564   */\n      0x24\n        /* \"#utility.yul\":8557:8558   */\n      0x00\n        /* \"#utility.yul\":8550:8565   */\n      revert\n        /* \"#utility.yul\":8577:8762   */\n    tag_59:\n        /* \"#utility.yul\":8617:8618   */\n      0x00\n        /* \"#utility.yul\":8634:8654   */\n      tag_233\n        /* \"#utility.yul\":8652:8653   */\n      dup3\n        /* \"#utility.yul\":8634:8654   */\n      tag_87\n      jump\t// in\n    tag_233:\n        /* \"#utility.yul\":8629:8654   */\n      swap2\n      pop\n        /* \"#utility.yul\":8668:8688   */\n      tag_234\n        /* \"#utility.yul\":8686:8687   */\n      dup4\n        /* \"#utility.yul\":8668:8688   */\n      tag_87\n      jump\t// in\n    tag_234:\n        /* \"#utility.yul\":8663:8688   */\n      swap3\n      pop\n        /* \"#utility.yul\":8707:8708   */\n      dup3\n        /* \"#utility.yul\":8697:8732   */\n      tag_235\n      jumpi\n        /* \"#utility.yul\":8712:8730   */\n      tag_236\n      tag_115\n      jump\t// in\n    tag_236:\n        /* \"#utility.yul\":8697:8732   */\n    tag_235:\n        /* \"#utility.yul\":8754:8755   */\n      dup3\n        /* \"#utility.yul\":8751:8752   */\n      dup3\n        /* \"#utility.yul\":8747:8756   */\n      div\n        /* \"#utility.yul\":8742:8756   */\n      swap1\n      pop\n        /* \"#utility.yul\":8577:8762   */\n      swap3\n      swap2\n      pop\n      pop\n      jump\t// out\n        /* \"#utility.yul\":8768:8948   */\n    tag_117:\n        /* \"#utility.yul\":8816:8893   */\n      0x4e487b7100000000000000000000000000000000000000000000000000000000\n        /* \"#utility.yul\":8813:8814   */\n      0x00\n        /* \"#utility.yul\":8806:8894   */\n      mstore\n        /* \"#utility.yul\":8913:8917   */\n      0x22\n        /* \"#utility.yul\":8910:8911   */\n      0x04\n        /* \"#utility.yul\":8903:8918   */\n      mstore\n        /* \"#utility.yul\":8937:8941   */\n      0x24\n        /* \"#utility.yul\":8934:8935   */\n      0x00\n        /* \"#utility.yul\":8927:8942   */\n      revert\n        /* \"#utility.yul\":8954:9274   */\n    tag_65:\n        /* \"#utility.yul\":8998:9004   */\n      0x00\n        /* \"#utility.yul\":9035:9036   */\n      0x02\n        /* \"#utility.yul\":9029:9033   */\n      dup3\n        /* \"#utility.yul\":9025:9037   */\n      div\n        /* \"#utility.yul\":9015:9037   */\n      swap1\n      pop\n        /* \"#utility.yul\":9082:9083   */\n      0x01\n        /* \"#utility.yul\":9076:9080   */\n      dup3\n        /* \"#utility.yul\":9072:9084   */\n      and\n        /* \"#utility.yul\":9103:9121   */\n      dup1\n        /* \"#utility.yul\":9093:9174   */\n      tag_239\n      jumpi\n        /* \"#utility.yul\":9159:9163   */\n      0x7f\n        /* \"#utility.yul\":9151:9157   */\n      dup3\n        /* \"#utility.yul\":9147:9164   */\n      and\n        /* \"#utility.yul\":9137:9164   */\n      swap2\n      pop\n        /* \"#utility.yul\":9093:9174   */\n    tag_239:\n        /* \"#utility.yul\":9221:9223   */\n      0x20\n        /* \"#utility.yul\":9213:9219   */\n      dup3\n        /* \"#utility.yul\":9210:9224   */\n      lt\n        /* \"#utility.yul\":9190:9208   */\n      dup2\n        /* \"#utility.yul\":9187:9225   */\n      sub\n        /* \"#utility.yul\":9184:9268   */\n      tag_240\n      jumpi\n        /* \"#utility.yul\":9240:9258   */\n      tag_241\n      tag_117\n      jump\t// in\n    tag_241:\n        /* \"#utility.yul\":9184:9268   */\n    tag_240:\n        /* \"#utility.yul\":9005:9274   */\n      pop\n        /* \"#utility.yul\":8954:9274   */\n      swap2\n      swap1\n      pop\n      jump\t// out\n        /* \"#utility.yul\":9280:9513   */\n    tag_74:\n        /* \"#utility.yul\":9319:9322   */\n      0x00\n        /* \"#utility.yul\":9342:9366   */\n      tag_243\n        /* \"#utility.yul\":9360:9365   */\n      dup3\n        /* \"#utility.yul\":9342:9366   */\n      tag_87\n      jump\t// in\n    tag_243:\n        /* \"#utility.yul\":9333:9366   */\n      swap2\n      pop\n        /* \"#utility.yul\":9388:9454   */\n      0xffffffffffffffffffffffffffffffffffffffffffffffffffffffffffffffff\n        /* \"#utility.yul\":9381:9386   */\n      dup3\n        /* \"#utility.yul\":9378:9455   */\n      sub\n        /* \"#utility.yul\":9375:9478   */\n      tag_244\n      jumpi\n        /* \"#utility.yul\":9458:9476   */\n      tag_245\n      tag_116\n      jump\t// in\n    tag_245:\n        /* \"#utility.yul\":9375:9478   */\n    tag_244:\n        /* \"#utility.yul\":9505:9506   */\n      0x01\n        /* \"#utility.yul\":9498:9503   */\n      dup3\n        /* \"#utility.yul\":9494:9507   */\n      add\n        /* \"#utility.yul\":9487:9507   */\n      swap1\n      pop\n        /* \"#utility.yul\":9280:9513   */\n      swap2\n      swap1\n      pop\n      jump\t// out\n        /* \"#utility.yul\":9519:9660   */\n    tag_118:\n        /* \"#utility.yul\":9568:9572   */\n      0x00\n        /* \"#utility.yul\":9591:9594   */\n      dup2\n        /* \"#utility.yul\":9583:9594   */\n      swap1\n      pop\n        /* \"#utility.yul\":9614:9617   */\n      dup2\n        /* \"#utility.yul\":9611:9612   */\n      0x00\n        /* \"#utility.yul\":9604:9618   */\n      mstore\n        /* \"#utility.yul\":9648:9652   */\n      0x20\n        /* \"#utility.yul\":9645:9646   */\n      0x00\n        /* \"#utility.yul\":9635:9653   */\n      keccak256\n        /* \"#utility.yul\":9627:9653   */\n      swap1\n      pop\n        /* \"#utility.yul\":9519:9660   */\n      swap2\n      swap1\n      pop\n      jump\t// out\n        /* \"#utility.yul\":9666:9759   */\n    tag_119:\n        /* \"#utility.yul\":9703:9709   */\n      0x00\n        /* \"#utility.yul\":9750:9752   */\n      0x20\n        /* \"#utility.yul\":9745:9747   */\n      0x1f\n        /* \"#utility.yul\":9738:9743   */\n      dup4\n        /* \"#utility.yul\":9734:9748   */\n      add\n        /* \"#utility.yul\":9730:9753   */\n      div\n        /* \"#utility.yul\":9720:9753   */\n      swap1\n      pop\n        /* \"#utility.yul\":9666:9759   */\n      swap2\n      swap1\n      pop\n      jump\t// out\n        /* \"#utility.yul\":9765:9872   */\n    tag_120:\n        /* \"#utility.yul\":9809:9817   */\n      0x00\n        /* \"#utility.yul\":9859:9864   */\n      dup3\n        /* \"#utility.yul\":9853:9857   */\n      dup3\n        /* \"#utility.yul\":9849:9865   */\n      shl\n        /* \"#utility.yul\":9828:9865   */\n      swap1\n      pop\n        /* \"#utility.yul\":9765:9872   */\n      swap3\n      swap2\n      pop\n      pop\n      jump\t// out\n        /* \"#utility.yul\":9878:10271   */\n    tag_121:\n        /* \"#utility.yul\":9947:9953   */\n      0x00\n        /* \"#utility.yul\":9997:9998   */\n      0x08\n        /* \"#utility.yul\":9985:9995   */\n      dup4\n        /* \"#utility.yul\":9981:9999   */\n      mul\n        /* \"#utility.yul\":10020:10117   */\n      tag_250\n        /* \"#utility.yul\":10050:10116   */\n      0xffffffffffffffffffffffffffffffffffffffffffffffffffffffffffffffff\n        /* \"#utility.yul\":10039:10048   */\n      dup3\n        /* \"#utility.yul\":10020:10117   */\n      tag_120\n      jump\t// in\n    tag_250:\n        /* \"#utility.yul\":10138:10177   */\n      tag_251\n        /* \"#utility.yul\":10168:10176   */\n      dup7\n        /* \"#utility.yul\":10157:10166   */\n      dup4\n        /* \"#utility.yul\":10138:10177   */\n      tag_120\n      jump\t// in\n    tag_251:\n        /* \"#utility.yul\":10126:10177   */\n      swap6\n      pop\n        /* \"#utility.yul\":10210:10214   */\n      dup1\n        /* \"#utility.yul\":10206:10215   */\n      not\n        /* \"#utility.yul\":10199:10204   */\n      dup5\n        /* \"#utility.yul\":10195:10216   */\n      and\n        /* \"#utility.yul\":10186:10216   */\n      swap4\n      pop\n        /* \"#utility.yul\":10259:10263   */\n      dup1\n        /* \"#utility.yul\":10249:10257   */\n      dup7\n        /* \"#utility.yul\":10245:10264   */\n      and\n        /* \"#utility.yul\":10238:10243   */\n      dup5\n        /* \"#utility.yul\":10235:10265   */\n      or\n        /* \"#utility.yul\":10225:10265   */\n      swap3\n      pop\n        /* \"#utility.yul\":9954:10271   */\n      pop\n      pop\n        /* \"#utility.yul\":9878:10271   */\n      swap4\n      swap3\n      pop\n      pop\n      pop\n      jump\t// out\n        /* \"#utility.yul\":10277:10337   */\n    tag_122:\n        /* \"#utility.yul\":10305:10308   */\n      0x00\n        /* \"#utility.yul\":10326:10331   */\n      dup2\n        /* \"#utility.yul\":10319:10331   */\n      swap1\n      pop\n        /* \"#utility.yul\":10277:10337   */\n      swap2\n      swap1\n      pop\n      jump\t// out\n        /* \"#utility.yul\":10343:10485   */\n    tag_123:\n        /* \"#utility.yul\":10393:10402   */\n      0x00\n        /* \"#utility.yul\":10426:10479   */\n      tag_254\n        /* \"#utility.yul\":10444:10478   */\n      tag_255\n        /* \"#utility.yul\":10453:10477   */\n      tag_256\n        /* \"#utility.yul\":10471:10476   */\n      dup5\n        /* \"#utility.yul\":10453:10477   */\n      tag_87\n      jump\t// in\n    tag_256:\n        /* \"#utility.yul\":10444:10478   */\n      tag_122\n      jump\t// in\n    tag_255:\n        /* \"#utility.yul\":10426:10479   */\n      tag_87\n      jump\t// in\n    tag_254:\n        /* \"#utility.yul\":10413:10479   */\n      swap1\n      pop\n        /* \"#utility.yul\":10343:10485   */\n      swap2\n      swap1\n      pop\n      jump\t// out\n        /* \"#utility.yul\":10491:10566   */\n    tag_124:\n        /* \"#utility.yul\":10534:10537   */\n      0x00\n        /* \"#utility.yul\":10555:10560   */\n      dup2\n        /* \"#utility.yul\":10548:10560   */\n      swap1\n      pop\n        /* \"#utility.yul\":10491:10566   */\n      swap2\n      swap1\n      pop\n      jump\t// out\n        /* \"#utility.yul\":10572:10841   */\n    tag_125:\n        /* \"#utility.yul\":10682:10721   */\n      tag_259\n        /* \"#utility.yul\":10713:10720   */\n      dup4\n        /* \"#utility.yul\":10682:10721   */\n      tag_123\n      jump\t// in\n    tag_259:\n        /* \"#utility.yul\":10743:10834   */\n      tag_260\n        /* \"#utility.yul\":10792:10833   */\n      tag_261\n        /* \"#utility.yul\":10816:10832   */\n      dup3\n        /* \"#utility.yul\":10792:10833   */\n      tag_124\n      jump\t// in\n    tag_261:\n        /* \"#utility.yul\":10784:10790   */\n      dup5\n        /* \"#utility.yul\":10777:10781   */\n      dup5\n        /* \"#utility.yul\":10771:10782   */\n      sload\n        /* \"#utility.yul\":10743:10834   */\n      tag_121\n      jump\t// in\n    tag_260:\n        /* \"#utility.yul\":10737:10741   */\n      dup3\n        /* \"#utility.yul\":10730:10835   */\n      sstore\n        /* \"#utility.yul\":10648:10841   */\n      pop\n        /* \"#utility.yul\":10572:10841   */\n      pop\n      pop\n      pop\n      jump\t// out\n        /* \"#utility.yul\":10847:10920   */\n    tag_126:\n        /* \"#utility.yul\":10892:10895   */\n      0x00\n        /* \"#utility.yul\":10847:10920   */\n      swap1\n      jump\t// out\n        /* \"#utility.yul\":10926:11115   */\n    tag_127:\n        /* \"#utility.yul\":11003:11035   */\n      tag_264\n      tag_126\n      jump\t// in\n    tag_264:\n        /* \"#utility.yul\":11044:11109   */\n      tag_265\n        /* \"#utility.yul\":11102:11108   */\n      dup2\n        /* \"#utility.yul\":11094:11100   */\n      dup5\n        /* \"#utility.yul\":11088:11092   */\n      dup5\n        /* \"#utility.yul\":11044:11109   */\n      tag_125\n      jump\t// in\n    tag_265:\n        /* \"#utility.yul\":10979:11115   */\n      pop\n        /* \"#utility.yul\":10926:11115   */\n      pop\n      pop\n      jump\t// out\n        /* \"#utility.yul\":11121:11307   */\n    tag_128:\n        /* \"#utility.yul\":11181:11301   */\n    tag_267:\n        /* \"#utility.yul\":11198:11201   */\n      dup2\n        /* \"#utility.yul\":11191:11196   */\n      dup2\n        /* \"#utility.yul\":11188:11202   */\n      lt\n        /* \"#utility.yul\":11181:11301   */\n      iszero\n      tag_269\n      jumpi\n        /* \"#utility.yul\":11252:11291   */\n      tag_270\n        /* \"#utility.yul\":11289:11290   */\n      0x00\n        /* \"#utility.yul\":11282:11287   */\n      dup3\n        /* \"#utility.yul\":11252:11291   */\n      tag_127\n      jump\t// in\n    tag_270:\n        /* \"#utility.yul\":11225:11226   */\n      0x01\n        /* \"#utility.yul\":11218:11223   */\n      dup2\n        /* \"#utility.yul\":11214:11227   */\n      add\n        /* \"#utility.yul\":11205:11227   */\n      swap1\n      pop\n        /* \"#utility.yul\":11181:11301   */\n      jump(tag_267)\n    tag_269:\n        /* \"#utility.yul\":11121:11307   */\n      pop\n      pop\n      jump\t// out\n        /* \"#utility.yul\":11313:11856   */\n    tag_129:\n        /* \"#utility.yul\":11414:11416   */\n      0x1f\n        /* \"#utility.yul\":11409:11412   */\n      dup3\n        /* \"#utility.yul\":11406:11417   */\n      gt\n        /* \"#utility.yul\":11403:11849   */\n      iszero\n      tag_272\n      jumpi\n        /* \"#utility.yul\":11448:11486   */\n      tag_273\n        /* \"#utility.yul\":11480:11485   */\n      dup2\n        /* \"#utility.yul\":11448:11486   */\n      tag_118\n      jump\t// in\n    tag_273:\n        /* \"#utility.yul\":11532:11561   */\n      tag_274\n        /* \"#utility.yul\":11550:11560   */\n      dup5\n        /* \"#utility.yul\":11532:11561   */\n      tag_119\n      jump\t// in\n    tag_274:\n        /* \"#utility.yul\":11522:11530   */\n      dup2\n        /* \"#utility.yul\":11518:11562   */\n      add\n        /* \"#utility.yul\":11715:11717   */\n      0x20\n        /* \"#utility.yul\":11703:11713   */\n      dup6\n        /* \"#utility.yul\":11700:11718   */\n      lt\n        /* \"#utility.yul\":11697:11746   */\n      iszero\n      tag_275\n      jumpi\n        /* \"#utility.yul\":11736:11744   */\n      dup2\n        /* \"#utility.yul\":11721:11744   */\n      swap1\n      pop\n        /* \"#utility.yul\":11697:11746   */\n    tag_275:\n        /* \"#utility.yul\":11759:11839   */\n      tag_276\n        /* \"#utility.yul\":11815:11837   */\n      tag_277\n        /* \"#utility.yul\":11833:11836   */\n      dup6\n        /* \"#utility.yul\":11815:11837   */\n      tag_119\n      jump\t// in\n    tag_277:\n        /* \"#utility.yul\":11805:11813   */\n      dup4\n        /* \"#utility.yul\":11801:11838   */\n      add\n        /* \"#utility.yul\":11788:11799   */\n      dup3\n        /* \"#utility.yul\":11759:11839   */\n      tag_128\n      jump\t// in\n    tag_276:\n        /* \"#utility.yul\":11418:11849   */\n      pop\n      pop\n        /* \"#utility.yul\":11403:11849   */\n    tag_272:\n        /* \"#utility.yul\":11313:11856   */\n      pop\n      pop\n      pop\n      jump\t// out\n        /* \"#utility.yul\":11862:11979   */\n    tag_130:\n        /* \"#utility.yul\":11916:11924   */\n      0x00\n        /* \"#utility.yul\":11966:11971   */\n      dup3\n        /* \"#utility.yul\":11960:11964   */\n      dup3\n        /* \"#utility.yul\":11956:11972   */\n      shr\n        /* \"#utility.yul\":11935:11972   */\n      swap1\n      pop\n        /* \"#utility.yul\":11862:11979   */\n      swap3\n      swap2\n      pop\n      pop\n      jump\t// out\n        /* \"#utility.yul\":11985:12154   */\n    tag_131:\n        /* \"#utility.yul\":12029:12035   */\n      0x00\n        /* \"#utility.yul\":12062:12113   */\n      tag_280\n        /* \"#utility.yul\":12110:12111   */\n      0x00\n        /* \"#utility.yul\":12106:12112   */\n      not\n        /* \"#utility.yul\":12098:12103   */\n      dup5\n        /* \"#utility.yul\":12095:12096   */\n      0x08\n        /* \"#utility.yul\":12091:12104   */\n      mul\n        /* \"#utility.yul\":12062:12113   */\n      tag_130\n      jump\t// in\n    tag_280:\n        /* \"#utility.yul\":12058:12114   */\n      not\n        /* \"#utility.yul\":12143:12147   */\n      dup1\n        /* \"#utility.yul\":12137:12141   */\n      dup4\n        /* \"#utility.yul\":12133:12148   */\n      and\n        /* \"#utility.yul\":12123:12148   */\n      swap2\n      pop\n        /* \"#utility.yul\":12036:12154   */\n      pop\n        /* \"#utility.yul\":11985:12154   */\n      swap3\n      swap2\n      pop\n      pop\n      jump\t// out\n        /* \"#utility.yul\":12159:12454   */\n    tag_132:\n        /* \"#utility.yul\":12235:12239   */\n      0x00\n        /* \"#utility.yul\":12381:12410   */\n      tag_282\n        /* \"#utility.yul\":12406:12409   */\n      dup4\n        /* \"#utility.yul\":12400:12404   */\n      dup4\n        /* \"#utility.yul\":12381:12410   */\n      tag_131\n      jump\t// in\n    tag_282:\n        /* \"#utility.yul\":12373:12410   */\n      swap2\n      pop\n        /* \"#utility.yul\":12443:12446   */\n      dup3\n        /* \"#utility.yul\":12440:12441   */\n      0x02\n        /* \"#utility.yul\":12436:12447   */\n      mul\n        /* \"#utility.yul\":12430:12434   */\n      dup3\n        /* \"#utility.yul\":12427:12448   */\n      or\n        /* \"#utility.yul\":12419:12448   */\n      swap1\n      pop\n        /* \"#utility.yul\":12159:12454   */\n      swap3\n      swap2\n      pop\n      pop\n      jump\t// out\n        /* \"#utility.yul\":12459:13854   */\n    tag_76:\n        /* \"#utility.yul\":12576:12613   */\n      tag_284\n        /* \"#utility.yul\":12609:12612   */\n      dup3\n        /* \"#utility.yul\":12576:12613   */\n      tag_98\n      jump\t// in\n    tag_284:\n        /* \"#utility.yul\":12678:12696   */\n      0xffffffffffffffff\n        /* \"#utility.yul\":12670:12676   */\n      dup2\n        /* \"#utility.yul\":12667:12697   */\n      gt\n        /* \"#utility.yul\":12664:12720   */\n      iszero\n      tag_285\n      jumpi\n        /* \"#utility.yul\":12700:12718   */\n      tag_286\n      tag_106\n      jump\t// in\n    tag_286:\n        /* \"#utility.yul\":12664:12720   */\n    tag_285:\n        /* \"#utility.yul\":12744:12782   */\n      tag_287\n        /* \"#utility.yul\":12776:12780   */\n      dup3\n        /* \"#utility.yul\":12770:12781   */\n      sload\n        /* \"#utility.yul\":12744:12782   */\n      tag_65\n      jump\t// in\n    tag_287:\n        /* \"#utility.yul\":12829:12896   */\n      tag_288\n        /* \"#utility.yul\":12889:12895   */\n      dup3\n        /* \"#utility.yul\":12881:12887   */\n      dup3\n        /* \"#utility.yul\":12875:12879   */\n      dup6\n        /* \"#utility.yul\":12829:12896   */\n      tag_129\n      jump\t// in\n    tag_288:\n        /* \"#utility.yul\":12923:12924   */\n      0x00\n        /* \"#utility.yul\":12947:12951   */\n      0x20\n        /* \"#utility.yul\":12934:12951   */\n      swap1\n      pop\n        /* \"#utility.yul\":12979:12981   */\n      0x1f\n        /* \"#utility.yul\":12971:12977   */\n      dup4\n        /* \"#utility.yul\":12968:12982   */\n      gt\n        /* \"#utility.yul\":12996:12997   */\n      0x01\n        /* \"#utility.yul\":12991:13609   */\n      dup2\n      eq\n      tag_290\n      jumpi\n        /* \"#utility.yul\":13653:13654   */\n      0x00\n        /* \"#utility.yul\":13670:13676   */\n      dup5\n        /* \"#utility.yul\":13667:13744   */\n      iszero\n      tag_291\n      jumpi\n        /* \"#utility.yul\":13719:13728   */\n      dup3\n        /* \"#utility.yul\":13714:13717   */\n      dup8\n        /* \"#utility.yul\":13710:13729   */\n      add\n        /* \"#utility.yul\":13704:13730   */\n      mload\n        /* \"#utility.yul\":13695:13730   */\n      swap1\n      pop\n        /* \"#utility.yul\":13667:13744   */\n    tag_291:\n        /* \"#utility.yul\":13770:13837   */\n      tag_292\n        /* \"#utility.yul\":13830:13836   */\n      dup6\n        /* \"#utility.yul\":13823:13828   */\n      dup3\n        /* \"#utility.yul\":13770:13837   */\n      tag_132\n      jump\t// in\n    tag_292:\n        /* \"#utility.yul\":13764:13768   */\n      dup7\n        /* \"#utility.yul\":13757:13838   */\n      sstore\n        /* \"#utility.yul\":13626:13848   */\n      pop\n        /* \"#utility.yul\":12961:13848   */\n      jump(tag_289)\n        /* \"#utility.yul\":12991:13609   */\n    tag_290:\n        /* \"#utility.yul\":13043:13047   */\n      0x1f\n        /* \"#utility.yul\":13039:13048   */\n      not\n        /* \"#utility.yul\":13031:13037   */\n      dup5\n        /* \"#utility.yul\":13027:13049   */\n      and\n        /* \"#utility.yul\":13077:13114   */\n      tag_293\n        /* \"#utility.yul\":13109:13113   */\n      dup7\n        /* \"#utility.yul\":13077:13114   */\n      tag_118\n      jump\t// in\n    tag_293:\n        /* \"#utility.yul\":13136:13137   */\n      0x00\n        /* \"#utility.yul\":13150:13358   */\n    tag_294:\n        /* \"#utility.yul\":13164:13171   */\n      dup3\n        /* \"#utility.yul\":13161:13162   */\n      dup2\n        /* \"#utility.yul\":13158:13172   */\n      lt\n        /* \"#utility.yul\":13150:13358   */\n      iszero\n      tag_296\n      jumpi\n        /* \"#utility.yul\":13243:13252   */\n      dup5\n        /* \"#utility.yul\":13238:13241   */\n      dup10\n        /* \"#utility.yul\":13234:13253   */\n      add\n        /* \"#utility.yul\":13228:13254   */\n      mload\n        /* \"#utility.yul\":13220:13226   */\n      dup3\n        /* \"#utility.yul\":13213:13255   */\n      sstore\n        /* \"#utility.yul\":13294:13295   */\n      0x01\n        /* \"#utility.yul\":13286:13292   */\n      dup3\n        /* \"#utility.yul\":13282:13296   */\n      add\n        /* \"#utility.yul\":13272:13296   */\n      swap2\n      pop\n        /* \"#utility.yul\":13341:13343   */\n      0x20\n        /* \"#utility.yul\":13330:13339   */\n      dup6\n        /* \"#utility.yul\":13326:13344   */\n      add\n        /* \"#utility.yul\":13313:13344   */\n      swap5\n      pop\n        /* \"#utility.yul\":13187:13191   */\n      0x20\n        /* \"#utility.yul\":13184:13185   */\n      dup2\n        /* \"#utility.yul\":13180:13192   */\n      add\n        /* \"#utility.yul\":13175:13192   */\n      swap1\n      pop\n        /* \"#utility.yul\":13150:13358   */\n      jump(tag_294)\n    tag_296:\n        /* \"#utility.yul\":13386:13392   */\n      dup7\n        /* \"#utility.yul\":13377:13384   */\n      dup4\n        /* \"#utility.yul\":13374:13393   */\n      lt\n        /* \"#utility.yul\":13371:13550   */\n      iszero\n      tag_297\n      jumpi\n        /* \"#utility.yul\":13444:13453   */\n      dup5\n        /* \"#utility.yul\":13439:13442   */\n      dup10\n        /* \"#utility.yul\":13435:13454   */\n      add\n        /* \"#utility.yul\":13429:13455   */\n      mload\n        /* \"#utility.yul\":13487:13535   */\n      tag_298\n        /* \"#utility.yul\":13529:13533   */\n      0x1f\n        /* \"#utility.yul\":13521:13527   */\n      dup10\n        /* \"#utility.yul\":13517:13534   */\n      and\n        /* \"#utility.yul\":13506:13515   */\n      dup3\n        /* \"#utility.yul\":13487:13535   */\n      tag_131\n      jump\t// in\n    tag_298:\n        /* \"#utility.yul\":13479:13485   */\n      dup4\n        /* \"#utility.yul\":13472:13536   */\n      sstore\n        /* \"#utility.yul\":13394:13550   */\n      pop\n        /* \"#utility.yul\":13371:13550   */\n    tag_297:\n        /* \"#utility.yul\":13596:13597   */\n      0x01\n        /* \"#utility.yul\":13592:13593   */\n      0x02\n        /* \"#utility.yul\":13584:13590   */\n      dup9\n        /* \"#utility.yul\":13580:13594   */\n      mul\n        /* \"#utility.yul\":13576:13598   */\n      add\n        /* \"#utility.yul\":13570:13574   */\n      dup9\n        /* \"#utility.yul\":13563:13599   */\n      sstore\n        /* \"#utility.yul\":12998:13609   */\n      pop\n      pop\n      pop\n        /* \"#utility.yul\":12961:13848   */\n    tag_289:\n      pop\n        /* \"#utility.yul\":12551:13854   */\n      pop\n      pop\n      pop\n        /* \"#utility.yul\":12459:13854   */\n      pop\n      pop\n      jump\t// out\n\n    auxdata: 0xa2646970667358221220870eb5c8aa53400fd433e0cc8cebd9ee921ab88204917b553340e990806166d764736f6c63430008110033\n}\n","bytecode":{"linkReferences":{},"object":"60806040523480156200001157600080fd5b506040516200111b3803806200111b83398181016040528101906200003791906200012c565b80600360006101000a81548173ffffffffffffffffffffffffffffffffffffffff021916908373ffffffffffffffffffffffffffffffffffffffff16021790555081600181905550505062000173565b600080fd5b6000819050919050565b620000a1816200008c565b8114620000ad57600080fd5b50565b600081519050620000c18162000096565b92915050565b600073ffffffffffffffffffffffffffffffffffffffff82169050919050565b6000620000f482620000c7565b9050919050565b6200010681620000e7565b81146200011257600080fd5b50565b6000815190506200012681620000fb565b92915050565b6000806040838503121562000146576200014562000087565b5b60006200015685828601620000b0565b9250506020620001698582860162000115565b9150509250929050565b610f9880620001836000396000f3fe6080604052600436106100865760003560e01c806382fde0931161005957806382fde0931461015d5780638a9cfd5514610188578063937e09b1146101b1578063d7bb99ba146101dc578063d7d1bbdb146101e657610086565b8063034410061461008b5780630a144391146100b4578063481c6a75146100f157806381d12c581461011c575b600080fd5b34801561009757600080fd5b506100b260048036038101906100ad919061079f565b61020f565b005b3480156100c057600080fd5b506100db60048036038101906100d6919061082a565b610349565b6040516100e89190610872565b60405180910390f35b3480156100fd57600080fd5b50610106610369565b60405161011391906108ae565b60405180910390f35b34801561012857600080fd5b50610143600480360381019061013e919061079f565b61038f565b604051610154959493929190610968565b60405180910390f35b34801561016957600080fd5b5061017261047a565b60405161017f91906109c2565b60405180910390f35b34801561019457600080fd5b506101af60048036038101906101aa9190610b3e565b610480565b005b3480156101bd57600080fd5b506101c6610591565b6040516101d391906109c2565b60405180910390f35b6101e4610597565b005b3480156101f257600080fd5b5061020d6004803603810190610208919061079f565b610617565b005b600360009054906101000a900473ffffffffffffffffffffffffffffffffffffffff1673ffffffffffffffffffffffffffffffffffffffff163373ffffffffffffffffffffffffffffffffffffffff161461026957600080fd5b60006004600083815260200190815260200160002090506002805461028e9190610c0b565b81600301541161029d57600080fd5b8060020160149054906101000a900460ff16156102b957600080fd5b8060020160009054906101000a900473ffffffffffffffffffffffffffffffffffffffff1673ffffffffffffffffffffffffffffffffffffffff166108fc82600101549081150290604051600060405180830381858888f19350505050158015610327573d6000803e3d6000fd5b5060018160020160146101000a81548160ff0219169083151502179055505050565b60056020528060005260406000206000915054906101000a900460ff1681565b600360009054906101000a900473ffffffffffffffffffffffffffffffffffffffff1681565b60046020528060005260406000206000915090508060000180546103b290610c6b565b80601f01602080910402602001604051908101604052809291908181526020018280546103de90610c6b565b801561042b5780601f106104005761010080835404028352916020019161042b565b820191906000526020600020905b81548152906001019060200180831161040e57829003601f168201915b5050505050908060010154908060020160009054906101000a900473ffffffffffffffffffffffffffffffffffffffff16908060020160149054906101000a900460ff16908060030154905085565b60025481565b600360009054906101000a900473ffffffffffffffffffffffffffffffffffffffff1673ffffffffffffffffffffffffffffffffffffffff163373ffffffffffffffffffffffffffffffffffffffff16146104da57600080fd5b6000600460008060008154809291906104f290610c9c565b9190505581526020019081526020016000209050838160000190816105179190610e90565b50828160010181905550818160020160006101000a81548173ffffffffffffffffffffffffffffffffffffffff021916908373ffffffffffffffffffffffffffffffffffffffff16021790555060008160020160146101000a81548160ff0219169083151502179055506000816003018190555050505050565b60015481565b60015434116105a557600080fd5b6001600560003373ffffffffffffffffffffffffffffffffffffffff1673ffffffffffffffffffffffffffffffffffffffff16815260200190815260200160002060006101000a81548160ff0219169083151502179055506002600081548092919061061090610c9c565b9190505550565b6000600460008381526020019081526020016000209050600560003373ffffffffffffffffffffffffffffffffffffffff1673ffffffffffffffffffffffffffffffffffffffff16815260200190815260200160002060009054906101000a900460ff1661068457600080fd5b8060040160003373ffffffffffffffffffffffffffffffffffffffff1673ffffffffffffffffffffffffffffffffffffffff16815260200190815260200160002060009054906101000a900460ff16156106dd57600080fd5b60018160040160003373ffffffffffffffffffffffffffffffffffffffff1673ffffffffffffffffffffffffffffffffffffffff16815260200190815260200160002060006101000a81548160ff02191690831515021790555080600301600081548092919061074c90610c9c565b91905055505050565b6000604051905090565b600080fd5b600080fd5b6000819050919050565b61077c81610769565b811461078757600080fd5b50565b60008135905061079981610773565b92915050565b6000602082840312156107b5576107b461075f565b5b60006107c38482850161078a565b91505092915050565b600073ffffffffffffffffffffffffffffffffffffffff82169050919050565b60006107f7826107cc565b9050919050565b610807816107ec565b811461081257600080fd5b50565b600081359050610824816107fe565b92915050565b6000602082840312156108405761083f61075f565b5b600061084e84828501610815565b91505092915050565b60008115159050919050565b61086c81610857565b82525050565b60006020820190506108876000830184610863565b92915050565b6000610898826107cc565b9050919050565b6108a88161088d565b82525050565b60006020820190506108c3600083018461089f565b92915050565b600081519050919050565b600082825260208201905092915050565b60005b838110156109035780820151818401526020810190506108e8565b60008484015250505050565b6000601f19601f8301169050919050565b600061092b826108c9565b61093581856108d4565b93506109458185602086016108e5565b61094e8161090f565b840191505092915050565b61096281610769565b82525050565b600060a08201905081810360008301526109828188610920565b90506109916020830187610959565b61099e604083018661089f565b6109ab6060830185610863565b6109b86080830184610959565b9695505050505050565b60006020820190506109d76000830184610959565b92915050565b600080fd5b600080fd5b7f4e487b7100000000000000000000000000000000000000000000000000000000600052604160045260246000fd5b610a1f8261090f565b810181811067ffffffffffffffff82111715610a3e57610a3d6109e7565b5b80604052505050565b6000610a51610755565b9050610a5d8282610a16565b919050565b600067ffffffffffffffff821115610a7d57610a7c6109e7565b5b610a868261090f565b9050602081019050919050565b82818337600083830152505050565b6000610ab5610ab084610a62565b610a47565b905082815260208101848484011115610ad157610ad06109e2565b5b610adc848285610a93565b509392505050565b600082601f830112610af957610af86109dd565b5b8135610b09848260208601610aa2565b91505092915050565b610b1b8161088d565b8114610b2657600080fd5b50565b600081359050610b3881610b12565b92915050565b600080600060608486031215610b5757610b5661075f565b5b600084013567ffffffffffffffff811115610b7557610b74610764565b5b610b8186828701610ae4565b9350506020610b928682870161078a565b9250506040610ba386828701610b29565b9150509250925092565b7f4e487b7100000000000000000000000000000000000000000000000000000000600052601260045260246000fd5b7f4e487b7100000000000000000000000000000000000000000000000000000000600052601160045260246000fd5b6000610c1682610769565b9150610c2183610769565b925082610c3157610c30610bad565b5b828204905092915050565b7f4e487b7100000000000000000000000000000000000000000000000000000000600052602260045260246000fd5b60006002820490506001821680610c8357607f821691505b602082108103610c9657610c95610c3c565b5b50919050565b6000610ca782610769565b91507fffffffffffffffffffffffffffffffffffffffffffffffffffffffffffffffff8203610cd957610cd8610bdc565b5b600182019050919050565b60008190508160005260206000209050919050565b60006020601f8301049050919050565b600082821b905092915050565b600060088302610d467fffffffffffffffffffffffffffffffffffffffffffffffffffffffffffffffff82610d09565b610d508683610d09565b95508019841693508086168417925050509392505050565b6000819050919050565b6000610d8d610d88610d8384610769565b610d68565b610769565b9050919050565b6000819050919050565b610da783610d72565b610dbb610db382610d94565b848454610d16565b825550505050565b600090565b610dd0610dc3565b610ddb818484610d9e565b505050565b5b81811015610dff57610df4600082610dc8565b600181019050610de1565b5050565b601f821115610e4457610e1581610ce4565b610e1e84610cf9565b81016020851015610e2d578190505b610e41610e3985610cf9565b830182610de0565b50505b505050565b600082821c905092915050565b6000610e6760001984600802610e49565b1980831691505092915050565b6000610e808383610e56565b9150826002028217905092915050565b610e99826108c9565b67ffffffffffffffff811115610eb257610eb16109e7565b5b610ebc8254610c6b565b610ec7828285610e03565b600060209050601f831160018114610efa5760008415610ee8578287015190505b610ef28582610e74565b865550610f5a565b601f198416610f0886610ce4565b60005b82811015610f3057848901518255600182019150602085019450602081019050610f0b565b86831015610f4d5784890151610f49601f891682610e56565b8355505b6001600288020188555050505b50505050505056fea2646970667358221220870eb5c8aa53400fd433e0cc8cebd9ee921ab88204917b553340e990806166d764736f6c63430008110033","opcodes":"PUSH1 0x80 PUSH1 0x40 MSTORE CALLVALUE DUP1 ISZERO PUSH3 0x11 JUMPI PUSH1 0x0 DUP1 REVERT JUMPDEST POP PUSH1 0x40 MLOAD PUSH3 0x111B CODESIZE SUB DUP1 PUSH3 0x111B DUP4 CODECOPY DUP2 DUP2 ADD PUSH1 0x40 MSTORE DUP2 ADD SWAP1 PUSH3 0x37 SWAP2 SWAP1 PUSH3 0x12C JUMP JUMPDEST DUP1 PUSH1 0x3 PUSH1 0x0 PUSH2 0x100 EXP DUP2 SLOAD DUP2 PUSH20 0xFFFFFFFFFFFFFFFFFFFFFFFFFFFFFFFFFFFFFFFF MUL NOT AND SWAP1 DUP4 PUSH20 0xFFFFFFFFFFFFFFFFFFFFFFFFFFFFFFFFFFFFFFFF AND MUL OR SWAP1 SSTORE POP DUP2 PUSH1 0x1 DUP2 SWAP1 SSTORE POP POP POP PUSH3 0x173 JUMP JUMPDEST PUSH1 0x0 DUP1 REVERT JUMPDEST PUSH1 0x0 DUP2 SWAP1 POP SWAP2 SWAP1 POP JUMP JUMPDEST PUSH3 0xA1 DUP2 PUSH3 0x8C JUMP JUMPDEST DUP2 EQ PUSH3 0xAD JUMPI PUSH1 0x0 DUP1 REVERT JUMPDEST POP JUMP JUMPDEST PUSH1 0x0 DUP2 MLOAD SWAP1 POP PUSH3 0xC1 DUP2 PUSH3 0x96 JUMP JUMPDEST SWAP3 SWAP2 POP POP JUMP JUMPDEST PUSH1 0x0 PUSH20 0xFFFFFFFFFFFFFFFFFFFFFFFFFFFFFFFFFFFFFFFF DUP3 AND SWAP1 POP SWAP2 SWAP1 POP JUMP JUMPDEST PUSH1 0x0 PUSH3 0xF4 DUP3 PUSH3 0xC7 JUMP JUMPDEST SWAP1 POP SWAP2 SWAP1 POP JUMP JUMPDEST PUSH3 0x106 DUP2 PUSH3 0xE7 JUMP JUMPDEST DUP2 EQ PUSH3 0x112 JUMPI PUSH1 0x0 DUP1 REVERT JUMPDEST POP JUMP JUMPDEST PUSH1 0x0 DUP2 MLOAD SWAP1 POP PUSH3 0x126 DUP2 PUSH3 0xFB JUMP JUMPDEST SWAP3 SWAP2 POP POP JUMP JUMPDEST PUSH1 0x0 DUP1 PUSH1 0x40 DUP4 DUP6 SUB SLT ISZERO PUSH3 0x146 JUMPI PUSH3 0x145 PUSH3 0x87 JUMP JUMPDEST JUMPDEST PUSH1 0x0 PUSH3 0x156 DUP6 DUP3 DUP7 ADD PUSH3 0xB0 JUMP JUMPDEST SWAP3 POP POP PUSH1 0x20 PUSH3 0x169 DUP6 DUP3 DUP7 ADD PUSH3 0x115 JUMP JUMPDEST SWAP2 POP POP SWAP3 POP SWAP3 SWAP1 POP JUMP JUMPDEST PUSH2 0xF98 DUP1 PUSH3 0x183 PUSH1 0x0 CODECOPY PUSH1 0x0 RETURN INVALID PUSH1 0x80 PUSH1 0x40 MSTORE PUSH1 0x4 CALLDATASIZE LT PUSH2 0x86 JUMPI PUSH1 0x0 CALLDATALOAD PUSH1 0xE0 SHR DUP1 PUSH4 0x82FDE093 GT PUSH2 0x59 JUMPI DUP1 PUSH4 0x82FDE093 EQ PUSH2 0x15D JUMPI DUP1 PUSH4 0x8A9CFD55 EQ PUSH2 0x188 JUMPI DUP1 PUSH4 0x937E09B1 EQ PUSH2 0x1B1 JUMPI DUP1 PUSH4 0xD7BB99BA EQ PUSH2 0x1DC JUMPI DUP1 PUSH4 0xD7D1BBDB EQ PUSH2 0x1E6 JUMPI PUSH2 0x86 JUMP JUMPDEST DUP1 PUSH4 0x3441006 EQ PUSH2 0x8B JUMPI DUP1 PUSH4 0xA144391 EQ PUSH2 0xB4 JUMPI DUP1 PUSH4 0x481C6A75 EQ PUSH2 0xF1 JUMPI DUP1 PUSH4 0x81D12C58 EQ PUSH2 0x11C JUMPI JUMPDEST PUSH1 0x0 DUP1 REVERT JUMPDEST CALLVALUE DUP1 ISZERO PUSH2 0x97 JUMPI PUSH1 0x0 DUP1 REVERT JUMPDEST POP PUSH2 0xB2 PUSH1 0x4 DUP1 CALLDATASIZE SUB DUP2 ADD SWAP1 PUSH2 0xAD SWAP2 SWAP1 PUSH2 0x79F JUMP JUMPDEST PUSH2 0x20F JUMP JUMPDEST STOP JUMPDEST CALLVALUE DUP1 ISZERO PUSH2 0xC0 JUMPI PUSH1 0x0 DUP1 REVERT JUMPDEST POP PUSH2 0xDB PUSH1 0x4 DUP1 CALLDATASIZE SUB DUP2 ADD SWAP1 PUSH2 0xD6 SWAP2 SWAP1 PUSH2 0x82A JUMP JUMPDEST PUSH2 0x349 JUMP JUMPDEST PUSH1 0x40 MLOAD PUSH2 0xE8 SWAP2 SWAP1 PUSH2 0x872 JUMP JUMPDEST PUSH1 0x40 MLOAD DUP1 SWAP2 SUB SWAP1 RETURN JUMPDEST CALLVALUE DUP1 ISZERO PUSH2 0xFD JUMPI PUSH1 0x0 DUP1 REVERT JUMPDEST POP PUSH2 0x106 PUSH2 0x369 JUMP JUMPDEST PUSH1 0x40 MLOAD PUSH2 0x113 SWAP2 SWAP1 PUSH2 0x8AE JUMP JUMPDEST PUSH1 0x40 MLOAD DUP1 SWAP2 SUB SWAP1 RETURN JUMPDEST CALLVALUE DUP1 ISZERO PUSH2 0x128 JUMPI PUSH1 0x0 DUP1 REVERT JUMPDEST POP PUSH2 0x143 PUSH1 0x4 DUP1 CALLDATASIZE SUB DUP2 ADD SWAP1 PUSH2 0x13E SWAP2 SWAP1 PUSH2 0x79F JUMP JUMPDEST PUSH2 0x38F JUMP JUMPDEST PUSH1 0x40 MLOAD PUSH2 0x154 SWAP6 SWAP5 SWAP4 SWAP3 SWAP2 SWAP1 PUSH2 0x968 JUMP JUMPDEST PUSH1 0x40 MLOAD DUP1 SWAP2 SUB SWAP1 RETURN JUMPDEST CALLVALUE DUP1 ISZERO PUSH2 0x169 JUMPI PUSH1 0x0 DUP1 REVERT JUMPDEST POP PUSH2 0x172 PUSH2 0x47A JUMP JUMPDEST PUSH1 0x40 MLOAD PUSH2 0x17F SWAP2 SWAP1 PUSH2 0x9C2 JUMP JUMPDEST PUSH1 0x40 MLOAD DUP1 SWAP2 SUB SWAP1 RETURN JUMPDEST CALLVALUE DUP1 ISZERO PUSH2 0x194 JUMPI PUSH1 0x0 DUP1 REVERT JUMPDEST POP PUSH2 0x1AF PUSH1 0x4 DUP1 CALLDATASIZE SUB DUP2 ADD SWAP1 PUSH2 0x1AA SWAP2 SWAP1 PUSH2 0xB3E JUMP JUMPDEST PUSH2 0x480 JUMP JUMPDEST STOP JUMPDEST CALLVALUE DUP1 ISZERO PUSH2 0x1BD JUMPI PUSH1 0x0 DUP1 REVERT JUMPDEST POP PUSH2 0x1C6 PUSH2 0x591 JUMP JUMPDEST PUSH1 0x40 MLOAD PUSH2 0x1D3 SWAP2 SWAP1 PUSH2 0x9C2 JUMP JUMPDEST PUSH1 0x40 MLOAD DUP1 SWAP2 SUB SWAP1 RETURN JUMPDEST PUSH2 0x1E4 PUSH2 0x597 JUMP JUMPDEST STOP JUMPDEST CALLVALUE DUP1 ISZERO PUSH2 0x1F2 JUMPI PUSH1 0x0 DUP1 REVERT JUMPDEST POP PUSH2 0x20D PUSH1 0x4 DUP1 CALLDATASIZE SUB DUP2 ADD SWAP1 PUSH2 0x208 SWAP2 SWAP1 PUSH2 0x79F JUMP JUMPDEST PUSH2 0x617 JUMP JUMPDEST STOP JUMPDEST PUSH1 0x3 PUSH1 0x0 SWAP1 SLOAD SWAP1 PUSH2 0x100 EXP SWAP1 DIV PUSH20 0xFFFFFFFFFFFFFFFFFFFFFFFFFFFFFFFFFFFFFFFF AND PUSH20 0xFFFFFFFFFFFFFFFFFFFFFFFFFFFFFFFFFFFFFFFF AND CALLER PUSH20 0xFFFFFFFFFFFFFFFFFFFFFFFFFFFFFFFFFFFFFFFF AND EQ PUSH2 0x269 JUMPI PUSH1 0x0 DUP1 REVERT JUMPDEST PUSH1 0x0 PUSH1 0x4 PUSH1 0x0 DUP4 DUP2 MSTORE PUSH1 0x20 ADD SWAP1 DUP2 MSTORE PUSH1 0x20 ADD PUSH1 0x0 KECCAK256 SWAP1 POP PUSH1 0x2 DUP1 SLOAD PUSH2 0x28E SWAP2 SWAP1 PUSH2 0xC0B JUMP JUMPDEST DUP2 PUSH1 0x3 ADD SLOAD GT PUSH2 0x29D JUMPI PUSH1 0x0 DUP1 REVERT JUMPDEST DUP1 PUSH1 0x2 ADD PUSH1 0x14 SWAP1 SLOAD SWAP1 PUSH2 0x100 EXP SWAP1 DIV PUSH1 0xFF AND ISZERO PUSH2 0x2B9 JUMPI PUSH1 0x0 DUP1 REVERT JUMPDEST DUP1 PUSH1 0x2 ADD PUSH1 0x0 SWAP1 SLOAD SWAP1 PUSH2 0x100 EXP SWAP1 DIV PUSH20 0xFFFFFFFFFFFFFFFFFFFFFFFFFFFFFFFFFFFFFFFF AND PUSH20 0xFFFFFFFFFFFFFFFFFFFFFFFFFFFFFFFFFFFFFFFF AND PUSH2 0x8FC DUP3 PUSH1 0x1 ADD SLOAD SWAP1 DUP2 ISZERO MUL SWAP1 PUSH1 0x40 MLOAD PUSH1 0x0 PUSH1 0x40 MLOAD DUP1 DUP4 SUB DUP2 DUP6 DUP9 DUP9 CALL SWAP4 POP POP POP POP ISZERO DUP1 ISZERO PUSH2 0x327 JUMPI RETURNDATASIZE PUSH1 0x0 DUP1 RETURNDATACOPY RETURNDATASIZE PUSH1 0x0 REVERT JUMPDEST POP PUSH1 0x1 DUP2 PUSH1 0x2 ADD PUSH1 0x14 PUSH2 0x100 EXP DUP2 SLOAD DUP2 PUSH1 0xFF MUL NOT AND SWAP1 DUP4 ISZERO ISZERO MUL OR SWAP1 SSTORE POP POP POP JUMP JUMPDEST PUSH1 0x5 PUSH1 0x20 MSTORE DUP1 PUSH1 0x0 MSTORE PUSH1 0x40 PUSH1 0x0 KECCAK256 PUSH1 0x0 SWAP2 POP SLOAD SWAP1 PUSH2 0x100 EXP SWAP1 DIV PUSH1 0xFF AND DUP2 JUMP JUMPDEST PUSH1 0x3 PUSH1 0x0 SWAP1 SLOAD SWAP1 PUSH2 0x100 EXP SWAP1 DIV PUSH20 0xFFFFFFFFFFFFFFFFFFFFFFFFFFFFFFFFFFFFFFFF AND DUP2 JUMP JUMPDEST PUSH1 0x4 PUSH1 0x20 MSTORE DUP1 PUSH1 0x0 MSTORE PUSH1 0x40 PUSH1 0x0 KECCAK256 PUSH1 0x0 SWAP2 POP SWAP1 POP DUP1 PUSH1 0x0 ADD DUP1 SLOAD PUSH2 0x3B2 SWAP1 PUSH2 0xC6B JUMP JUMPDEST DUP1 PUSH1 0x1F ADD PUSH1 0x20 DUP1 SWAP2 DIV MUL PUSH1 0x20 ADD PUSH1 0x40 MLOAD SWAP1 DUP2 ADD PUSH1 0x40 MSTORE DUP1 SWAP3 SWAP2 SWAP1 DUP2 DUP2 MSTORE PUSH1 0x20 ADD DUP3 DUP1 SLOAD PUSH2 0x3DE SWAP1 PUSH2 0xC6B JUMP JUMPDEST DUP1 ISZERO PUSH2 0x42B JUMPI DUP1 PUSH1 0x1F LT PUSH2 0x400 JUMPI PUSH2 0x100 DUP1 DUP4 SLOAD DIV MUL DUP4 MSTORE SWAP2 PUSH1 0x20 ADD SWAP2 PUSH2 0x42B JUMP JUMPDEST DUP3 ADD SWAP2 SWAP1 PUSH1 0x0 MSTORE PUSH1 0x20 PUSH1 0x0 KECCAK256 SWAP1 JUMPDEST DUP2 SLOAD DUP2 MSTORE SWAP1 PUSH1 0x1 ADD SWAP1 PUSH1 0x20 ADD DUP1 DUP4 GT PUSH2 0x40E JUMPI DUP3 SWAP1 SUB PUSH1 0x1F AND DUP3 ADD SWAP2 JUMPDEST POP POP POP POP POP SWAP1 DUP1 PUSH1 0x1 ADD SLOAD SWAP1 DUP1 PUSH1 0x2 ADD PUSH1 0x0 SWAP1 SLOAD SWAP1 PUSH2 0x100 EXP SWAP1 DIV PUSH20 0xFFFFFFFFFFFFFFFFFFFFFFFFFFFFFFFFFFFFFFFF AND SWAP1 DUP1 PUSH1 0x2 ADD PUSH1 0x14 SWAP1 SLOAD SWAP1 PUSH2 0x100 EXP SWAP1 DIV PUSH1 0xFF AND SWAP1 DUP1 PUSH1 0x3 ADD SLOAD SWAP1 POP DUP6 JUMP JUMPDEST PUSH1 0x2 SLOAD DUP2 JUMP JUMPDEST PUSH1 0x3 PUSH1 0x0 SWAP1 SLOAD SWAP1 PUSH2 0x100 EXP SWAP1 DIV PUSH20 0xFFFFFFFFFFFFFFFFFFFFFFFFFFFFFFFFFFFFFFFF AND PUSH20 0xFFFFFFFFFFFFFFFFFFFFFFFFFFFFFFFFFFFFFFFF AND CALLER PUSH20 0xFFFFFFFFFFFFFFFFFFFFFFFFFFFFFFFFFFFFFFFF AND EQ PUSH2 0x4DA JUMPI PUSH1 0x0 DUP1 REVERT JUMPDEST PUSH1 0x0 PUSH1 0x4 PUSH1 0x0 DUP1 PUSH1 0x0 DUP2 SLOAD DUP1 SWAP3 SWAP2 SWAP1 PUSH2 0x4F2 SWAP1 PUSH2 0xC9C JUMP JUMPDEST SWAP2 SWAP1 POP SSTORE DUP2 MSTORE PUSH1 0x20 ADD SWAP1 DUP2 MSTORE PUSH1 0x20 ADD PUSH1 0x0 KECCAK256 SWAP1 POP DUP4 DUP2 PUSH1 0x0 ADD SWAP1 DUP2 PUSH2 0x517 SWAP2 SWAP1 PUSH2 0xE90 JUMP JUMPDEST POP DUP3 DUP2 PUSH1 0x1 ADD DUP2 SWAP1 SSTORE POP DUP2 DUP2 PUSH1 0x2 ADD PUSH1 0x0 PUSH2 0x100 EXP DUP2 SLOAD DUP2 PUSH20 0xFFFFFFFFFFFFFFFFFFFFFFFFFFFFFFFFFFFFFFFF MUL NOT AND SWAP1 DUP4 PUSH20 0xFFFFFFFFFFFFFFFFFFFFFFFFFFFFFFFFFFFFFFFF AND MUL OR SWAP1 SSTORE POP PUSH1 0x0 DUP2 PUSH1 0x2 ADD PUSH1 0x14 PUSH2 0x100 EXP DUP2 SLOAD DUP2 PUSH1 0xFF MUL NOT AND SWAP1 DUP4 ISZERO ISZERO MUL OR SWAP1 SSTORE POP PUSH1 0x0 DUP2 PUSH1 0x3 ADD DUP2 SWAP1 SSTORE POP POP POP POP POP JUMP JUMPDEST PUSH1 0x1 SLOAD DUP2 JUMP JUMPDEST PUSH1 0x1 SLOAD CALLVALUE GT PUSH2 0x5A5 JUMPI PUSH1 0x0 DUP1 REVERT JUMPDEST PUSH1 0x1 PUSH1 0x5 PUSH1 0x0 CALLER PUSH20 0xFFFFFFFFFFFFFFFFFFFFFFFFFFFFFFFFFFFFFFFF AND PUSH20 0xFFFFFFFFFFFFFFFFFFFFFFFFFFFFFFFFFFFFFFFF AND DUP2 MSTORE PUSH1 0x20 ADD SWAP1 DUP2 MSTORE PUSH1 0x20 ADD PUSH1 0x0 KECCAK256 PUSH1 0x0 PUSH2 0x100 EXP DUP2 SLOAD DUP2 PUSH1 0xFF MUL NOT AND SWAP1 DUP4 ISZERO ISZERO MUL OR SWAP1 SSTORE POP PUSH1 0x2 PUSH1 0x0 DUP2 SLOAD DUP1 SWAP3 SWAP2 SWAP1 PUSH2 0x610 SWAP1 PUSH2 0xC9C JUMP JUMPDEST SWAP2 SWAP1 POP SSTORE POP JUMP JUMPDEST PUSH1 0x0 PUSH1 0x4 PUSH1 0x0 DUP4 DUP2 MSTORE PUSH1 0x20 ADD SWAP1 DUP2 MSTORE PUSH1 0x20 ADD PUSH1 0x0 KECCAK256 SWAP1 POP PUSH1 0x5 PUSH1 0x0 CALLER PUSH20 0xFFFFFFFFFFFFFFFFFFFFFFFFFFFFFFFFFFFFFFFF AND PUSH20 0xFFFFFFFFFFFFFFFFFFFFFFFFFFFFFFFFFFFFFFFF AND DUP2 MSTORE PUSH1 0x20 ADD SWAP1 DUP2 MSTORE PUSH1 0x20 ADD PUSH1 0x0 KECCAK256 PUSH1 0x0 SWAP1 SLOAD SWAP1 PUSH2 0x100 EXP SWAP1 DIV PUSH1 0xFF AND PUSH2 0x684 JUMPI PUSH1 0x0 DUP1 REVERT JUMPDEST DUP1 PUSH1 0x4 ADD PUSH1 0x0 CALLER PUSH20 0xFFFFFFFFFFFFFFFFFFFFFFFFFFFFFFFFFFFFFFFF AND PUSH20 0xFFFFFFFFFFFFFFFFFFFFFFFFFFFFFFFFFFFFFFFF AND DUP2 MSTORE PUSH1 0x20 ADD SWAP1 DUP2 MSTORE PUSH1 0x20 ADD PUSH1 0x0 KECCAK256 PUSH1 0x0 SWAP1 SLOAD SWAP1 PUSH2 0x100 EXP SWAP1 DIV PUSH1 0xFF AND ISZERO PUSH2 0x6DD JUMPI PUSH1 0x0 DUP1 REVERT JUMPDEST PUSH1 0x1 DUP2 PUSH1 0x4 ADD PUSH1 0x0 CALLER PUSH20 0xFFFFFFFFFFFFFFFFFFFFFFFFFFFFFFFFFFFFFFFF AND PUSH20 0xFFFFFFFFFFFFFFFFFFFFFFFFFFFFFFFFFFFFFFFF AND DUP2 MSTORE PUSH1 0x20 ADD SWAP1 DUP2 MSTORE PUSH1 0x20 ADD PUSH1 0x0 KECCAK256 PUSH1 0x0 PUSH2 0x100 EXP DUP2 SLOAD DUP2 PUSH1 0xFF MUL NOT AND SWAP1 DUP4 ISZERO ISZERO MUL OR SWAP1 SSTORE POP DUP1 PUSH1 0x3 ADD PUSH1 0x0 DUP2 SLOAD DUP1 SWAP3 SWAP2 SWAP1 PUSH2 0x74C SWAP1 PUSH2 0xC9C JUMP JUMPDEST SWAP2 SWAP1 POP SSTORE POP POP POP JUMP JUMPDEST PUSH1 0x0 PUSH1 0x40 MLOAD SWAP1 POP SWAP1 JUMP JUMPDEST PUSH1 0x0 DUP1 REVERT JUMPDEST PUSH1 0x0 DUP1 REVERT JUMPDEST PUSH1 0x0 DUP2 SWAP1 POP SWAP2 SWAP1 POP JUMP JUMPDEST PUSH2 0x77C DUP2 PUSH2 0x769 JUMP JUMPDEST DUP2 EQ PUSH2 0x787 JUMPI PUSH1 0x0 DUP1 REVERT JUMPDEST POP JUMP JUMPDEST PUSH1 0x0 DUP2 CALLDATALOAD SWAP1 POP PUSH2 0x799 DUP2 PUSH2 0x773 JUMP JUMPDEST SWAP3 SWAP2 POP POP JUMP JUMPDEST PUSH1 0x0 PUSH1 0x20 DUP3 DUP5 SUB SLT ISZERO PUSH2 0x7B5 JUMPI PUSH2 0x7B4 PUSH2 0x75F JUMP JUMPDEST JUMPDEST PUSH1 0x0 PUSH2 0x7C3 DUP5 DUP3 DUP6 ADD PUSH2 0x78A JUMP JUMPDEST SWAP2 POP POP SWAP3 SWAP2 POP POP JUMP JUMPDEST PUSH1 0x0 PUSH20 0xFFFFFFFFFFFFFFFFFFFFFFFFFFFFFFFFFFFFFFFF DUP3 AND SWAP1 POP SWAP2 SWAP1 POP JUMP JUMPDEST PUSH1 0x0 PUSH2 0x7F7 DUP3 PUSH2 0x7CC JUMP JUMPDEST SWAP1 POP SWAP2 SWAP1 POP JUMP JUMPDEST PUSH2 0x807 DUP2 PUSH2 0x7EC JUMP JUMPDEST DUP2 EQ PUSH2 0x812 JUMPI PUSH1 0x0 DUP1 REVERT JUMPDEST POP JUMP JUMPDEST PUSH1 0x0 DUP2 CALLDATALOAD SWAP1 POP PUSH2 0x824 DUP2 PUSH2 0x7FE JUMP JUMPDEST SWAP3 SWAP2 POP POP JUMP JUMPDEST PUSH1 0x0 PUSH1 0x20 DUP3 DUP5 SUB SLT ISZERO PUSH2 0x840 JUMPI PUSH2 0x83F PUSH2 0x75F JUMP JUMPDEST JUMPDEST PUSH1 0x0 PUSH2 0x84E DUP5 DUP3 DUP6 ADD PUSH2 0x815 JUMP JUMPDEST SWAP2 POP POP SWAP3 SWAP2 POP POP JUMP JUMPDEST PUSH1 0x0 DUP2 ISZERO ISZERO SWAP1 POP SWAP2 SWAP1 POP JUMP JUMPDEST PUSH2 0x86C DUP2 PUSH2 0x857 JUMP JUMPDEST DUP3 MSTORE POP POP JUMP JUMPDEST PUSH1 0x0 PUSH1 0x20 DUP3 ADD SWAP1 POP PUSH2 0x887 PUSH1 0x0 DUP4 ADD DUP5 PUSH2 0x863 JUMP JUMPDEST SWAP3 SWAP2 POP POP JUMP JUMPDEST PUSH1 0x0 PUSH2 0x898 DUP3 PUSH2 0x7CC JUMP JUMPDEST SWAP1 POP SWAP2 SWAP1 POP JUMP JUMPDEST PUSH2 0x8A8 DUP2 PUSH2 0x88D JUMP JUMPDEST DUP3 MSTORE POP POP JUMP JUMPDEST PUSH1 0x0 PUSH1 0x20 DUP3 ADD SWAP1 POP PUSH2 0x8C3 PUSH1 0x0 DUP4 ADD DUP5 PUSH2 0x89F JUMP JUMPDEST SWAP3 SWAP2 POP POP JUMP JUMPDEST PUSH1 0x0 DUP2 MLOAD SWAP1 POP SWAP2 SWAP1 POP JUMP JUMPDEST PUSH1 0x0 DUP3 DUP3 MSTORE PUSH1 0x20 DUP3 ADD SWAP1 POP SWAP3 SWAP2 POP POP JUMP JUMPDEST PUSH1 0x0 JUMPDEST DUP4 DUP2 LT ISZERO PUSH2 0x903 JUMPI DUP1 DUP3 ADD MLOAD DUP2 DUP5 ADD MSTORE PUSH1 0x20 DUP2 ADD SWAP1 POP PUSH2 0x8E8 JUMP JUMPDEST PUSH1 0x0 DUP5 DUP5 ADD MSTORE POP POP POP POP JUMP JUMPDEST PUSH1 0x0 PUSH1 0x1F NOT PUSH1 0x1F DUP4 ADD AND SWAP1 POP SWAP2 SWAP1 POP JUMP JUMPDEST PUSH1 0x0 PUSH2 0x92B DUP3 PUSH2 0x8C9 JUMP JUMPDEST PUSH2 0x935 DUP2 DUP6 PUSH2 0x8D4 JUMP JUMPDEST SWAP4 POP PUSH2 0x945 DUP2 DUP6 PUSH1 0x20 DUP7 ADD PUSH2 0x8E5 JUMP JUMPDEST PUSH2 0x94E DUP2 PUSH2 0x90F JUMP JUMPDEST DUP5 ADD SWAP2 POP POP SWAP3 SWAP2 POP POP JUMP JUMPDEST PUSH2 0x962 DUP2 PUSH2 0x769 JUMP JUMPDEST DUP3 MSTORE POP POP JUMP JUMPDEST PUSH1 0x0 PUSH1 0xA0 DUP3 ADD SWAP1 POP DUP2 DUP2 SUB PUSH1 0x0 DUP4 ADD MSTORE PUSH2 0x982 DUP2 DUP9 PUSH2 0x920 JUMP JUMPDEST SWAP1 POP PUSH2 0x991 PUSH1 0x20 DUP4 ADD DUP8 PUSH2 0x959 JUMP JUMPDEST PUSH2 0x99E PUSH1 0x40 DUP4 ADD DUP7 PUSH2 0x89F JUMP JUMPDEST PUSH2 0x9AB PUSH1 0x60 DUP4 ADD DUP6 PUSH2 0x863 JUMP JUMPDEST PUSH2 0x9B8 PUSH1 0x80 DUP4 ADD DUP5 PUSH2 0x959 JUMP JUMPDEST SWAP7 SWAP6 POP POP POP POP POP POP JUMP JUMPDEST PUSH1 0x0 PUSH1 0x20 DUP3 ADD SWAP1 POP PUSH2 0x9D7 PUSH1 0x0 DUP4 ADD DUP5 PUSH2 0x959 JUMP JUMPDEST SWAP3 SWAP2 POP POP JUMP JUMPDEST PUSH1 0x0 DUP1 REVERT JUMPDEST PUSH1 0x0 DUP1 REVERT JUMPDEST PUSH32 0x4E487B7100000000000000000000000000000000000000000000000000000000 PUSH1 0x0 MSTORE PUSH1 0x41 PUSH1 0x4 MSTORE PUSH1 0x24 PUSH1 0x0 REVERT JUMPDEST PUSH2 0xA1F DUP3 PUSH2 0x90F JUMP JUMPDEST DUP2 ADD DUP2 DUP2 LT PUSH8 0xFFFFFFFFFFFFFFFF DUP3 GT OR ISZERO PUSH2 0xA3E JUMPI PUSH2 0xA3D PUSH2 0x9E7 JUMP JUMPDEST JUMPDEST DUP1 PUSH1 0x40 MSTORE POP POP POP JUMP JUMPDEST PUSH1 0x0 PUSH2 0xA51 PUSH2 0x755 JUMP JUMPDEST SWAP1 POP PUSH2 0xA5D DUP3 DUP3 PUSH2 0xA16 JUMP JUMPDEST SWAP2 SWAP1 POP JUMP JUMPDEST PUSH1 0x0 PUSH8 0xFFFFFFFFFFFFFFFF DUP3 GT ISZERO PUSH2 0xA7D JUMPI PUSH2 0xA7C PUSH2 0x9E7 JUMP JUMPDEST JUMPDEST PUSH2 0xA86 DUP3 PUSH2 0x90F JUMP JUMPDEST SWAP1 POP PUSH1 0x20 DUP2 ADD SWAP1 POP SWAP2 SWAP1 POP JUMP JUMPDEST DUP3 DUP2 DUP4 CALLDATACOPY PUSH1 0x0 DUP4 DUP4 ADD MSTORE POP POP POP JUMP JUMPDEST PUSH1 0x0 PUSH2 0xAB5 PUSH2 0xAB0 DUP5 PUSH2 0xA62 JUMP JUMPDEST PUSH2 0xA47 JUMP JUMPDEST SWAP1 POP DUP3 DUP2 MSTORE PUSH1 0x20 DUP2 ADD DUP5 DUP5 DUP5 ADD GT ISZERO PUSH2 0xAD1 JUMPI PUSH2 0xAD0 PUSH2 0x9E2 JUMP JUMPDEST JUMPDEST PUSH2 0xADC DUP5 DUP3 DUP6 PUSH2 0xA93 JUMP JUMPDEST POP SWAP4 SWAP3 POP POP POP JUMP JUMPDEST PUSH1 0x0 DUP3 PUSH1 0x1F DUP4 ADD SLT PUSH2 0xAF9 JUMPI PUSH2 0xAF8 PUSH2 0x9DD JUMP JUMPDEST JUMPDEST DUP2 CALLDATALOAD PUSH2 0xB09 DUP5 DUP3 PUSH1 0x20 DUP7 ADD PUSH2 0xAA2 JUMP JUMPDEST SWAP2 POP POP SWAP3 SWAP2 POP POP JUMP JUMPDEST PUSH2 0xB1B DUP2 PUSH2 0x88D JUMP JUMPDEST DUP2 EQ PUSH2 0xB26 JUMPI PUSH1 0x0 DUP1 REVERT JUMPDEST POP JUMP JUMPDEST PUSH1 0x0 DUP2 CALLDATALOAD SWAP1 POP PUSH2 0xB38 DUP2 PUSH2 0xB12 JUMP JUMPDEST SWAP3 SWAP2 POP POP JUMP JUMPDEST PUSH1 0x0 DUP1 PUSH1 0x0 PUSH1 0x60 DUP5 DUP7 SUB SLT ISZERO PUSH2 0xB57 JUMPI PUSH2 0xB56 PUSH2 0x75F JUMP JUMPDEST JUMPDEST PUSH1 0x0 DUP5 ADD CALLDATALOAD PUSH8 0xFFFFFFFFFFFFFFFF DUP2 GT ISZERO PUSH2 0xB75 JUMPI PUSH2 0xB74 PUSH2 0x764 JUMP JUMPDEST JUMPDEST PUSH2 0xB81 DUP7 DUP3 DUP8 ADD PUSH2 0xAE4 JUMP JUMPDEST SWAP4 POP POP PUSH1 0x20 PUSH2 0xB92 DUP7 DUP3 DUP8 ADD PUSH2 0x78A JUMP JUMPDEST SWAP3 POP POP PUSH1 0x40 PUSH2 0xBA3 DUP7 DUP3 DUP8 ADD PUSH2 0xB29 JUMP JUMPDEST SWAP2 POP POP SWAP3 POP SWAP3 POP SWAP3 JUMP JUMPDEST PUSH32 0x4E487B7100000000000000000000000000000000000000000000000000000000 PUSH1 0x0 MSTORE PUSH1 0x12 PUSH1 0x4 MSTORE PUSH1 0x24 PUSH1 0x0 REVERT JUMPDEST PUSH32 0x4E487B7100000000000000000000000000000000000000000000000000000000 PUSH1 0x0 MSTORE PUSH1 0x11 PUSH1 0x4 MSTORE PUSH1 0x24 PUSH1 0x0 REVERT JUMPDEST PUSH1 0x0 PUSH2 0xC16 DUP3 PUSH2 0x769 JUMP JUMPDEST SWAP2 POP PUSH2 0xC21 DUP4 PUSH2 0x769 JUMP JUMPDEST SWAP3 POP DUP3 PUSH2 0xC31 JUMPI PUSH2 0xC30 PUSH2 0xBAD JUMP JUMPDEST JUMPDEST DUP3 DUP3 DIV SWAP1 POP SWAP3 SWAP2 POP POP JUMP JUMPDEST PUSH32 0x4E487B7100000000000000000000000000000000000000000000000000000000 PUSH1 0x0 MSTORE PUSH1 0x22 PUSH1 0x4 MSTORE PUSH1 0x24 PUSH1 0x0 REVERT JUMPDEST PUSH1 0x0 PUSH1 0x2 DUP3 DIV SWAP1 POP PUSH1 0x1 DUP3 AND DUP1 PUSH2 0xC83 JUMPI PUSH1 0x7F DUP3 AND SWAP2 POP JUMPDEST PUSH1 0x20 DUP3 LT DUP2 SUB PUSH2 0xC96 JUMPI PUSH2 0xC95 PUSH2 0xC3C JUMP JUMPDEST JUMPDEST POP SWAP2 SWAP1 POP JUMP JUMPDEST PUSH1 0x0 PUSH2 0xCA7 DUP3 PUSH2 0x769 JUMP JUMPDEST SWAP2 POP PUSH32 0xFFFFFFFFFFFFFFFFFFFFFFFFFFFFFFFFFFFFFFFFFFFFFFFFFFFFFFFFFFFFFFFF DUP3 SUB PUSH2 0xCD9 JUMPI PUSH2 0xCD8 PUSH2 0xBDC JUMP JUMPDEST JUMPDEST PUSH1 0x1 DUP3 ADD SWAP1 POP SWAP2 SWAP1 POP JUMP JUMPDEST PUSH1 0x0 DUP2 SWAP1 POP DUP2 PUSH1 0x0 MSTORE PUSH1 0x20 PUSH1 0x0 KECCAK256 SWAP1 POP SWAP2 SWAP1 POP JUMP JUMPDEST PUSH1 0x0 PUSH1 0x20 PUSH1 0x1F DUP4 ADD DIV SWAP1 POP SWAP2 SWAP1 POP JUMP JUMPDEST PUSH1 0x0 DUP3 DUP3 SHL SWAP1 POP SWAP3 SWAP2 POP POP JUMP JUMPDEST PUSH1 0x0 PUSH1 0x8 DUP4 MUL PUSH2 0xD46 PUSH32 0xFFFFFFFFFFFFFFFFFFFFFFFFFFFFFFFFFFFFFFFFFFFFFFFFFFFFFFFFFFFFFFFF DUP3 PUSH2 0xD09 JUMP JUMPDEST PUSH2 0xD50 DUP7 DUP4 PUSH2 0xD09 JUMP JUMPDEST SWAP6 POP DUP1 NOT DUP5 AND SWAP4 POP DUP1 DUP7 AND DUP5 OR SWAP3 POP POP POP SWAP4 SWAP3 POP POP POP JUMP JUMPDEST PUSH1 0x0 DUP2 SWAP1 POP SWAP2 SWAP1 POP JUMP JUMPDEST PUSH1 0x0 PUSH2 0xD8D PUSH2 0xD88 PUSH2 0xD83 DUP5 PUSH2 0x769 JUMP JUMPDEST PUSH2 0xD68 JUMP JUMPDEST PUSH2 0x769 JUMP JUMPDEST SWAP1 POP SWAP2 SWAP1 POP JUMP JUMPDEST PUSH1 0x0 DUP2 SWAP1 POP SWAP2 SWAP1 POP JUMP JUMPDEST PUSH2 0xDA7 DUP4 PUSH2 0xD72 JUMP JUMPDEST PUSH2 0xDBB PUSH2 0xDB3 DUP3 PUSH2 0xD94 JUMP JUMPDEST DUP5 DUP5 SLOAD PUSH2 0xD16 JUMP JUMPDEST DUP3 SSTORE POP POP POP POP JUMP JUMPDEST PUSH1 0x0 SWAP1 JUMP JUMPDEST PUSH2 0xDD0 PUSH2 0xDC3 JUMP JUMPDEST PUSH2 0xDDB DUP2 DUP5 DUP5 PUSH2 0xD9E JUMP JUMPDEST POP POP POP JUMP JUMPDEST JUMPDEST DUP2 DUP2 LT ISZERO PUSH2 0xDFF JUMPI PUSH2 0xDF4 PUSH1 0x0 DUP3 PUSH2 0xDC8 JUMP JUMPDEST PUSH1 0x1 DUP2 ADD SWAP1 POP PUSH2 0xDE1 JUMP JUMPDEST POP POP JUMP JUMPDEST PUSH1 0x1F DUP3 GT ISZERO PUSH2 0xE44 JUMPI PUSH2 0xE15 DUP2 PUSH2 0xCE4 JUMP JUMPDEST PUSH2 0xE1E DUP5 PUSH2 0xCF9 JUMP JUMPDEST DUP2 ADD PUSH1 0x20 DUP6 LT ISZERO PUSH2 0xE2D JUMPI DUP2 SWAP1 POP JUMPDEST PUSH2 0xE41 PUSH2 0xE39 DUP6 PUSH2 0xCF9 JUMP JUMPDEST DUP4 ADD DUP3 PUSH2 0xDE0 JUMP JUMPDEST POP POP JUMPDEST POP POP POP JUMP JUMPDEST PUSH1 0x0 DUP3 DUP3 SHR SWAP1 POP SWAP3 SWAP2 POP POP JUMP JUMPDEST PUSH1 0x0 PUSH2 0xE67 PUSH1 0x0 NOT DUP5 PUSH1 0x8 MUL PUSH2 0xE49 JUMP JUMPDEST NOT DUP1 DUP4 AND SWAP2 POP POP SWAP3 SWAP2 POP POP JUMP JUMPDEST PUSH1 0x0 PUSH2 0xE80 DUP4 DUP4 PUSH2 0xE56 JUMP JUMPDEST SWAP2 POP DUP3 PUSH1 0x2 MUL DUP3 OR SWAP1 POP SWAP3 SWAP2 POP POP JUMP JUMPDEST PUSH2 0xE99 DUP3 PUSH2 0x8C9 JUMP JUMPDEST PUSH8 0xFFFFFFFFFFFFFFFF DUP2 GT ISZERO PUSH2 0xEB2 JUMPI PUSH2 0xEB1 PUSH2 0x9E7 JUMP JUMPDEST JUMPDEST PUSH2 0xEBC DUP3 SLOAD PUSH2 0xC6B JUMP JUMPDEST PUSH2 0xEC7 DUP3 DUP3 DUP6 PUSH2 0xE03 JUMP JUMPDEST PUSH1 0x0 PUSH1 0x20 SWAP1 POP PUSH1 0x1F DUP4 GT PUSH1 0x1 DUP2 EQ PUSH2 0xEFA JUMPI PUSH1 0x0 DUP5 ISZERO PUSH2 0xEE8 JUMPI DUP3 DUP8 ADD MLOAD SWAP1 POP JUMPDEST PUSH2 0xEF2 DUP6 DUP3 PUSH2 0xE74 JUMP JUMPDEST DUP7 SSTORE POP PUSH2 0xF5A JUMP JUMPDEST PUSH1 0x1F NOT DUP5 AND PUSH2 0xF08 DUP7 PUSH2 0xCE4 JUMP JUMPDEST PUSH1 0x0 JUMPDEST DUP3 DUP2 LT ISZERO PUSH2 0xF30 JUMPI DUP5 DUP10 ADD MLOAD DUP3 SSTORE PUSH1 0x1 DUP3 ADD SWAP2 POP PUSH1 0x20 DUP6 ADD SWAP5 POP PUSH1 0x20 DUP2 ADD SWAP1 POP PUSH2 0xF0B JUMP JUMPDEST DUP7 DUP4 LT ISZERO PUSH2 0xF4D JUMPI DUP5 DUP10 ADD MLOAD PUSH2 0xF49 PUSH1 0x1F DUP10 AND DUP3 PUSH2 0xE56 JUMP JUMPDEST DUP4 SSTORE POP JUMPDEST PUSH1 0x1 PUSH1 0x2 DUP9 MUL ADD DUP9 SSTORE POP POP POP JUMPDEST POP POP POP POP POP POP JUMP INVALID LOG2 PUSH5 0x6970667358 0x22 SLT KECCAK256 DUP8 0xE 0xB5 0xC8 0xAA MSTORE8 BLOCKHASH 0xF 0xD4 CALLER 0xE0 0xCC DUP13 0xEB 0xD9 0xEE SWAP3 BYTE 0xB8 DUP3 DIV SWAP2 PUSH28 0x553340E990806166D764736F6C634300081100330000000000000000 "},"gasEstimates":{"creation":{"codeDepositCost":"798400","executionCost":"infinite","totalCost":"infinite"},"external":{"approveRequest(uint256)":"infinite","approvers(address)":"2868","approversCount()":"2429","contribute()":"51021","createRequest(string,uint256,address)":"infinite","finalizeRequest(uint256)":"infinite","manager()":"2559","minimumContribution()":"2473","requests(uint256)":"infinite"}},"methodIdentifiers":{"approveRequest(uint256)":"d7d1bbdb","approvers(address)":"0a144391","approversCount()":"82fde093","contribute()":"d7bb99ba","createRequest(string,uint256,address)":"8a9cfd55","finalizeRequest(uint256)":"03441006","manager()":"481c6a75","minimumContribution()":"937e09b1","requests(uint256)":"81d12c58"}},"storageLayout":{"storage":[{"astId":56,"contract":"Campaign.sol:Campaign","label":"_numRequests","offset":0,"slot":"0","type":"t_uint256"},{"astId":58,"contract":"Campaign.sol:Campaign","label":"minimumContribution","offset":0,"slot":"1","type":"t_uint256"},{"astId":60,"contract":"Campaign.sol:Campaign","label":"approversCount","offset":0,"slot":"2","type":"t_uint256"},{"astId":62,"contract":"Campaign.sol:Campaign","label":"manager","offset":0,"slot":"3","type":"t_address_payable"},{"astId":67,"contract":"Campaign.sol:Campaign","label":"requests","offset":0,"slot":"4","type":"t_mapping(t_uint256,t_struct(Request)54_storage)"},{"astId":71,"contract":"Campaign.sol:Campaign","label":"approvers","offset":0,"slot":"5","type":"t_mapping(t_address,t_bool)"}],"types":{"t_address":{"encoding":"inplace","label":"address","numberOfBytes":"20"},"t_address_payable":{"encoding":"inplace","label":"address payable","numberOfBytes":"20"},"t_bool":{"encoding":"inplace","label":"bool","numberOfBytes":"1"},"t_mapping(t_address,t_bool)":{"encoding":"mapping","key":"t_address","label":"mapping(address => bool)","numberOfBytes":"32","value":"t_bool"},"t_mapping(t_uint256,t_struct(Request)54_storage)":{"encoding":"mapping","key":"t_uint256","label":"mapping(uint256 => struct Campaign.Request)","numberOfBytes":"32","value":"t_struct(Request)54_storage"},"t_string_storage":{"encoding":"bytes","label":"string","numberOfBytes":"32"},"t_struct(Request)54_storage":{"encoding":"inplace","label":"struct Campaign.Request","members":[{"astId":41,"contract":"Campaign.sol:Campaign","label":"description","offset":0,"slot":"0","type":"t_string_storage"},{"astId":43,"contract":"Campaign.sol:Campaign","label":"value","offset":0,"slot":"1","type":"t_uint256"},{"astId":45,"contract":"Campaign.sol:Campaign","label":"recipient","offset":0,"slot":"2","type":"t_address_payable"},{"astId":47,"contract":"Campaign.sol:Campaign","label":"complete","offset":20,"slot":"2","type":"t_bool"},{"astId":49,"contract":"Campaign.sol:Campaign","label":"approvalCount","offset":0,"slot":"3","type":"t_uint256"},{"astId":53,"contract":"Campaign.sol:Campaign","label":"approvals","offset":0,"slot":"4","type":"t_mapping(t_address,t_bool)"}],"numberOfBytes":"160"},"t_uint256":{"encoding":"inplace","label":"uint256","numberOfBytes":"32"}}},"userdoc":{"kind":"user","methods":{},"version":1}}