{"abi":[{"inputs":[{"internalType":"uint256","name":"minimum","type":"uint256"},{"internalType":"address","name":"creator","type":"address"}],"stateMutability":"nonpayable","type":"constructor"},{"inputs":[{"internalType":"uint256","name":"index","type":"uint256"}],"name":"approveRequest","outputs":[],"stateMutability":"nonpayable","type":"function"},{"inputs":[{"internalType":"address","name":"","type":"address"}],"name":"approvers","outputs":[{"internalType":"bool","name":"","type":"bool"}],"stateMutability":"view","type":"function"},{"inputs":[],"name":"approversCount","outputs":[{"internalType":"uint256","name":"","type":"uint256"}],"stateMutability":"view","type":"function"},{"inputs":[],"name":"contribute","outputs":[],"stateMutability":"payable","type":"function"},{"inputs":[{"internalType":"string","name":"description","type":"string"},{"internalType":"uint256","name":"value","type":"uint256"},{"internalType":"address payable","name":"recipient","type":"address"}],"name":"createRequest","outputs":[],"stateMutability":"nonpayable","type":"function"},{"inputs":[{"internalType":"uint256","name":"index","type":"uint256"}],"name":"finalizeRequest","outputs":[],"stateMutability":"nonpayable","type":"function"},{"inputs":[],"name":"getApproversCount","outputs":[{"internalType":"uint256","name":"","type":"uint256"}],"stateMutability":"view","type":"function"},{"inputs":[],"name":"getRequestsCount","outputs":[{"internalType":"uint256","name":"","type":"uint256"}],"stateMutability":"view","type":"function"},{"inputs":[],"name":"getSummary","outputs":[{"internalType":"uint256","name":"","type":"uint256"},{"internalType":"uint256","name":"","type":"uint256"},{"internalType":"uint256","name":"","type":"uint256"},{"internalType":"uint256","name":"","type":"uint256"},{"internalType":"address","name":"","type":"address"}],"stateMutability":"view","type":"function"},{"inputs":[],"name":"manager","outputs":[{"internalType":"address payable","name":"","type":"address"}],"stateMutability":"view","type":"function"},{"inputs":[],"name":"minimumContribution","outputs":[{"internalType":"uint256","name":"","type":"uint256"}],"stateMutability":"view","type":"function"},{"inputs":[{"internalType":"uint256","name":"","type":"uint256"}],"name":"requests","outputs":[{"internalType":"string","name":"description","type":"string"},{"internalType":"uint256","name":"value","type":"uint256"},{"internalType":"address payable","name":"recipient","type":"address"},{"internalType":"bool","name":"complete","type":"bool"},{"internalType":"uint256","name":"approvalCount","type":"uint256"}],"stateMutability":"view","type":"function"},{"inputs":[],"name":"requestsCount","outputs":[{"internalType":"uint256","name":"","type":"uint256"}],"stateMutability":"view","type":"function"}],"devdoc":{"kind":"dev","methods":{},"version":1},"evm":{"assembly":"    /* \"Campaign.sol\":447:3025  contract Campaign {... */\n  mstore(0x40, 0x80)\n    /* \"Campaign.sol\":1060:1191  constructor(uint256 minimum, address creator) {... */\n  callvalue\n  dup1\n  iszero\n  tag_1\n  jumpi\n  0x00\n  dup1\n  revert\ntag_1:\n  pop\n  mload(0x40)\n  sub(codesize, bytecodeSize)\n  dup1\n  bytecodeSize\n  dup4\n  codecopy\n  dup2\n  dup2\n  add\n  0x40\n  mstore\n  dup2\n  add\n  swap1\n  tag_2\n  swap2\n  swap1\n  tag_3\n  jump\t// in\ntag_2:\n    /* \"Campaign.sol\":1135:1142  creator */\n  dup1\n    /* \"Campaign.sol\":1117:1124  manager */\n  0x04\n  0x00\n    /* \"Campaign.sol\":1117:1143  manager = payable(creator) */\n  0x0100\n  exp\n  dup2\n  sload\n  dup2\n  0xffffffffffffffffffffffffffffffffffffffff\n  mul\n  not\n  and\n  swap1\n  dup4\n  0xffffffffffffffffffffffffffffffffffffffff\n  and\n  mul\n  or\n  swap1\n  sstore\n  pop\n    /* \"Campaign.sol\":1176:1183  minimum */\n  dup2\n    /* \"Campaign.sol\":1154:1173  minimumContribution */\n  0x01\n    /* \"Campaign.sol\":1154:1183  minimumContribution = minimum */\n  dup2\n  swap1\n  sstore\n  pop\n    /* \"Campaign.sol\":1060:1191  constructor(uint256 minimum, address creator) {... */\n  pop\n  pop\n    /* \"Campaign.sol\":447:3025  contract Campaign {... */\n  jump(tag_6)\n    /* \"#utility.yul\":88:205   */\ntag_8:\n    /* \"#utility.yul\":197:198   */\n  0x00\n    /* \"#utility.yul\":194:195   */\n  dup1\n    /* \"#utility.yul\":187:199   */\n  revert\n    /* \"#utility.yul\":334:411   */\ntag_10:\n    /* \"#utility.yul\":371:378   */\n  0x00\n    /* \"#utility.yul\":400:405   */\n  dup2\n    /* \"#utility.yul\":389:405   */\n  swap1\n  pop\n    /* \"#utility.yul\":334:411   */\n  swap2\n  swap1\n  pop\n  jump\t// out\n    /* \"#utility.yul\":417:539   */\ntag_11:\n    /* \"#utility.yul\":490:514   */\n  tag_23\n    /* \"#utility.yul\":508:513   */\n  dup2\n    /* \"#utility.yul\":490:514   */\n  tag_10\n  jump\t// in\ntag_23:\n    /* \"#utility.yul\":483:488   */\n  dup2\n    /* \"#utility.yul\":480:515   */\n  eq\n    /* \"#utility.yul\":470:533   */\n  tag_24\n  jumpi\n    /* \"#utility.yul\":529:530   */\n  0x00\n    /* \"#utility.yul\":526:527   */\n  dup1\n    /* \"#utility.yul\":519:531   */\n  revert\n    /* \"#utility.yul\":470:533   */\ntag_24:\n    /* \"#utility.yul\":417:539   */\n  pop\n  jump\t// out\n    /* \"#utility.yul\":545:688   */\ntag_12:\n    /* \"#utility.yul\":602:607   */\n  0x00\n    /* \"#utility.yul\":633:639   */\n  dup2\n    /* \"#utility.yul\":627:640   */\n  mload\n    /* \"#utility.yul\":618:640   */\n  swap1\n  pop\n    /* \"#utility.yul\":649:682   */\n  tag_26\n    /* \"#utility.yul\":676:681   */\n  dup2\n    /* \"#utility.yul\":649:682   */\n  tag_11\n  jump\t// in\ntag_26:\n    /* \"#utility.yul\":545:688   */\n  swap3\n  swap2\n  pop\n  pop\n  jump\t// out\n    /* \"#utility.yul\":694:820   */\ntag_13:\n    /* \"#utility.yul\":731:738   */\n  0x00\n    /* \"#utility.yul\":771:813   */\n  0xffffffffffffffffffffffffffffffffffffffff\n    /* \"#utility.yul\":764:769   */\n  dup3\n    /* \"#utility.yul\":760:814   */\n  and\n    /* \"#utility.yul\":749:814   */\n  swap1\n  pop\n    /* \"#utility.yul\":694:820   */\n  swap2\n  swap1\n  pop\n  jump\t// out\n    /* \"#utility.yul\":826:922   */\ntag_14:\n    /* \"#utility.yul\":863:870   */\n  0x00\n    /* \"#utility.yul\":892:916   */\n  tag_29\n    /* \"#utility.yul\":910:915   */\n  dup3\n    /* \"#utility.yul\":892:916   */\n  tag_13\n  jump\t// in\ntag_29:\n    /* \"#utility.yul\":881:916   */\n  swap1\n  pop\n    /* \"#utility.yul\":826:922   */\n  swap2\n  swap1\n  pop\n  jump\t// out\n    /* \"#utility.yul\":928:1050   */\ntag_15:\n    /* \"#utility.yul\":1001:1025   */\n  tag_31\n    /* \"#utility.yul\":1019:1024   */\n  dup2\n    /* \"#utility.yul\":1001:1025   */\n  tag_14\n  jump\t// in\ntag_31:\n    /* \"#utility.yul\":994:999   */\n  dup2\n    /* \"#utility.yul\":991:1026   */\n  eq\n    /* \"#utility.yul\":981:1044   */\n  tag_32\n  jumpi\n    /* \"#utility.yul\":1040:1041   */\n  0x00\n    /* \"#utility.yul\":1037:1038   */\n  dup1\n    /* \"#utility.yul\":1030:1042   */\n  revert\n    /* \"#utility.yul\":981:1044   */\ntag_32:\n    /* \"#utility.yul\":928:1050   */\n  pop\n  jump\t// out\n    /* \"#utility.yul\":1056:1199   */\ntag_16:\n    /* \"#utility.yul\":1113:1118   */\n  0x00\n    /* \"#utility.yul\":1144:1150   */\n  dup2\n    /* \"#utility.yul\":1138:1151   */\n  mload\n    /* \"#utility.yul\":1129:1151   */\n  swap1\n  pop\n    /* \"#utility.yul\":1160:1193   */\n  tag_34\n    /* \"#utility.yul\":1187:1192   */\n  dup2\n    /* \"#utility.yul\":1160:1193   */\n  tag_15\n  jump\t// in\ntag_34:\n    /* \"#utility.yul\":1056:1199   */\n  swap3\n  swap2\n  pop\n  pop\n  jump\t// out\n    /* \"#utility.yul\":1205:1712   */\ntag_3:\n    /* \"#utility.yul\":1284:1290   */\n  0x00\n    /* \"#utility.yul\":1292:1298   */\n  dup1\n    /* \"#utility.yul\":1341:1343   */\n  0x40\n    /* \"#utility.yul\":1329:1338   */\n  dup4\n    /* \"#utility.yul\":1320:1327   */\n  dup6\n    /* \"#utility.yul\":1316:1339   */\n  sub\n    /* \"#utility.yul\":1312:1344   */\n  slt\n    /* \"#utility.yul\":1309:1428   */\n  iszero\n  tag_36\n  jumpi\n    /* \"#utility.yul\":1347:1426   */\n  tag_37\n  tag_8\n  jump\t// in\ntag_37:\n    /* \"#utility.yul\":1309:1428   */\ntag_36:\n    /* \"#utility.yul\":1467:1468   */\n  0x00\n    /* \"#utility.yul\":1492:1556   */\n  tag_38\n    /* \"#utility.yul\":1548:1555   */\n  dup6\n    /* \"#utility.yul\":1539:1545   */\n  dup3\n    /* \"#utility.yul\":1528:1537   */\n  dup7\n    /* \"#utility.yul\":1524:1546   */\n  add\n    /* \"#utility.yul\":1492:1556   */\n  tag_12\n  jump\t// in\ntag_38:\n    /* \"#utility.yul\":1482:1556   */\n  swap3\n  pop\n    /* \"#utility.yul\":1438:1566   */\n  pop\n    /* \"#utility.yul\":1605:1607   */\n  0x20\n    /* \"#utility.yul\":1631:1695   */\n  tag_39\n    /* \"#utility.yul\":1687:1694   */\n  dup6\n    /* \"#utility.yul\":1678:1684   */\n  dup3\n    /* \"#utility.yul\":1667:1676   */\n  dup7\n    /* \"#utility.yul\":1663:1685   */\n  add\n    /* \"#utility.yul\":1631:1695   */\n  tag_16\n  jump\t// in\ntag_39:\n    /* \"#utility.yul\":1621:1695   */\n  swap2\n  pop\n    /* \"#utility.yul\":1576:1705   */\n  pop\n    /* \"#utility.yul\":1205:1712   */\n  swap3\n  pop\n  swap3\n  swap1\n  pop\n  jump\t// out\n    /* \"Campaign.sol\":447:3025  contract Campaign {... */\ntag_6:\n  dataSize(sub_0)\n  dup1\n  dataOffset(sub_0)\n  0x00\n  codecopy\n  0x00\n  return\nstop\n\nsub_0: assembly {\n        /* \"Campaign.sol\":447:3025  contract Campaign {... */\n      mstore(0x40, 0x80)\n      jumpi(tag_1, lt(calldatasize, 0x04))\n      shr(0xe0, calldataload(0x00))\n      dup1\n      0x82fde093\n      gt\n      tag_15\n      jumpi\n      dup1\n      0xaa8a7eeb\n      gt\n      tag_16\n      jumpi\n      dup1\n      0xaa8a7eeb\n      eq\n      tag_11\n      jumpi\n      dup1\n      0xd7bb99ba\n      eq\n      tag_12\n      jumpi\n      dup1\n      0xd7d1bbdb\n      eq\n      tag_13\n      jumpi\n      dup1\n      0xfbfa4b7f\n      eq\n      tag_14\n      jumpi\n      jump(tag_1)\n    tag_16:\n      dup1\n      0x82fde093\n      eq\n      tag_8\n      jumpi\n      dup1\n      0x8a9cfd55\n      eq\n      tag_9\n      jumpi\n      dup1\n      0x937e09b1\n      eq\n      tag_10\n      jumpi\n      jump(tag_1)\n    tag_15:\n      dup1\n      0x03441006\n      eq\n      tag_2\n      jumpi\n      dup1\n      0x0a144391\n      eq\n      tag_3\n      jumpi\n      dup1\n      0x3410452a\n      eq\n      tag_4\n      jumpi\n      dup1\n      0x4051ddac\n      eq\n      tag_5\n      jumpi\n      dup1\n      0x481c6a75\n      eq\n      tag_6\n      jumpi\n      dup1\n      0x81d12c58\n      eq\n      tag_7\n      jumpi\n    tag_1:\n      0x00\n      dup1\n      revert\n        /* \"Campaign.sol\":2113:2420  function finalizeRequest(uint256 index) public restricted {... */\n    tag_2:\n      callvalue\n      dup1\n      iszero\n      tag_17\n      jumpi\n      0x00\n      dup1\n      revert\n    tag_17:\n      pop\n      tag_18\n      0x04\n      dup1\n      calldatasize\n      sub\n      dup2\n      add\n      swap1\n      tag_19\n      swap2\n      swap1\n      tag_20\n      jump\t// in\n    tag_19:\n      tag_21\n      jump\t// in\n    tag_18:\n      stop\n        /* \"Campaign.sol\":919:960  mapping(address => bool) public approvers */\n    tag_3:\n      callvalue\n      dup1\n      iszero\n      tag_22\n      jumpi\n      0x00\n      dup1\n      revert\n    tag_22:\n      pop\n      tag_23\n      0x04\n      dup1\n      calldatasize\n      sub\n      dup2\n      add\n      swap1\n      tag_24\n      swap2\n      swap1\n      tag_25\n      jump\t// in\n    tag_24:\n      tag_26\n      jump\t// in\n    tag_23:\n      mload(0x40)\n      tag_27\n      swap2\n      swap1\n      tag_28\n      jump\t// in\n    tag_27:\n      mload(0x40)\n      dup1\n      swap2\n      sub\n      swap1\n      return\n        /* \"Campaign.sol\":2818:2915  function getRequestsCount() public view returns (uint256) {... */\n    tag_4:\n      callvalue\n      dup1\n      iszero\n      tag_29\n      jumpi\n      0x00\n      dup1\n      revert\n    tag_29:\n      pop\n      tag_30\n      tag_31\n      jump\t// in\n    tag_30:\n      mload(0x40)\n      tag_32\n      swap2\n      swap1\n      tag_33\n      jump\t// in\n    tag_32:\n      mload(0x40)\n      dup1\n      swap2\n      sub\n      swap1\n      return\n        /* \"Campaign.sol\":2428:2810  function getSummary()... */\n    tag_5:\n      callvalue\n      dup1\n      iszero\n      tag_34\n      jumpi\n      0x00\n      dup1\n      revert\n    tag_34:\n      pop\n      tag_35\n      tag_36\n      jump\t// in\n    tag_35:\n      mload(0x40)\n      tag_37\n      swap6\n      swap5\n      swap4\n      swap3\n      swap2\n      swap1\n      tag_38\n      jump\t// in\n    tag_37:\n      mload(0x40)\n      dup1\n      swap2\n      sub\n      swap1\n      return\n        /* \"Campaign.sol\":832:862  address payable public manager */\n    tag_6:\n      callvalue\n      dup1\n      iszero\n      tag_39\n      jumpi\n      0x00\n      dup1\n      revert\n    tag_39:\n      pop\n      tag_40\n      tag_41\n      jump\t// in\n    tag_40:\n      mload(0x40)\n      tag_42\n      swap2\n      swap1\n      tag_43\n      jump\t// in\n    tag_42:\n      mload(0x40)\n      dup1\n      swap2\n      sub\n      swap1\n      return\n        /* \"Campaign.sol\":869:912  mapping(uint256 => Request) public requests */\n    tag_7:\n      callvalue\n      dup1\n      iszero\n      tag_44\n      jumpi\n      0x00\n      dup1\n      revert\n    tag_44:\n      pop\n      tag_45\n      0x04\n      dup1\n      calldatasize\n      sub\n      dup2\n      add\n      swap1\n      tag_46\n      swap2\n      swap1\n      tag_20\n      jump\t// in\n    tag_46:\n      tag_47\n      jump\t// in\n    tag_45:\n      mload(0x40)\n      tag_48\n      swap6\n      swap5\n      swap4\n      swap3\n      swap2\n      swap1\n      tag_49\n      jump\t// in\n    tag_48:\n      mload(0x40)\n      dup1\n      swap2\n      sub\n      swap1\n      return\n        /* \"Campaign.sol\":761:790  uint256 public approversCount */\n    tag_8:\n      callvalue\n      dup1\n      iszero\n      tag_50\n      jumpi\n      0x00\n      dup1\n      revert\n    tag_50:\n      pop\n      tag_51\n      tag_52\n      jump\t// in\n    tag_51:\n      mload(0x40)\n      tag_53\n      swap2\n      swap1\n      tag_33\n      jump\t// in\n    tag_53:\n      mload(0x40)\n      dup1\n      swap2\n      sub\n      swap1\n      return\n        /* \"Campaign.sol\":1369:1817  function createRequest(... */\n    tag_9:\n      callvalue\n      dup1\n      iszero\n      tag_54\n      jumpi\n      0x00\n      dup1\n      revert\n    tag_54:\n      pop\n      tag_55\n      0x04\n      dup1\n      calldatasize\n      sub\n      dup2\n      add\n      swap1\n      tag_56\n      swap2\n      swap1\n      tag_57\n      jump\t// in\n    tag_56:\n      tag_58\n      jump\t// in\n    tag_55:\n      stop\n        /* \"Campaign.sol\":720:754  uint256 public minimumContribution */\n    tag_10:\n      callvalue\n      dup1\n      iszero\n      tag_59\n      jumpi\n      0x00\n      dup1\n      revert\n    tag_59:\n      pop\n      tag_60\n      tag_61\n      jump\t// in\n    tag_60:\n      mload(0x40)\n      tag_62\n      swap2\n      swap1\n      tag_33\n      jump\t// in\n    tag_62:\n      mload(0x40)\n      dup1\n      swap2\n      sub\n      swap1\n      return\n        /* \"Campaign.sol\":2923:3022  function getApproversCount() public view returns (uint256) {... */\n    tag_11:\n      callvalue\n      dup1\n      iszero\n      tag_63\n      jumpi\n      0x00\n      dup1\n      revert\n    tag_63:\n      pop\n      tag_64\n      tag_65\n      jump\t// in\n    tag_64:\n      mload(0x40)\n      tag_66\n      swap2\n      swap1\n      tag_33\n      jump\t// in\n    tag_66:\n      mload(0x40)\n      dup1\n      swap2\n      sub\n      swap1\n      return\n        /* \"Campaign.sol\":1199:1361  function contribute() public payable {... */\n    tag_12:\n      tag_67\n      tag_68\n      jump\t// in\n    tag_67:\n      stop\n        /* \"Campaign.sol\":1825:2105  function approveRequest(uint256 index) public {... */\n    tag_13:\n      callvalue\n      dup1\n      iszero\n      tag_69\n      jumpi\n      0x00\n      dup1\n      revert\n    tag_69:\n      pop\n      tag_70\n      0x04\n      dup1\n      calldatasize\n      sub\n      dup2\n      add\n      swap1\n      tag_71\n      swap2\n      swap1\n      tag_20\n      jump\t// in\n    tag_71:\n      tag_72\n      jump\t// in\n    tag_70:\n      stop\n        /* \"Campaign.sol\":797:825  uint256 public requestsCount */\n    tag_14:\n      callvalue\n      dup1\n      iszero\n      tag_73\n      jumpi\n      0x00\n      dup1\n      revert\n    tag_73:\n      pop\n      tag_74\n      tag_75\n      jump\t// in\n    tag_74:\n      mload(0x40)\n      tag_76\n      swap2\n      swap1\n      tag_33\n      jump\t// in\n    tag_76:\n      mload(0x40)\n      dup1\n      swap2\n      sub\n      swap1\n      return\n        /* \"Campaign.sol\":2113:2420  function finalizeRequest(uint256 index) public restricted {... */\n    tag_21:\n        /* \"Campaign.sol\":1024:1031  manager */\n      0x04\n      0x00\n      swap1\n      sload\n      swap1\n      0x0100\n      exp\n      swap1\n      div\n      0xffffffffffffffffffffffffffffffffffffffff\n      and\n        /* \"Campaign.sol\":1010:1031  msg.sender == manager */\n      0xffffffffffffffffffffffffffffffffffffffff\n      and\n        /* \"Campaign.sol\":1010:1020  msg.sender */\n      caller\n        /* \"Campaign.sol\":1010:1031  msg.sender == manager */\n      0xffffffffffffffffffffffffffffffffffffffff\n      and\n      eq\n        /* \"Campaign.sol\":1002:1032  require(msg.sender == manager) */\n      tag_78\n      jumpi\n      0x00\n      dup1\n      revert\n    tag_78:\n        /* \"Campaign.sol\":2182:2205  Request storage request */\n      0x00\n        /* \"Campaign.sol\":2208:2216  requests */\n      0x05\n        /* \"Campaign.sol\":2208:2223  requests[index] */\n      0x00\n        /* \"Campaign.sol\":2217:2222  index */\n      dup4\n        /* \"Campaign.sol\":2208:2223  requests[index] */\n      dup2\n      mstore\n      0x20\n      add\n      swap1\n      dup2\n      mstore\n      0x20\n      add\n      0x00\n      keccak256\n        /* \"Campaign.sol\":2182:2223  Request storage request = requests[index] */\n      swap1\n      pop\n        /* \"Campaign.sol\":2284:2285  2 */\n      0x02\n        /* \"Campaign.sol\":2267:2281  approversCount */\n      dup1\n      sload\n        /* \"Campaign.sol\":2267:2285  approversCount / 2 */\n      tag_80\n      swap2\n      swap1\n      tag_81\n      jump\t// in\n    tag_80:\n        /* \"Campaign.sol\":2242:2249  request */\n      dup2\n        /* \"Campaign.sol\":2242:2263  request.approvalCount */\n      0x03\n      add\n      sload\n        /* \"Campaign.sol\":2242:2286  request.approvalCount > (approversCount / 2) */\n      gt\n        /* \"Campaign.sol\":2234:2287  require(request.approvalCount > (approversCount / 2)) */\n      tag_82\n      jumpi\n      0x00\n      dup1\n      revert\n    tag_82:\n        /* \"Campaign.sol\":2307:2314  request */\n      dup1\n        /* \"Campaign.sol\":2307:2323  request.complete */\n      0x02\n      add\n      0x14\n      swap1\n      sload\n      swap1\n      0x0100\n      exp\n      swap1\n      div\n      0xff\n      and\n        /* \"Campaign.sol\":2306:2323  !request.complete */\n      iszero\n        /* \"Campaign.sol\":2298:2324  require(!request.complete) */\n      tag_83\n      jumpi\n      0x00\n      dup1\n      revert\n    tag_83:\n        /* \"Campaign.sol\":2337:2344  request */\n      dup1\n        /* \"Campaign.sol\":2337:2354  request.recipient */\n      0x02\n      add\n      0x00\n      swap1\n      sload\n      swap1\n      0x0100\n      exp\n      swap1\n      div\n      0xffffffffffffffffffffffffffffffffffffffff\n      and\n        /* \"Campaign.sol\":2337:2363  request.recipient.transfer */\n      0xffffffffffffffffffffffffffffffffffffffff\n      and\n        /* \"Campaign.sol\":2337:2378  request.recipient.transfer(request.value) */\n      0x08fc\n        /* \"Campaign.sol\":2364:2371  request */\n      dup3\n        /* \"Campaign.sol\":2364:2377  request.value */\n      0x01\n      add\n      sload\n        /* \"Campaign.sol\":2337:2378  request.recipient.transfer(request.value) */\n      swap1\n      dup2\n      iszero\n      mul\n      swap1\n      mload(0x40)\n      0x00\n      mload(0x40)\n      dup1\n      dup4\n      sub\n      dup2\n      dup6\n      dup9\n      dup9\n      call\n      swap4\n      pop\n      pop\n      pop\n      pop\n      iszero\n      dup1\n      iszero\n      tag_85\n      jumpi\n      returndatasize\n      0x00\n      dup1\n      returndatacopy\n      revert(0x00, returndatasize)\n    tag_85:\n      pop\n        /* \"Campaign.sol\":2408:2412  true */\n      0x01\n        /* \"Campaign.sol\":2389:2396  request */\n      dup2\n        /* \"Campaign.sol\":2389:2405  request.complete */\n      0x02\n      add\n      0x14\n        /* \"Campaign.sol\":2389:2412  request.complete = true */\n      0x0100\n      exp\n      dup2\n      sload\n      dup2\n      0xff\n      mul\n      not\n      and\n      swap1\n      dup4\n      iszero\n      iszero\n      mul\n      or\n      swap1\n      sstore\n      pop\n        /* \"Campaign.sol\":2171:2420  {... */\n      pop\n        /* \"Campaign.sol\":2113:2420  function finalizeRequest(uint256 index) public restricted {... */\n      pop\n      jump\t// out\n        /* \"Campaign.sol\":919:960  mapping(address => bool) public approvers */\n    tag_26:\n      mstore(0x20, 0x06)\n      dup1\n      0x00\n      mstore\n      keccak256(0x00, 0x40)\n      0x00\n      swap2\n      pop\n      sload\n      swap1\n      0x0100\n      exp\n      swap1\n      div\n      0xff\n      and\n      dup2\n      jump\t// out\n        /* \"Campaign.sol\":2818:2915  function getRequestsCount() public view returns (uint256) {... */\n    tag_31:\n        /* \"Campaign.sol\":2867:2874  uint256 */\n      0x00\n        /* \"Campaign.sol\":2894:2907  requestsCount */\n      sload(0x03)\n        /* \"Campaign.sol\":2887:2907  return requestsCount */\n      swap1\n      pop\n        /* \"Campaign.sol\":2818:2915  function getRequestsCount() public view returns (uint256) {... */\n      swap1\n      jump\t// out\n        /* \"Campaign.sol\":2428:2810  function getSummary()... */\n    tag_36:\n        /* \"Campaign.sol\":2512:2519  uint256 */\n      0x00\n        /* \"Campaign.sol\":2534:2541  uint256 */\n      dup1\n        /* \"Campaign.sol\":2556:2563  uint256 */\n      0x00\n        /* \"Campaign.sol\":2578:2585  uint256 */\n      dup1\n        /* \"Campaign.sol\":2600:2607  address */\n      0x00\n        /* \"Campaign.sol\":2657:2676  minimumContribution */\n      sload(0x01)\n        /* \"Campaign.sol\":2691:2712  address(this).balance */\n      selfbalance\n        /* \"Campaign.sol\":2727:2740  requestsCount */\n      sload(0x03)\n        /* \"Campaign.sol\":2755:2769  approversCount */\n      sload(0x02)\n        /* \"Campaign.sol\":2784:2791  manager */\n      0x04\n      0x00\n      swap1\n      sload\n      swap1\n      0x0100\n      exp\n      swap1\n      div\n      0xffffffffffffffffffffffffffffffffffffffff\n      and\n        /* \"Campaign.sol\":2635:2802  return (... */\n      swap5\n      pop\n      swap5\n      pop\n      swap5\n      pop\n      swap5\n      pop\n      swap5\n      pop\n        /* \"Campaign.sol\":2428:2810  function getSummary()... */\n      swap1\n      swap2\n      swap3\n      swap4\n      swap5\n      jump\t// out\n        /* \"Campaign.sol\":832:862  address payable public manager */\n    tag_41:\n      0x04\n      0x00\n      swap1\n      sload\n      swap1\n      0x0100\n      exp\n      swap1\n      div\n      0xffffffffffffffffffffffffffffffffffffffff\n      and\n      dup2\n      jump\t// out\n        /* \"Campaign.sol\":869:912  mapping(uint256 => Request) public requests */\n    tag_47:\n      mstore(0x20, 0x05)\n      dup1\n      0x00\n      mstore\n      keccak256(0x00, 0x40)\n      0x00\n      swap2\n      pop\n      swap1\n      pop\n      dup1\n      0x00\n      add\n      dup1\n      sload\n      tag_88\n      swap1\n      tag_89\n      jump\t// in\n    tag_88:\n      dup1\n      0x1f\n      add\n      0x20\n      dup1\n      swap2\n      div\n      mul\n      0x20\n      add\n      mload(0x40)\n      swap1\n      dup2\n      add\n      0x40\n      mstore\n      dup1\n      swap3\n      swap2\n      swap1\n      dup2\n      dup2\n      mstore\n      0x20\n      add\n      dup3\n      dup1\n      sload\n      tag_90\n      swap1\n      tag_89\n      jump\t// in\n    tag_90:\n      dup1\n      iszero\n      tag_91\n      jumpi\n      dup1\n      0x1f\n      lt\n      tag_92\n      jumpi\n      0x0100\n      dup1\n      dup4\n      sload\n      div\n      mul\n      dup4\n      mstore\n      swap2\n      0x20\n      add\n      swap2\n      jump(tag_91)\n    tag_92:\n      dup3\n      add\n      swap2\n      swap1\n      0x00\n      mstore\n      keccak256(0x00, 0x20)\n      swap1\n    tag_93:\n      dup2\n      sload\n      dup2\n      mstore\n      swap1\n      0x01\n      add\n      swap1\n      0x20\n      add\n      dup1\n      dup4\n      gt\n      tag_93\n      jumpi\n      dup3\n      swap1\n      sub\n      0x1f\n      and\n      dup3\n      add\n      swap2\n    tag_91:\n      pop\n      pop\n      pop\n      pop\n      pop\n      swap1\n      dup1\n      0x01\n      add\n      sload\n      swap1\n      dup1\n      0x02\n      add\n      0x00\n      swap1\n      sload\n      swap1\n      0x0100\n      exp\n      swap1\n      div\n      0xffffffffffffffffffffffffffffffffffffffff\n      and\n      swap1\n      dup1\n      0x02\n      add\n      0x14\n      swap1\n      sload\n      swap1\n      0x0100\n      exp\n      swap1\n      div\n      0xff\n      and\n      swap1\n      dup1\n      0x03\n      add\n      sload\n      swap1\n      pop\n      dup6\n      jump\t// out\n        /* \"Campaign.sol\":761:790  uint256 public approversCount */\n    tag_52:\n      sload(0x02)\n      dup2\n      jump\t// out\n        /* \"Campaign.sol\":1369:1817  function createRequest(... */\n    tag_58:\n        /* \"Campaign.sol\":1024:1031  manager */\n      0x04\n      0x00\n      swap1\n      sload\n      swap1\n      0x0100\n      exp\n      swap1\n      div\n      0xffffffffffffffffffffffffffffffffffffffff\n      and\n        /* \"Campaign.sol\":1010:1031  msg.sender == manager */\n      0xffffffffffffffffffffffffffffffffffffffff\n      and\n        /* \"Campaign.sol\":1010:1020  msg.sender */\n      caller\n        /* \"Campaign.sol\":1010:1031  msg.sender == manager */\n      0xffffffffffffffffffffffffffffffffffffffff\n      and\n      eq\n        /* \"Campaign.sol\":1002:1032  require(msg.sender == manager) */\n      tag_95\n      jumpi\n      0x00\n      dup1\n      revert\n    tag_95:\n        /* \"Campaign.sol\":1524:1550  Request storage newRequest */\n      0x00\n        /* \"Campaign.sol\":1553:1561  requests */\n      0x05\n        /* \"Campaign.sol\":1553:1577  requests[_numRequests++] */\n      0x00\n        /* \"Campaign.sol\":1562:1574  _numRequests */\n      dup1\n      0x00\n        /* \"Campaign.sol\":1562:1576  _numRequests++ */\n      dup2\n      sload\n      dup1\n      swap3\n      swap2\n      swap1\n      tag_97\n      swap1\n      tag_98\n      jump\t// in\n    tag_97:\n      swap2\n      swap1\n      pop\n      sstore\n        /* \"Campaign.sol\":1553:1577  requests[_numRequests++] */\n      dup2\n      mstore\n      0x20\n      add\n      swap1\n      dup2\n      mstore\n      0x20\n      add\n      0x00\n      keccak256\n        /* \"Campaign.sol\":1524:1577  Request storage newRequest = requests[_numRequests++] */\n      swap1\n      pop\n        /* \"Campaign.sol\":1615:1626  description */\n      dup4\n        /* \"Campaign.sol\":1590:1600  newRequest */\n      dup2\n        /* \"Campaign.sol\":1590:1612  newRequest.description */\n      0x00\n      add\n        /* \"Campaign.sol\":1590:1626  newRequest.description = description */\n      swap1\n      dup2\n      tag_99\n      swap2\n      swap1\n      tag_100\n      jump\t// in\n    tag_99:\n      pop\n        /* \"Campaign.sol\":1656:1661  value */\n      dup3\n        /* \"Campaign.sol\":1637:1647  newRequest */\n      dup2\n        /* \"Campaign.sol\":1637:1653  newRequest.value */\n      0x01\n      add\n        /* \"Campaign.sol\":1637:1661  newRequest.value = value */\n      dup2\n      swap1\n      sstore\n      pop\n        /* \"Campaign.sol\":1695:1704  recipient */\n      dup2\n        /* \"Campaign.sol\":1672:1682  newRequest */\n      dup2\n        /* \"Campaign.sol\":1672:1692  newRequest.recipient */\n      0x02\n      add\n      0x00\n        /* \"Campaign.sol\":1672:1704  newRequest.recipient = recipient */\n      0x0100\n      exp\n      dup2\n      sload\n      dup2\n      0xffffffffffffffffffffffffffffffffffffffff\n      mul\n      not\n      and\n      swap1\n      dup4\n      0xffffffffffffffffffffffffffffffffffffffff\n      and\n      mul\n      or\n      swap1\n      sstore\n      pop\n        /* \"Campaign.sol\":1737:1742  false */\n      0x00\n        /* \"Campaign.sol\":1715:1725  newRequest */\n      dup2\n        /* \"Campaign.sol\":1715:1734  newRequest.complete */\n      0x02\n      add\n      0x14\n        /* \"Campaign.sol\":1715:1742  newRequest.complete = false */\n      0x0100\n      exp\n      dup2\n      sload\n      dup2\n      0xff\n      mul\n      not\n      and\n      swap1\n      dup4\n      iszero\n      iszero\n      mul\n      or\n      swap1\n      sstore\n      pop\n        /* \"Campaign.sol\":1780:1781  0 */\n      0x00\n        /* \"Campaign.sol\":1753:1763  newRequest */\n      dup2\n        /* \"Campaign.sol\":1753:1777  newRequest.approvalCount */\n      0x03\n      add\n        /* \"Campaign.sol\":1753:1781  newRequest.approvalCount = 0 */\n      dup2\n      swap1\n      sstore\n      pop\n        /* \"Campaign.sol\":1794:1807  requestsCount */\n      0x03\n      0x00\n        /* \"Campaign.sol\":1794:1809  requestsCount++ */\n      dup2\n      sload\n      dup1\n      swap3\n      swap2\n      swap1\n      tag_101\n      swap1\n      tag_98\n      jump\t// in\n    tag_101:\n      swap2\n      swap1\n      pop\n      sstore\n      pop\n        /* \"Campaign.sol\":1513:1817  {... */\n      pop\n        /* \"Campaign.sol\":1369:1817  function createRequest(... */\n      pop\n      pop\n      pop\n      jump\t// out\n        /* \"Campaign.sol\":720:754  uint256 public minimumContribution */\n    tag_61:\n      sload(0x01)\n      dup2\n      jump\t// out\n        /* \"Campaign.sol\":2923:3022  function getApproversCount() public view returns (uint256) {... */\n    tag_65:\n        /* \"Campaign.sol\":2973:2980  uint256 */\n      0x00\n        /* \"Campaign.sol\":3000:3014  approversCount */\n      sload(0x02)\n        /* \"Campaign.sol\":2993:3014  return approversCount */\n      swap1\n      pop\n        /* \"Campaign.sol\":2923:3022  function getApproversCount() public view returns (uint256) {... */\n      swap1\n      jump\t// out\n        /* \"Campaign.sol\":1199:1361  function contribute() public payable {... */\n    tag_68:\n        /* \"Campaign.sol\":1267:1286  minimumContribution */\n      sload(0x01)\n        /* \"Campaign.sol\":1255:1264  msg.value */\n      callvalue\n        /* \"Campaign.sol\":1255:1286  msg.value > minimumContribution */\n      gt\n        /* \"Campaign.sol\":1247:1287  require(msg.value > minimumContribution) */\n      tag_104\n      jumpi\n      0x00\n      dup1\n      revert\n    tag_104:\n        /* \"Campaign.sol\":1322:1326  true */\n      0x01\n        /* \"Campaign.sol\":1298:1307  approvers */\n      0x06\n        /* \"Campaign.sol\":1298:1319  approvers[msg.sender] */\n      0x00\n        /* \"Campaign.sol\":1308:1318  msg.sender */\n      caller\n        /* \"Campaign.sol\":1298:1319  approvers[msg.sender] */\n      0xffffffffffffffffffffffffffffffffffffffff\n      and\n      0xffffffffffffffffffffffffffffffffffffffff\n      and\n      dup2\n      mstore\n      0x20\n      add\n      swap1\n      dup2\n      mstore\n      0x20\n      add\n      0x00\n      keccak256\n      0x00\n        /* \"Campaign.sol\":1298:1326  approvers[msg.sender] = true */\n      0x0100\n      exp\n      dup2\n      sload\n      dup2\n      0xff\n      mul\n      not\n      and\n      swap1\n      dup4\n      iszero\n      iszero\n      mul\n      or\n      swap1\n      sstore\n      pop\n        /* \"Campaign.sol\":1337:1351  approversCount */\n      0x02\n      0x00\n        /* \"Campaign.sol\":1337:1353  approversCount++ */\n      dup2\n      sload\n      dup1\n      swap3\n      swap2\n      swap1\n      tag_105\n      swap1\n      tag_98\n      jump\t// in\n    tag_105:\n      swap2\n      swap1\n      pop\n      sstore\n      pop\n        /* \"Campaign.sol\":1199:1361  function contribute() public payable {... */\n      jump\t// out\n        /* \"Campaign.sol\":1825:2105  function approveRequest(uint256 index) public {... */\n    tag_72:\n        /* \"Campaign.sol\":1882:1905  Request storage request */\n      0x00\n        /* \"Campaign.sol\":1908:1916  requests */\n      0x05\n        /* \"Campaign.sol\":1908:1923  requests[index] */\n      0x00\n        /* \"Campaign.sol\":1917:1922  index */\n      dup4\n        /* \"Campaign.sol\":1908:1923  requests[index] */\n      dup2\n      mstore\n      0x20\n      add\n      swap1\n      dup2\n      mstore\n      0x20\n      add\n      0x00\n      keccak256\n        /* \"Campaign.sol\":1882:1923  Request storage request = requests[index] */\n      swap1\n      pop\n        /* \"Campaign.sol\":1942:1951  approvers */\n      0x06\n        /* \"Campaign.sol\":1942:1963  approvers[msg.sender] */\n      0x00\n        /* \"Campaign.sol\":1952:1962  msg.sender */\n      caller\n        /* \"Campaign.sol\":1942:1963  approvers[msg.sender] */\n      0xffffffffffffffffffffffffffffffffffffffff\n      and\n      0xffffffffffffffffffffffffffffffffffffffff\n      and\n      dup2\n      mstore\n      0x20\n      add\n      swap1\n      dup2\n      mstore\n      0x20\n      add\n      0x00\n      keccak256\n      0x00\n      swap1\n      sload\n      swap1\n      0x0100\n      exp\n      swap1\n      div\n      0xff\n      and\n        /* \"Campaign.sol\":1934:1964  require(approvers[msg.sender]) */\n      tag_107\n      jumpi\n      0x00\n      dup1\n      revert\n    tag_107:\n        /* \"Campaign.sol\":1984:1991  request */\n      dup1\n        /* \"Campaign.sol\":1984:2001  request.approvals */\n      0x04\n      add\n        /* \"Campaign.sol\":1984:2013  request.approvals[msg.sender] */\n      0x00\n        /* \"Campaign.sol\":2002:2012  msg.sender */\n      caller\n        /* \"Campaign.sol\":1984:2013  request.approvals[msg.sender] */\n      0xffffffffffffffffffffffffffffffffffffffff\n      and\n      0xffffffffffffffffffffffffffffffffffffffff\n      and\n      dup2\n      mstore\n      0x20\n      add\n      swap1\n      dup2\n      mstore\n      0x20\n      add\n      0x00\n      keccak256\n      0x00\n      swap1\n      sload\n      swap1\n      0x0100\n      exp\n      swap1\n      div\n      0xff\n      and\n        /* \"Campaign.sol\":1983:2013  !request.approvals[msg.sender] */\n      iszero\n        /* \"Campaign.sol\":1975:2014  require(!request.approvals[msg.sender]) */\n      tag_108\n      jumpi\n      0x00\n      dup1\n      revert\n    tag_108:\n        /* \"Campaign.sol\":2059:2063  true */\n      0x01\n        /* \"Campaign.sol\":2027:2034  request */\n      dup2\n        /* \"Campaign.sol\":2027:2044  request.approvals */\n      0x04\n      add\n        /* \"Campaign.sol\":2027:2056  request.approvals[msg.sender] */\n      0x00\n        /* \"Campaign.sol\":2045:2055  msg.sender */\n      caller\n        /* \"Campaign.sol\":2027:2056  request.approvals[msg.sender] */\n      0xffffffffffffffffffffffffffffffffffffffff\n      and\n      0xffffffffffffffffffffffffffffffffffffffff\n      and\n      dup2\n      mstore\n      0x20\n      add\n      swap1\n      dup2\n      mstore\n      0x20\n      add\n      0x00\n      keccak256\n      0x00\n        /* \"Campaign.sol\":2027:2063  request.approvals[msg.sender] = true */\n      0x0100\n      exp\n      dup2\n      sload\n      dup2\n      0xff\n      mul\n      not\n      and\n      swap1\n      dup4\n      iszero\n      iszero\n      mul\n      or\n      swap1\n      sstore\n      pop\n        /* \"Campaign.sol\":2074:2081  request */\n      dup1\n        /* \"Campaign.sol\":2074:2095  request.approvalCount */\n      0x03\n      add\n      0x00\n        /* \"Campaign.sol\":2074:2097  request.approvalCount++ */\n      dup2\n      sload\n      dup1\n      swap3\n      swap2\n      swap1\n      tag_109\n      swap1\n      tag_98\n      jump\t// in\n    tag_109:\n      swap2\n      swap1\n      pop\n      sstore\n      pop\n        /* \"Campaign.sol\":1871:2105  {... */\n      pop\n        /* \"Campaign.sol\":1825:2105  function approveRequest(uint256 index) public {... */\n      pop\n      jump\t// out\n        /* \"Campaign.sol\":797:825  uint256 public requestsCount */\n    tag_75:\n      sload(0x03)\n      dup2\n      jump\t// out\n        /* \"#utility.yul\":7:82   */\n    tag_110:\n        /* \"#utility.yul\":40:46   */\n      0x00\n        /* \"#utility.yul\":73:75   */\n      0x40\n        /* \"#utility.yul\":67:76   */\n      mload\n        /* \"#utility.yul\":57:76   */\n      swap1\n      pop\n        /* \"#utility.yul\":7:82   */\n      swap1\n      jump\t// out\n        /* \"#utility.yul\":88:205   */\n    tag_111:\n        /* \"#utility.yul\":197:198   */\n      0x00\n        /* \"#utility.yul\":194:195   */\n      dup1\n        /* \"#utility.yul\":187:199   */\n      revert\n        /* \"#utility.yul\":211:328   */\n    tag_112:\n        /* \"#utility.yul\":320:321   */\n      0x00\n        /* \"#utility.yul\":317:318   */\n      dup1\n        /* \"#utility.yul\":310:322   */\n      revert\n        /* \"#utility.yul\":334:411   */\n    tag_113:\n        /* \"#utility.yul\":371:378   */\n      0x00\n        /* \"#utility.yul\":400:405   */\n      dup2\n        /* \"#utility.yul\":389:405   */\n      swap1\n      pop\n        /* \"#utility.yul\":334:411   */\n      swap2\n      swap1\n      pop\n      jump\t// out\n        /* \"#utility.yul\":417:539   */\n    tag_114:\n        /* \"#utility.yul\":490:514   */\n      tag_166\n        /* \"#utility.yul\":508:513   */\n      dup2\n        /* \"#utility.yul\":490:514   */\n      tag_113\n      jump\t// in\n    tag_166:\n        /* \"#utility.yul\":483:488   */\n      dup2\n        /* \"#utility.yul\":480:515   */\n      eq\n        /* \"#utility.yul\":470:533   */\n      tag_167\n      jumpi\n        /* \"#utility.yul\":529:530   */\n      0x00\n        /* \"#utility.yul\":526:527   */\n      dup1\n        /* \"#utility.yul\":519:531   */\n      revert\n        /* \"#utility.yul\":470:533   */\n    tag_167:\n        /* \"#utility.yul\":417:539   */\n      pop\n      jump\t// out\n        /* \"#utility.yul\":545:684   */\n    tag_115:\n        /* \"#utility.yul\":591:596   */\n      0x00\n        /* \"#utility.yul\":629:635   */\n      dup2\n        /* \"#utility.yul\":616:636   */\n      calldataload\n        /* \"#utility.yul\":607:636   */\n      swap1\n      pop\n        /* \"#utility.yul\":645:678   */\n      tag_169\n        /* \"#utility.yul\":672:677   */\n      dup2\n        /* \"#utility.yul\":645:678   */\n      tag_114\n      jump\t// in\n    tag_169:\n        /* \"#utility.yul\":545:684   */\n      swap3\n      swap2\n      pop\n      pop\n      jump\t// out\n        /* \"#utility.yul\":690:1019   */\n    tag_20:\n        /* \"#utility.yul\":749:755   */\n      0x00\n        /* \"#utility.yul\":798:800   */\n      0x20\n        /* \"#utility.yul\":786:795   */\n      dup3\n        /* \"#utility.yul\":777:784   */\n      dup5\n        /* \"#utility.yul\":773:796   */\n      sub\n        /* \"#utility.yul\":769:801   */\n      slt\n        /* \"#utility.yul\":766:885   */\n      iszero\n      tag_171\n      jumpi\n        /* \"#utility.yul\":804:883   */\n      tag_172\n      tag_111\n      jump\t// in\n    tag_172:\n        /* \"#utility.yul\":766:885   */\n    tag_171:\n        /* \"#utility.yul\":924:925   */\n      0x00\n        /* \"#utility.yul\":949:1002   */\n      tag_173\n        /* \"#utility.yul\":994:1001   */\n      dup5\n        /* \"#utility.yul\":985:991   */\n      dup3\n        /* \"#utility.yul\":974:983   */\n      dup6\n        /* \"#utility.yul\":970:992   */\n      add\n        /* \"#utility.yul\":949:1002   */\n      tag_115\n      jump\t// in\n    tag_173:\n        /* \"#utility.yul\":939:1002   */\n      swap2\n      pop\n        /* \"#utility.yul\":895:1012   */\n      pop\n        /* \"#utility.yul\":690:1019   */\n      swap3\n      swap2\n      pop\n      pop\n      jump\t// out\n        /* \"#utility.yul\":1025:1151   */\n    tag_116:\n        /* \"#utility.yul\":1062:1069   */\n      0x00\n        /* \"#utility.yul\":1102:1144   */\n      0xffffffffffffffffffffffffffffffffffffffff\n        /* \"#utility.yul\":1095:1100   */\n      dup3\n        /* \"#utility.yul\":1091:1145   */\n      and\n        /* \"#utility.yul\":1080:1145   */\n      swap1\n      pop\n        /* \"#utility.yul\":1025:1151   */\n      swap2\n      swap1\n      pop\n      jump\t// out\n        /* \"#utility.yul\":1157:1253   */\n    tag_117:\n        /* \"#utility.yul\":1194:1201   */\n      0x00\n        /* \"#utility.yul\":1223:1247   */\n      tag_176\n        /* \"#utility.yul\":1241:1246   */\n      dup3\n        /* \"#utility.yul\":1223:1247   */\n      tag_116\n      jump\t// in\n    tag_176:\n        /* \"#utility.yul\":1212:1247   */\n      swap1\n      pop\n        /* \"#utility.yul\":1157:1253   */\n      swap2\n      swap1\n      pop\n      jump\t// out\n        /* \"#utility.yul\":1259:1381   */\n    tag_118:\n        /* \"#utility.yul\":1332:1356   */\n      tag_178\n        /* \"#utility.yul\":1350:1355   */\n      dup2\n        /* \"#utility.yul\":1332:1356   */\n      tag_117\n      jump\t// in\n    tag_178:\n        /* \"#utility.yul\":1325:1330   */\n      dup2\n        /* \"#utility.yul\":1322:1357   */\n      eq\n        /* \"#utility.yul\":1312:1375   */\n      tag_179\n      jumpi\n        /* \"#utility.yul\":1371:1372   */\n      0x00\n        /* \"#utility.yul\":1368:1369   */\n      dup1\n        /* \"#utility.yul\":1361:1373   */\n      revert\n        /* \"#utility.yul\":1312:1375   */\n    tag_179:\n        /* \"#utility.yul\":1259:1381   */\n      pop\n      jump\t// out\n        /* \"#utility.yul\":1387:1526   */\n    tag_119:\n        /* \"#utility.yul\":1433:1438   */\n      0x00\n        /* \"#utility.yul\":1471:1477   */\n      dup2\n        /* \"#utility.yul\":1458:1478   */\n      calldataload\n        /* \"#utility.yul\":1449:1478   */\n      swap1\n      pop\n        /* \"#utility.yul\":1487:1520   */\n      tag_181\n        /* \"#utility.yul\":1514:1519   */\n      dup2\n        /* \"#utility.yul\":1487:1520   */\n      tag_118\n      jump\t// in\n    tag_181:\n        /* \"#utility.yul\":1387:1526   */\n      swap3\n      swap2\n      pop\n      pop\n      jump\t// out\n        /* \"#utility.yul\":1532:1861   */\n    tag_25:\n        /* \"#utility.yul\":1591:1597   */\n      0x00\n        /* \"#utility.yul\":1640:1642   */\n      0x20\n        /* \"#utility.yul\":1628:1637   */\n      dup3\n        /* \"#utility.yul\":1619:1626   */\n      dup5\n        /* \"#utility.yul\":1615:1638   */\n      sub\n        /* \"#utility.yul\":1611:1643   */\n      slt\n        /* \"#utility.yul\":1608:1727   */\n      iszero\n      tag_183\n      jumpi\n        /* \"#utility.yul\":1646:1725   */\n      tag_184\n      tag_111\n      jump\t// in\n    tag_184:\n        /* \"#utility.yul\":1608:1727   */\n    tag_183:\n        /* \"#utility.yul\":1766:1767   */\n      0x00\n        /* \"#utility.yul\":1791:1844   */\n      tag_185\n        /* \"#utility.yul\":1836:1843   */\n      dup5\n        /* \"#utility.yul\":1827:1833   */\n      dup3\n        /* \"#utility.yul\":1816:1825   */\n      dup6\n        /* \"#utility.yul\":1812:1834   */\n      add\n        /* \"#utility.yul\":1791:1844   */\n      tag_119\n      jump\t// in\n    tag_185:\n        /* \"#utility.yul\":1781:1844   */\n      swap2\n      pop\n        /* \"#utility.yul\":1737:1854   */\n      pop\n        /* \"#utility.yul\":1532:1861   */\n      swap3\n      swap2\n      pop\n      pop\n      jump\t// out\n        /* \"#utility.yul\":1867:1957   */\n    tag_120:\n        /* \"#utility.yul\":1901:1908   */\n      0x00\n        /* \"#utility.yul\":1944:1949   */\n      dup2\n        /* \"#utility.yul\":1937:1950   */\n      iszero\n        /* \"#utility.yul\":1930:1951   */\n      iszero\n        /* \"#utility.yul\":1919:1951   */\n      swap1\n      pop\n        /* \"#utility.yul\":1867:1957   */\n      swap2\n      swap1\n      pop\n      jump\t// out\n        /* \"#utility.yul\":1963:2072   */\n    tag_121:\n        /* \"#utility.yul\":2044:2065   */\n      tag_188\n        /* \"#utility.yul\":2059:2064   */\n      dup2\n        /* \"#utility.yul\":2044:2065   */\n      tag_120\n      jump\t// in\n    tag_188:\n        /* \"#utility.yul\":2039:2042   */\n      dup3\n        /* \"#utility.yul\":2032:2066   */\n      mstore\n        /* \"#utility.yul\":1963:2072   */\n      pop\n      pop\n      jump\t// out\n        /* \"#utility.yul\":2078:2288   */\n    tag_28:\n        /* \"#utility.yul\":2165:2169   */\n      0x00\n        /* \"#utility.yul\":2203:2205   */\n      0x20\n        /* \"#utility.yul\":2192:2201   */\n      dup3\n        /* \"#utility.yul\":2188:2206   */\n      add\n        /* \"#utility.yul\":2180:2206   */\n      swap1\n      pop\n        /* \"#utility.yul\":2216:2281   */\n      tag_190\n        /* \"#utility.yul\":2278:2279   */\n      0x00\n        /* \"#utility.yul\":2267:2276   */\n      dup4\n        /* \"#utility.yul\":2263:2280   */\n      add\n        /* \"#utility.yul\":2254:2260   */\n      dup5\n        /* \"#utility.yul\":2216:2281   */\n      tag_121\n      jump\t// in\n    tag_190:\n        /* \"#utility.yul\":2078:2288   */\n      swap3\n      swap2\n      pop\n      pop\n      jump\t// out\n        /* \"#utility.yul\":2294:2412   */\n    tag_122:\n        /* \"#utility.yul\":2381:2405   */\n      tag_192\n        /* \"#utility.yul\":2399:2404   */\n      dup2\n        /* \"#utility.yul\":2381:2405   */\n      tag_113\n      jump\t// in\n    tag_192:\n        /* \"#utility.yul\":2376:2379   */\n      dup3\n        /* \"#utility.yul\":2369:2406   */\n      mstore\n        /* \"#utility.yul\":2294:2412   */\n      pop\n      pop\n      jump\t// out\n        /* \"#utility.yul\":2418:2640   */\n    tag_33:\n        /* \"#utility.yul\":2511:2515   */\n      0x00\n        /* \"#utility.yul\":2549:2551   */\n      0x20\n        /* \"#utility.yul\":2538:2547   */\n      dup3\n        /* \"#utility.yul\":2534:2552   */\n      add\n        /* \"#utility.yul\":2526:2552   */\n      swap1\n      pop\n        /* \"#utility.yul\":2562:2633   */\n      tag_194\n        /* \"#utility.yul\":2630:2631   */\n      0x00\n        /* \"#utility.yul\":2619:2628   */\n      dup4\n        /* \"#utility.yul\":2615:2632   */\n      add\n        /* \"#utility.yul\":2606:2612   */\n      dup5\n        /* \"#utility.yul\":2562:2633   */\n      tag_122\n      jump\t// in\n    tag_194:\n        /* \"#utility.yul\":2418:2640   */\n      swap3\n      swap2\n      pop\n      pop\n      jump\t// out\n        /* \"#utility.yul\":2646:2764   */\n    tag_123:\n        /* \"#utility.yul\":2733:2757   */\n      tag_196\n        /* \"#utility.yul\":2751:2756   */\n      dup2\n        /* \"#utility.yul\":2733:2757   */\n      tag_117\n      jump\t// in\n    tag_196:\n        /* \"#utility.yul\":2728:2731   */\n      dup3\n        /* \"#utility.yul\":2721:2758   */\n      mstore\n        /* \"#utility.yul\":2646:2764   */\n      pop\n      pop\n      jump\t// out\n        /* \"#utility.yul\":2770:3434   */\n    tag_38:\n        /* \"#utility.yul\":2975:2979   */\n      0x00\n        /* \"#utility.yul\":3013:3016   */\n      0xa0\n        /* \"#utility.yul\":3002:3011   */\n      dup3\n        /* \"#utility.yul\":2998:3017   */\n      add\n        /* \"#utility.yul\":2990:3017   */\n      swap1\n      pop\n        /* \"#utility.yul\":3027:3098   */\n      tag_198\n        /* \"#utility.yul\":3095:3096   */\n      0x00\n        /* \"#utility.yul\":3084:3093   */\n      dup4\n        /* \"#utility.yul\":3080:3097   */\n      add\n        /* \"#utility.yul\":3071:3077   */\n      dup9\n        /* \"#utility.yul\":3027:3098   */\n      tag_122\n      jump\t// in\n    tag_198:\n        /* \"#utility.yul\":3108:3180   */\n      tag_199\n        /* \"#utility.yul\":3176:3178   */\n      0x20\n        /* \"#utility.yul\":3165:3174   */\n      dup4\n        /* \"#utility.yul\":3161:3179   */\n      add\n        /* \"#utility.yul\":3152:3158   */\n      dup8\n        /* \"#utility.yul\":3108:3180   */\n      tag_122\n      jump\t// in\n    tag_199:\n        /* \"#utility.yul\":3190:3262   */\n      tag_200\n        /* \"#utility.yul\":3258:3260   */\n      0x40\n        /* \"#utility.yul\":3247:3256   */\n      dup4\n        /* \"#utility.yul\":3243:3261   */\n      add\n        /* \"#utility.yul\":3234:3240   */\n      dup7\n        /* \"#utility.yul\":3190:3262   */\n      tag_122\n      jump\t// in\n    tag_200:\n        /* \"#utility.yul\":3272:3344   */\n      tag_201\n        /* \"#utility.yul\":3340:3342   */\n      0x60\n        /* \"#utility.yul\":3329:3338   */\n      dup4\n        /* \"#utility.yul\":3325:3343   */\n      add\n        /* \"#utility.yul\":3316:3322   */\n      dup6\n        /* \"#utility.yul\":3272:3344   */\n      tag_122\n      jump\t// in\n    tag_201:\n        /* \"#utility.yul\":3354:3427   */\n      tag_202\n        /* \"#utility.yul\":3422:3425   */\n      0x80\n        /* \"#utility.yul\":3411:3420   */\n      dup4\n        /* \"#utility.yul\":3407:3426   */\n      add\n        /* \"#utility.yul\":3398:3404   */\n      dup5\n        /* \"#utility.yul\":3354:3427   */\n      tag_123\n      jump\t// in\n    tag_202:\n        /* \"#utility.yul\":2770:3434   */\n      swap7\n      swap6\n      pop\n      pop\n      pop\n      pop\n      pop\n      pop\n      jump\t// out\n        /* \"#utility.yul\":3440:3544   */\n    tag_124:\n        /* \"#utility.yul\":3485:3492   */\n      0x00\n        /* \"#utility.yul\":3514:3538   */\n      tag_204\n        /* \"#utility.yul\":3532:3537   */\n      dup3\n        /* \"#utility.yul\":3514:3538   */\n      tag_116\n      jump\t// in\n    tag_204:\n        /* \"#utility.yul\":3503:3538   */\n      swap1\n      pop\n        /* \"#utility.yul\":3440:3544   */\n      swap2\n      swap1\n      pop\n      jump\t// out\n        /* \"#utility.yul\":3550:3692   */\n    tag_125:\n        /* \"#utility.yul\":3653:3685   */\n      tag_206\n        /* \"#utility.yul\":3679:3684   */\n      dup2\n        /* \"#utility.yul\":3653:3685   */\n      tag_124\n      jump\t// in\n    tag_206:\n        /* \"#utility.yul\":3648:3651   */\n      dup3\n        /* \"#utility.yul\":3641:3686   */\n      mstore\n        /* \"#utility.yul\":3550:3692   */\n      pop\n      pop\n      jump\t// out\n        /* \"#utility.yul\":3698:3952   */\n    tag_43:\n        /* \"#utility.yul\":3807:3811   */\n      0x00\n        /* \"#utility.yul\":3845:3847   */\n      0x20\n        /* \"#utility.yul\":3834:3843   */\n      dup3\n        /* \"#utility.yul\":3830:3848   */\n      add\n        /* \"#utility.yul\":3822:3848   */\n      swap1\n      pop\n        /* \"#utility.yul\":3858:3945   */\n      tag_208\n        /* \"#utility.yul\":3942:3943   */\n      0x00\n        /* \"#utility.yul\":3931:3940   */\n      dup4\n        /* \"#utility.yul\":3927:3944   */\n      add\n        /* \"#utility.yul\":3918:3924   */\n      dup5\n        /* \"#utility.yul\":3858:3945   */\n      tag_125\n      jump\t// in\n    tag_208:\n        /* \"#utility.yul\":3698:3952   */\n      swap3\n      swap2\n      pop\n      pop\n      jump\t// out\n        /* \"#utility.yul\":3958:4057   */\n    tag_126:\n        /* \"#utility.yul\":4010:4016   */\n      0x00\n        /* \"#utility.yul\":4044:4049   */\n      dup2\n        /* \"#utility.yul\":4038:4050   */\n      mload\n        /* \"#utility.yul\":4028:4050   */\n      swap1\n      pop\n        /* \"#utility.yul\":3958:4057   */\n      swap2\n      swap1\n      pop\n      jump\t// out\n        /* \"#utility.yul\":4063:4232   */\n    tag_127:\n        /* \"#utility.yul\":4147:4158   */\n      0x00\n        /* \"#utility.yul\":4181:4187   */\n      dup3\n        /* \"#utility.yul\":4176:4179   */\n      dup3\n        /* \"#utility.yul\":4169:4188   */\n      mstore\n        /* \"#utility.yul\":4221:4225   */\n      0x20\n        /* \"#utility.yul\":4216:4219   */\n      dup3\n        /* \"#utility.yul\":4212:4226   */\n      add\n        /* \"#utility.yul\":4197:4226   */\n      swap1\n      pop\n        /* \"#utility.yul\":4063:4232   */\n      swap3\n      swap2\n      pop\n      pop\n      jump\t// out\n        /* \"#utility.yul\":4238:4484   */\n    tag_128:\n        /* \"#utility.yul\":4319:4320   */\n      0x00\n        /* \"#utility.yul\":4329:4442   */\n    tag_212:\n        /* \"#utility.yul\":4343:4349   */\n      dup4\n        /* \"#utility.yul\":4340:4341   */\n      dup2\n        /* \"#utility.yul\":4337:4350   */\n      lt\n        /* \"#utility.yul\":4329:4442   */\n      iszero\n      tag_214\n      jumpi\n        /* \"#utility.yul\":4428:4429   */\n      dup1\n        /* \"#utility.yul\":4423:4426   */\n      dup3\n        /* \"#utility.yul\":4419:4430   */\n      add\n        /* \"#utility.yul\":4413:4431   */\n      mload\n        /* \"#utility.yul\":4409:4410   */\n      dup2\n        /* \"#utility.yul\":4404:4407   */\n      dup5\n        /* \"#utility.yul\":4400:4411   */\n      add\n        /* \"#utility.yul\":4393:4432   */\n      mstore\n        /* \"#utility.yul\":4365:4367   */\n      0x20\n        /* \"#utility.yul\":4362:4363   */\n      dup2\n        /* \"#utility.yul\":4358:4368   */\n      add\n        /* \"#utility.yul\":4353:4368   */\n      swap1\n      pop\n        /* \"#utility.yul\":4329:4442   */\n      jump(tag_212)\n    tag_214:\n        /* \"#utility.yul\":4476:4477   */\n      0x00\n        /* \"#utility.yul\":4467:4473   */\n      dup5\n        /* \"#utility.yul\":4462:4465   */\n      dup5\n        /* \"#utility.yul\":4458:4474   */\n      add\n        /* \"#utility.yul\":4451:4478   */\n      mstore\n        /* \"#utility.yul\":4300:4484   */\n      pop\n        /* \"#utility.yul\":4238:4484   */\n      pop\n      pop\n      pop\n      jump\t// out\n        /* \"#utility.yul\":4490:4592   */\n    tag_129:\n        /* \"#utility.yul\":4531:4537   */\n      0x00\n        /* \"#utility.yul\":4582:4584   */\n      0x1f\n        /* \"#utility.yul\":4578:4585   */\n      not\n        /* \"#utility.yul\":4573:4575   */\n      0x1f\n        /* \"#utility.yul\":4566:4571   */\n      dup4\n        /* \"#utility.yul\":4562:4576   */\n      add\n        /* \"#utility.yul\":4558:4586   */\n      and\n        /* \"#utility.yul\":4548:4586   */\n      swap1\n      pop\n        /* \"#utility.yul\":4490:4592   */\n      swap2\n      swap1\n      pop\n      jump\t// out\n        /* \"#utility.yul\":4598:4975   */\n    tag_130:\n        /* \"#utility.yul\":4686:4689   */\n      0x00\n        /* \"#utility.yul\":4714:4753   */\n      tag_217\n        /* \"#utility.yul\":4747:4752   */\n      dup3\n        /* \"#utility.yul\":4714:4753   */\n      tag_126\n      jump\t// in\n    tag_217:\n        /* \"#utility.yul\":4769:4840   */\n      tag_218\n        /* \"#utility.yul\":4833:4839   */\n      dup2\n        /* \"#utility.yul\":4828:4831   */\n      dup6\n        /* \"#utility.yul\":4769:4840   */\n      tag_127\n      jump\t// in\n    tag_218:\n        /* \"#utility.yul\":4762:4840   */\n      swap4\n      pop\n        /* \"#utility.yul\":4849:4914   */\n      tag_219\n        /* \"#utility.yul\":4907:4913   */\n      dup2\n        /* \"#utility.yul\":4902:4905   */\n      dup6\n        /* \"#utility.yul\":4895:4899   */\n      0x20\n        /* \"#utility.yul\":4888:4893   */\n      dup7\n        /* \"#utility.yul\":4884:4900   */\n      add\n        /* \"#utility.yul\":4849:4914   */\n      tag_128\n      jump\t// in\n    tag_219:\n        /* \"#utility.yul\":4939:4968   */\n      tag_220\n        /* \"#utility.yul\":4961:4967   */\n      dup2\n        /* \"#utility.yul\":4939:4968   */\n      tag_129\n      jump\t// in\n    tag_220:\n        /* \"#utility.yul\":4934:4937   */\n      dup5\n        /* \"#utility.yul\":4930:4969   */\n      add\n        /* \"#utility.yul\":4923:4969   */\n      swap2\n      pop\n        /* \"#utility.yul\":4690:4975   */\n      pop\n        /* \"#utility.yul\":4598:4975   */\n      swap3\n      swap2\n      pop\n      pop\n      jump\t// out\n        /* \"#utility.yul\":4981:5756   */\n    tag_49:\n        /* \"#utility.yul\":5216:5220   */\n      0x00\n        /* \"#utility.yul\":5254:5257   */\n      0xa0\n        /* \"#utility.yul\":5243:5252   */\n      dup3\n        /* \"#utility.yul\":5239:5258   */\n      add\n        /* \"#utility.yul\":5231:5258   */\n      swap1\n      pop\n        /* \"#utility.yul\":5304:5313   */\n      dup2\n        /* \"#utility.yul\":5298:5302   */\n      dup2\n        /* \"#utility.yul\":5294:5314   */\n      sub\n        /* \"#utility.yul\":5290:5291   */\n      0x00\n        /* \"#utility.yul\":5279:5288   */\n      dup4\n        /* \"#utility.yul\":5275:5292   */\n      add\n        /* \"#utility.yul\":5268:5315   */\n      mstore\n        /* \"#utility.yul\":5332:5410   */\n      tag_222\n        /* \"#utility.yul\":5405:5409   */\n      dup2\n        /* \"#utility.yul\":5396:5402   */\n      dup9\n        /* \"#utility.yul\":5332:5410   */\n      tag_130\n      jump\t// in\n    tag_222:\n        /* \"#utility.yul\":5324:5410   */\n      swap1\n      pop\n        /* \"#utility.yul\":5420:5492   */\n      tag_223\n        /* \"#utility.yul\":5488:5490   */\n      0x20\n        /* \"#utility.yul\":5477:5486   */\n      dup4\n        /* \"#utility.yul\":5473:5491   */\n      add\n        /* \"#utility.yul\":5464:5470   */\n      dup8\n        /* \"#utility.yul\":5420:5492   */\n      tag_122\n      jump\t// in\n    tag_223:\n        /* \"#utility.yul\":5502:5590   */\n      tag_224\n        /* \"#utility.yul\":5586:5588   */\n      0x40\n        /* \"#utility.yul\":5575:5584   */\n      dup4\n        /* \"#utility.yul\":5571:5589   */\n      add\n        /* \"#utility.yul\":5562:5568   */\n      dup7\n        /* \"#utility.yul\":5502:5590   */\n      tag_125\n      jump\t// in\n    tag_224:\n        /* \"#utility.yul\":5600:5666   */\n      tag_225\n        /* \"#utility.yul\":5662:5664   */\n      0x60\n        /* \"#utility.yul\":5651:5660   */\n      dup4\n        /* \"#utility.yul\":5647:5665   */\n      add\n        /* \"#utility.yul\":5638:5644   */\n      dup6\n        /* \"#utility.yul\":5600:5666   */\n      tag_121\n      jump\t// in\n    tag_225:\n        /* \"#utility.yul\":5676:5749   */\n      tag_226\n        /* \"#utility.yul\":5744:5747   */\n      0x80\n        /* \"#utility.yul\":5733:5742   */\n      dup4\n        /* \"#utility.yul\":5729:5748   */\n      add\n        /* \"#utility.yul\":5720:5726   */\n      dup5\n        /* \"#utility.yul\":5676:5749   */\n      tag_122\n      jump\t// in\n    tag_226:\n        /* \"#utility.yul\":4981:5756   */\n      swap7\n      swap6\n      pop\n      pop\n      pop\n      pop\n      pop\n      pop\n      jump\t// out\n        /* \"#utility.yul\":5762:5879   */\n    tag_131:\n        /* \"#utility.yul\":5871:5872   */\n      0x00\n        /* \"#utility.yul\":5868:5869   */\n      dup1\n        /* \"#utility.yul\":5861:5873   */\n      revert\n        /* \"#utility.yul\":5885:6002   */\n    tag_132:\n        /* \"#utility.yul\":5994:5995   */\n      0x00\n        /* \"#utility.yul\":5991:5992   */\n      dup1\n        /* \"#utility.yul\":5984:5996   */\n      revert\n        /* \"#utility.yul\":6008:6188   */\n    tag_133:\n        /* \"#utility.yul\":6056:6133   */\n      0x4e487b7100000000000000000000000000000000000000000000000000000000\n        /* \"#utility.yul\":6053:6054   */\n      0x00\n        /* \"#utility.yul\":6046:6134   */\n      mstore\n        /* \"#utility.yul\":6153:6157   */\n      0x41\n        /* \"#utility.yul\":6150:6151   */\n      0x04\n        /* \"#utility.yul\":6143:6158   */\n      mstore\n        /* \"#utility.yul\":6177:6181   */\n      0x24\n        /* \"#utility.yul\":6174:6175   */\n      0x00\n        /* \"#utility.yul\":6167:6182   */\n      revert\n        /* \"#utility.yul\":6194:6475   */\n    tag_134:\n        /* \"#utility.yul\":6277:6304   */\n      tag_231\n        /* \"#utility.yul\":6299:6303   */\n      dup3\n        /* \"#utility.yul\":6277:6304   */\n      tag_129\n      jump\t// in\n    tag_231:\n        /* \"#utility.yul\":6269:6275   */\n      dup2\n        /* \"#utility.yul\":6265:6305   */\n      add\n        /* \"#utility.yul\":6407:6413   */\n      dup2\n        /* \"#utility.yul\":6395:6405   */\n      dup2\n        /* \"#utility.yul\":6392:6414   */\n      lt\n        /* \"#utility.yul\":6371:6389   */\n      0xffffffffffffffff\n        /* \"#utility.yul\":6359:6369   */\n      dup3\n        /* \"#utility.yul\":6356:6390   */\n      gt\n        /* \"#utility.yul\":6353:6415   */\n      or\n        /* \"#utility.yul\":6350:6438   */\n      iszero\n      tag_232\n      jumpi\n        /* \"#utility.yul\":6418:6436   */\n      tag_233\n      tag_133\n      jump\t// in\n    tag_233:\n        /* \"#utility.yul\":6350:6438   */\n    tag_232:\n        /* \"#utility.yul\":6458:6468   */\n      dup1\n        /* \"#utility.yul\":6454:6456   */\n      0x40\n        /* \"#utility.yul\":6447:6469   */\n      mstore\n        /* \"#utility.yul\":6237:6475   */\n      pop\n        /* \"#utility.yul\":6194:6475   */\n      pop\n      pop\n      jump\t// out\n        /* \"#utility.yul\":6481:6610   */\n    tag_135:\n        /* \"#utility.yul\":6515:6521   */\n      0x00\n        /* \"#utility.yul\":6542:6562   */\n      tag_235\n      tag_110\n      jump\t// in\n    tag_235:\n        /* \"#utility.yul\":6532:6562   */\n      swap1\n      pop\n        /* \"#utility.yul\":6571:6604   */\n      tag_236\n        /* \"#utility.yul\":6599:6603   */\n      dup3\n        /* \"#utility.yul\":6591:6597   */\n      dup3\n        /* \"#utility.yul\":6571:6604   */\n      tag_134\n      jump\t// in\n    tag_236:\n        /* \"#utility.yul\":6481:6610   */\n      swap2\n      swap1\n      pop\n      jump\t// out\n        /* \"#utility.yul\":6616:6924   */\n    tag_136:\n        /* \"#utility.yul\":6678:6682   */\n      0x00\n        /* \"#utility.yul\":6768:6786   */\n      0xffffffffffffffff\n        /* \"#utility.yul\":6760:6766   */\n      dup3\n        /* \"#utility.yul\":6757:6787   */\n      gt\n        /* \"#utility.yul\":6754:6810   */\n      iszero\n      tag_238\n      jumpi\n        /* \"#utility.yul\":6790:6808   */\n      tag_239\n      tag_133\n      jump\t// in\n    tag_239:\n        /* \"#utility.yul\":6754:6810   */\n    tag_238:\n        /* \"#utility.yul\":6828:6857   */\n      tag_240\n        /* \"#utility.yul\":6850:6856   */\n      dup3\n        /* \"#utility.yul\":6828:6857   */\n      tag_129\n      jump\t// in\n    tag_240:\n        /* \"#utility.yul\":6820:6857   */\n      swap1\n      pop\n        /* \"#utility.yul\":6912:6916   */\n      0x20\n        /* \"#utility.yul\":6906:6910   */\n      dup2\n        /* \"#utility.yul\":6902:6917   */\n      add\n        /* \"#utility.yul\":6894:6917   */\n      swap1\n      pop\n        /* \"#utility.yul\":6616:6924   */\n      swap2\n      swap1\n      pop\n      jump\t// out\n        /* \"#utility.yul\":6930:7076   */\n    tag_137:\n        /* \"#utility.yul\":7027:7033   */\n      dup3\n        /* \"#utility.yul\":7022:7025   */\n      dup2\n        /* \"#utility.yul\":7017:7020   */\n      dup4\n        /* \"#utility.yul\":7004:7034   */\n      calldatacopy\n        /* \"#utility.yul\":7068:7069   */\n      0x00\n        /* \"#utility.yul\":7059:7065   */\n      dup4\n        /* \"#utility.yul\":7054:7057   */\n      dup4\n        /* \"#utility.yul\":7050:7066   */\n      add\n        /* \"#utility.yul\":7043:7070   */\n      mstore\n        /* \"#utility.yul\":6930:7076   */\n      pop\n      pop\n      pop\n      jump\t// out\n        /* \"#utility.yul\":7082:7507   */\n    tag_138:\n        /* \"#utility.yul\":7160:7165   */\n      0x00\n        /* \"#utility.yul\":7185:7251   */\n      tag_243\n        /* \"#utility.yul\":7201:7250   */\n      tag_244\n        /* \"#utility.yul\":7243:7249   */\n      dup5\n        /* \"#utility.yul\":7201:7250   */\n      tag_136\n      jump\t// in\n    tag_244:\n        /* \"#utility.yul\":7185:7251   */\n      tag_135\n      jump\t// in\n    tag_243:\n        /* \"#utility.yul\":7176:7251   */\n      swap1\n      pop\n        /* \"#utility.yul\":7274:7280   */\n      dup3\n        /* \"#utility.yul\":7267:7272   */\n      dup2\n        /* \"#utility.yul\":7260:7281   */\n      mstore\n        /* \"#utility.yul\":7312:7316   */\n      0x20\n        /* \"#utility.yul\":7305:7310   */\n      dup2\n        /* \"#utility.yul\":7301:7317   */\n      add\n        /* \"#utility.yul\":7350:7353   */\n      dup5\n        /* \"#utility.yul\":7341:7347   */\n      dup5\n        /* \"#utility.yul\":7336:7339   */\n      dup5\n        /* \"#utility.yul\":7332:7348   */\n      add\n        /* \"#utility.yul\":7329:7354   */\n      gt\n        /* \"#utility.yul\":7326:7438   */\n      iszero\n      tag_245\n      jumpi\n        /* \"#utility.yul\":7357:7436   */\n      tag_246\n      tag_132\n      jump\t// in\n    tag_246:\n        /* \"#utility.yul\":7326:7438   */\n    tag_245:\n        /* \"#utility.yul\":7447:7501   */\n      tag_247\n        /* \"#utility.yul\":7494:7500   */\n      dup5\n        /* \"#utility.yul\":7489:7492   */\n      dup3\n        /* \"#utility.yul\":7484:7487   */\n      dup6\n        /* \"#utility.yul\":7447:7501   */\n      tag_137\n      jump\t// in\n    tag_247:\n        /* \"#utility.yul\":7166:7507   */\n      pop\n        /* \"#utility.yul\":7082:7507   */\n      swap4\n      swap3\n      pop\n      pop\n      pop\n      jump\t// out\n        /* \"#utility.yul\":7527:7867   */\n    tag_139:\n        /* \"#utility.yul\":7583:7588   */\n      0x00\n        /* \"#utility.yul\":7632:7635   */\n      dup3\n        /* \"#utility.yul\":7625:7629   */\n      0x1f\n        /* \"#utility.yul\":7617:7623   */\n      dup4\n        /* \"#utility.yul\":7613:7630   */\n      add\n        /* \"#utility.yul\":7609:7636   */\n      slt\n        /* \"#utility.yul\":7599:7721   */\n      tag_249\n      jumpi\n        /* \"#utility.yul\":7640:7719   */\n      tag_250\n      tag_131\n      jump\t// in\n    tag_250:\n        /* \"#utility.yul\":7599:7721   */\n    tag_249:\n        /* \"#utility.yul\":7757:7763   */\n      dup2\n        /* \"#utility.yul\":7744:7764   */\n      calldataload\n        /* \"#utility.yul\":7782:7861   */\n      tag_251\n        /* \"#utility.yul\":7857:7860   */\n      dup5\n        /* \"#utility.yul\":7849:7855   */\n      dup3\n        /* \"#utility.yul\":7842:7846   */\n      0x20\n        /* \"#utility.yul\":7834:7840   */\n      dup7\n        /* \"#utility.yul\":7830:7847   */\n      add\n        /* \"#utility.yul\":7782:7861   */\n      tag_138\n      jump\t// in\n    tag_251:\n        /* \"#utility.yul\":7773:7861   */\n      swap2\n      pop\n        /* \"#utility.yul\":7589:7867   */\n      pop\n        /* \"#utility.yul\":7527:7867   */\n      swap3\n      swap2\n      pop\n      pop\n      jump\t// out\n        /* \"#utility.yul\":7873:8011   */\n    tag_140:\n        /* \"#utility.yul\":7954:7986   */\n      tag_253\n        /* \"#utility.yul\":7980:7985   */\n      dup2\n        /* \"#utility.yul\":7954:7986   */\n      tag_124\n      jump\t// in\n    tag_253:\n        /* \"#utility.yul\":7947:7952   */\n      dup2\n        /* \"#utility.yul\":7944:7987   */\n      eq\n        /* \"#utility.yul\":7934:8005   */\n      tag_254\n      jumpi\n        /* \"#utility.yul\":8001:8002   */\n      0x00\n        /* \"#utility.yul\":7998:7999   */\n      dup1\n        /* \"#utility.yul\":7991:8003   */\n      revert\n        /* \"#utility.yul\":7934:8005   */\n    tag_254:\n        /* \"#utility.yul\":7873:8011   */\n      pop\n      jump\t// out\n        /* \"#utility.yul\":8017:8172   */\n    tag_141:\n        /* \"#utility.yul\":8071:8076   */\n      0x00\n        /* \"#utility.yul\":8109:8115   */\n      dup2\n        /* \"#utility.yul\":8096:8116   */\n      calldataload\n        /* \"#utility.yul\":8087:8116   */\n      swap1\n      pop\n        /* \"#utility.yul\":8125:8166   */\n      tag_256\n        /* \"#utility.yul\":8160:8165   */\n      dup2\n        /* \"#utility.yul\":8125:8166   */\n      tag_140\n      jump\t// in\n    tag_256:\n        /* \"#utility.yul\":8017:8172   */\n      swap3\n      swap2\n      pop\n      pop\n      jump\t// out\n        /* \"#utility.yul\":8178:8993   */\n    tag_57:\n        /* \"#utility.yul\":8273:8279   */\n      0x00\n        /* \"#utility.yul\":8281:8287   */\n      dup1\n        /* \"#utility.yul\":8289:8295   */\n      0x00\n        /* \"#utility.yul\":8338:8340   */\n      0x60\n        /* \"#utility.yul\":8326:8335   */\n      dup5\n        /* \"#utility.yul\":8317:8324   */\n      dup7\n        /* \"#utility.yul\":8313:8336   */\n      sub\n        /* \"#utility.yul\":8309:8341   */\n      slt\n        /* \"#utility.yul\":8306:8425   */\n      iszero\n      tag_258\n      jumpi\n        /* \"#utility.yul\":8344:8423   */\n      tag_259\n      tag_111\n      jump\t// in\n    tag_259:\n        /* \"#utility.yul\":8306:8425   */\n    tag_258:\n        /* \"#utility.yul\":8492:8493   */\n      0x00\n        /* \"#utility.yul\":8481:8490   */\n      dup5\n        /* \"#utility.yul\":8477:8494   */\n      add\n        /* \"#utility.yul\":8464:8495   */\n      calldataload\n        /* \"#utility.yul\":8522:8540   */\n      0xffffffffffffffff\n        /* \"#utility.yul\":8514:8520   */\n      dup2\n        /* \"#utility.yul\":8511:8541   */\n      gt\n        /* \"#utility.yul\":8508:8625   */\n      iszero\n      tag_260\n      jumpi\n        /* \"#utility.yul\":8544:8623   */\n      tag_261\n      tag_112\n      jump\t// in\n    tag_261:\n        /* \"#utility.yul\":8508:8625   */\n    tag_260:\n        /* \"#utility.yul\":8649:8712   */\n      tag_262\n        /* \"#utility.yul\":8704:8711   */\n      dup7\n        /* \"#utility.yul\":8695:8701   */\n      dup3\n        /* \"#utility.yul\":8684:8693   */\n      dup8\n        /* \"#utility.yul\":8680:8702   */\n      add\n        /* \"#utility.yul\":8649:8712   */\n      tag_139\n      jump\t// in\n    tag_262:\n        /* \"#utility.yul\":8639:8712   */\n      swap4\n      pop\n        /* \"#utility.yul\":8435:8722   */\n      pop\n        /* \"#utility.yul\":8761:8763   */\n      0x20\n        /* \"#utility.yul\":8787:8840   */\n      tag_263\n        /* \"#utility.yul\":8832:8839   */\n      dup7\n        /* \"#utility.yul\":8823:8829   */\n      dup3\n        /* \"#utility.yul\":8812:8821   */\n      dup8\n        /* \"#utility.yul\":8808:8830   */\n      add\n        /* \"#utility.yul\":8787:8840   */\n      tag_115\n      jump\t// in\n    tag_263:\n        /* \"#utility.yul\":8777:8840   */\n      swap3\n      pop\n        /* \"#utility.yul\":8732:8850   */\n      pop\n        /* \"#utility.yul\":8889:8891   */\n      0x40\n        /* \"#utility.yul\":8915:8976   */\n      tag_264\n        /* \"#utility.yul\":8968:8975   */\n      dup7\n        /* \"#utility.yul\":8959:8965   */\n      dup3\n        /* \"#utility.yul\":8948:8957   */\n      dup8\n        /* \"#utility.yul\":8944:8966   */\n      add\n        /* \"#utility.yul\":8915:8976   */\n      tag_141\n      jump\t// in\n    tag_264:\n        /* \"#utility.yul\":8905:8976   */\n      swap2\n      pop\n        /* \"#utility.yul\":8860:8986   */\n      pop\n        /* \"#utility.yul\":8178:8993   */\n      swap3\n      pop\n      swap3\n      pop\n      swap3\n      jump\t// out\n        /* \"#utility.yul\":8999:9179   */\n    tag_142:\n        /* \"#utility.yul\":9047:9124   */\n      0x4e487b7100000000000000000000000000000000000000000000000000000000\n        /* \"#utility.yul\":9044:9045   */\n      0x00\n        /* \"#utility.yul\":9037:9125   */\n      mstore\n        /* \"#utility.yul\":9144:9148   */\n      0x12\n        /* \"#utility.yul\":9141:9142   */\n      0x04\n        /* \"#utility.yul\":9134:9149   */\n      mstore\n        /* \"#utility.yul\":9168:9172   */\n      0x24\n        /* \"#utility.yul\":9165:9166   */\n      0x00\n        /* \"#utility.yul\":9158:9173   */\n      revert\n        /* \"#utility.yul\":9185:9365   */\n    tag_143:\n        /* \"#utility.yul\":9233:9310   */\n      0x4e487b7100000000000000000000000000000000000000000000000000000000\n        /* \"#utility.yul\":9230:9231   */\n      0x00\n        /* \"#utility.yul\":9223:9311   */\n      mstore\n        /* \"#utility.yul\":9330:9334   */\n      0x11\n        /* \"#utility.yul\":9327:9328   */\n      0x04\n        /* \"#utility.yul\":9320:9335   */\n      mstore\n        /* \"#utility.yul\":9354:9358   */\n      0x24\n        /* \"#utility.yul\":9351:9352   */\n      0x00\n        /* \"#utility.yul\":9344:9359   */\n      revert\n        /* \"#utility.yul\":9371:9556   */\n    tag_81:\n        /* \"#utility.yul\":9411:9412   */\n      0x00\n        /* \"#utility.yul\":9428:9448   */\n      tag_268\n        /* \"#utility.yul\":9446:9447   */\n      dup3\n        /* \"#utility.yul\":9428:9448   */\n      tag_113\n      jump\t// in\n    tag_268:\n        /* \"#utility.yul\":9423:9448   */\n      swap2\n      pop\n        /* \"#utility.yul\":9462:9482   */\n      tag_269\n        /* \"#utility.yul\":9480:9481   */\n      dup4\n        /* \"#utility.yul\":9462:9482   */\n      tag_113\n      jump\t// in\n    tag_269:\n        /* \"#utility.yul\":9457:9482   */\n      swap3\n      pop\n        /* \"#utility.yul\":9501:9502   */\n      dup3\n        /* \"#utility.yul\":9491:9526   */\n      tag_270\n      jumpi\n        /* \"#utility.yul\":9506:9524   */\n      tag_271\n      tag_142\n      jump\t// in\n    tag_271:\n        /* \"#utility.yul\":9491:9526   */\n    tag_270:\n        /* \"#utility.yul\":9548:9549   */\n      dup3\n        /* \"#utility.yul\":9545:9546   */\n      dup3\n        /* \"#utility.yul\":9541:9550   */\n      div\n        /* \"#utility.yul\":9536:9550   */\n      swap1\n      pop\n        /* \"#utility.yul\":9371:9556   */\n      swap3\n      swap2\n      pop\n      pop\n      jump\t// out\n        /* \"#utility.yul\":9562:9742   */\n    tag_144:\n        /* \"#utility.yul\":9610:9687   */\n      0x4e487b7100000000000000000000000000000000000000000000000000000000\n        /* \"#utility.yul\":9607:9608   */\n      0x00\n        /* \"#utility.yul\":9600:9688   */\n      mstore\n        /* \"#utility.yul\":9707:9711   */\n      0x22\n        /* \"#utility.yul\":9704:9705   */\n      0x04\n        /* \"#utility.yul\":9697:9712   */\n      mstore\n        /* \"#utility.yul\":9731:9735   */\n      0x24\n        /* \"#utility.yul\":9728:9729   */\n      0x00\n        /* \"#utility.yul\":9721:9736   */\n      revert\n        /* \"#utility.yul\":9748:10068   */\n    tag_89:\n        /* \"#utility.yul\":9792:9798   */\n      0x00\n        /* \"#utility.yul\":9829:9830   */\n      0x02\n        /* \"#utility.yul\":9823:9827   */\n      dup3\n        /* \"#utility.yul\":9819:9831   */\n      div\n        /* \"#utility.yul\":9809:9831   */\n      swap1\n      pop\n        /* \"#utility.yul\":9876:9877   */\n      0x01\n        /* \"#utility.yul\":9870:9874   */\n      dup3\n        /* \"#utility.yul\":9866:9878   */\n      and\n        /* \"#utility.yul\":9897:9915   */\n      dup1\n        /* \"#utility.yul\":9887:9968   */\n      tag_274\n      jumpi\n        /* \"#utility.yul\":9953:9957   */\n      0x7f\n        /* \"#utility.yul\":9945:9951   */\n      dup3\n        /* \"#utility.yul\":9941:9958   */\n      and\n        /* \"#utility.yul\":9931:9958   */\n      swap2\n      pop\n        /* \"#utility.yul\":9887:9968   */\n    tag_274:\n        /* \"#utility.yul\":10015:10017   */\n      0x20\n        /* \"#utility.yul\":10007:10013   */\n      dup3\n        /* \"#utility.yul\":10004:10018   */\n      lt\n        /* \"#utility.yul\":9984:10002   */\n      dup2\n        /* \"#utility.yul\":9981:10019   */\n      sub\n        /* \"#utility.yul\":9978:10062   */\n      tag_275\n      jumpi\n        /* \"#utility.yul\":10034:10052   */\n      tag_276\n      tag_144\n      jump\t// in\n    tag_276:\n        /* \"#utility.yul\":9978:10062   */\n    tag_275:\n        /* \"#utility.yul\":9799:10068   */\n      pop\n        /* \"#utility.yul\":9748:10068   */\n      swap2\n      swap1\n      pop\n      jump\t// out\n        /* \"#utility.yul\":10074:10307   */\n    tag_98:\n        /* \"#utility.yul\":10113:10116   */\n      0x00\n        /* \"#utility.yul\":10136:10160   */\n      tag_278\n        /* \"#utility.yul\":10154:10159   */\n      dup3\n        /* \"#utility.yul\":10136:10160   */\n      tag_113\n      jump\t// in\n    tag_278:\n        /* \"#utility.yul\":10127:10160   */\n      swap2\n      pop\n        /* \"#utility.yul\":10182:10248   */\n      0xffffffffffffffffffffffffffffffffffffffffffffffffffffffffffffffff\n        /* \"#utility.yul\":10175:10180   */\n      dup3\n        /* \"#utility.yul\":10172:10249   */\n      sub\n        /* \"#utility.yul\":10169:10272   */\n      tag_279\n      jumpi\n        /* \"#utility.yul\":10252:10270   */\n      tag_280\n      tag_143\n      jump\t// in\n    tag_280:\n        /* \"#utility.yul\":10169:10272   */\n    tag_279:\n        /* \"#utility.yul\":10299:10300   */\n      0x01\n        /* \"#utility.yul\":10292:10297   */\n      dup3\n        /* \"#utility.yul\":10288:10301   */\n      add\n        /* \"#utility.yul\":10281:10301   */\n      swap1\n      pop\n        /* \"#utility.yul\":10074:10307   */\n      swap2\n      swap1\n      pop\n      jump\t// out\n        /* \"#utility.yul\":10313:10454   */\n    tag_145:\n        /* \"#utility.yul\":10362:10366   */\n      0x00\n        /* \"#utility.yul\":10385:10388   */\n      dup2\n        /* \"#utility.yul\":10377:10388   */\n      swap1\n      pop\n        /* \"#utility.yul\":10408:10411   */\n      dup2\n        /* \"#utility.yul\":10405:10406   */\n      0x00\n        /* \"#utility.yul\":10398:10412   */\n      mstore\n        /* \"#utility.yul\":10442:10446   */\n      0x20\n        /* \"#utility.yul\":10439:10440   */\n      0x00\n        /* \"#utility.yul\":10429:10447   */\n      keccak256\n        /* \"#utility.yul\":10421:10447   */\n      swap1\n      pop\n        /* \"#utility.yul\":10313:10454   */\n      swap2\n      swap1\n      pop\n      jump\t// out\n        /* \"#utility.yul\":10460:10553   */\n    tag_146:\n        /* \"#utility.yul\":10497:10503   */\n      0x00\n        /* \"#utility.yul\":10544:10546   */\n      0x20\n        /* \"#utility.yul\":10539:10541   */\n      0x1f\n        /* \"#utility.yul\":10532:10537   */\n      dup4\n        /* \"#utility.yul\":10528:10542   */\n      add\n        /* \"#utility.yul\":10524:10547   */\n      div\n        /* \"#utility.yul\":10514:10547   */\n      swap1\n      pop\n        /* \"#utility.yul\":10460:10553   */\n      swap2\n      swap1\n      pop\n      jump\t// out\n        /* \"#utility.yul\":10559:10666   */\n    tag_147:\n        /* \"#utility.yul\":10603:10611   */\n      0x00\n        /* \"#utility.yul\":10653:10658   */\n      dup3\n        /* \"#utility.yul\":10647:10651   */\n      dup3\n        /* \"#utility.yul\":10643:10659   */\n      shl\n        /* \"#utility.yul\":10622:10659   */\n      swap1\n      pop\n        /* \"#utility.yul\":10559:10666   */\n      swap3\n      swap2\n      pop\n      pop\n      jump\t// out\n        /* \"#utility.yul\":10672:11065   */\n    tag_148:\n        /* \"#utility.yul\":10741:10747   */\n      0x00\n        /* \"#utility.yul\":10791:10792   */\n      0x08\n        /* \"#utility.yul\":10779:10789   */\n      dup4\n        /* \"#utility.yul\":10775:10793   */\n      mul\n        /* \"#utility.yul\":10814:10911   */\n      tag_285\n        /* \"#utility.yul\":10844:10910   */\n      0xffffffffffffffffffffffffffffffffffffffffffffffffffffffffffffffff\n        /* \"#utility.yul\":10833:10842   */\n      dup3\n        /* \"#utility.yul\":10814:10911   */\n      tag_147\n      jump\t// in\n    tag_285:\n        /* \"#utility.yul\":10932:10971   */\n      tag_286\n        /* \"#utility.yul\":10962:10970   */\n      dup7\n        /* \"#utility.yul\":10951:10960   */\n      dup4\n        /* \"#utility.yul\":10932:10971   */\n      tag_147\n      jump\t// in\n    tag_286:\n        /* \"#utility.yul\":10920:10971   */\n      swap6\n      pop\n        /* \"#utility.yul\":11004:11008   */\n      dup1\n        /* \"#utility.yul\":11000:11009   */\n      not\n        /* \"#utility.yul\":10993:10998   */\n      dup5\n        /* \"#utility.yul\":10989:11010   */\n      and\n        /* \"#utility.yul\":10980:11010   */\n      swap4\n      pop\n        /* \"#utility.yul\":11053:11057   */\n      dup1\n        /* \"#utility.yul\":11043:11051   */\n      dup7\n        /* \"#utility.yul\":11039:11058   */\n      and\n        /* \"#utility.yul\":11032:11037   */\n      dup5\n        /* \"#utility.yul\":11029:11059   */\n      or\n        /* \"#utility.yul\":11019:11059   */\n      swap3\n      pop\n        /* \"#utility.yul\":10748:11065   */\n      pop\n      pop\n        /* \"#utility.yul\":10672:11065   */\n      swap4\n      swap3\n      pop\n      pop\n      pop\n      jump\t// out\n        /* \"#utility.yul\":11071:11131   */\n    tag_149:\n        /* \"#utility.yul\":11099:11102   */\n      0x00\n        /* \"#utility.yul\":11120:11125   */\n      dup2\n        /* \"#utility.yul\":11113:11125   */\n      swap1\n      pop\n        /* \"#utility.yul\":11071:11131   */\n      swap2\n      swap1\n      pop\n      jump\t// out\n        /* \"#utility.yul\":11137:11279   */\n    tag_150:\n        /* \"#utility.yul\":11187:11196   */\n      0x00\n        /* \"#utility.yul\":11220:11273   */\n      tag_289\n        /* \"#utility.yul\":11238:11272   */\n      tag_290\n        /* \"#utility.yul\":11247:11271   */\n      tag_291\n        /* \"#utility.yul\":11265:11270   */\n      dup5\n        /* \"#utility.yul\":11247:11271   */\n      tag_113\n      jump\t// in\n    tag_291:\n        /* \"#utility.yul\":11238:11272   */\n      tag_149\n      jump\t// in\n    tag_290:\n        /* \"#utility.yul\":11220:11273   */\n      tag_113\n      jump\t// in\n    tag_289:\n        /* \"#utility.yul\":11207:11273   */\n      swap1\n      pop\n        /* \"#utility.yul\":11137:11279   */\n      swap2\n      swap1\n      pop\n      jump\t// out\n        /* \"#utility.yul\":11285:11360   */\n    tag_151:\n        /* \"#utility.yul\":11328:11331   */\n      0x00\n        /* \"#utility.yul\":11349:11354   */\n      dup2\n        /* \"#utility.yul\":11342:11354   */\n      swap1\n      pop\n        /* \"#utility.yul\":11285:11360   */\n      swap2\n      swap1\n      pop\n      jump\t// out\n        /* \"#utility.yul\":11366:11635   */\n    tag_152:\n        /* \"#utility.yul\":11476:11515   */\n      tag_294\n        /* \"#utility.yul\":11507:11514   */\n      dup4\n        /* \"#utility.yul\":11476:11515   */\n      tag_150\n      jump\t// in\n    tag_294:\n        /* \"#utility.yul\":11537:11628   */\n      tag_295\n        /* \"#utility.yul\":11586:11627   */\n      tag_296\n        /* \"#utility.yul\":11610:11626   */\n      dup3\n        /* \"#utility.yul\":11586:11627   */\n      tag_151\n      jump\t// in\n    tag_296:\n        /* \"#utility.yul\":11578:11584   */\n      dup5\n        /* \"#utility.yul\":11571:11575   */\n      dup5\n        /* \"#utility.yul\":11565:11576   */\n      sload\n        /* \"#utility.yul\":11537:11628   */\n      tag_148\n      jump\t// in\n    tag_295:\n        /* \"#utility.yul\":11531:11535   */\n      dup3\n        /* \"#utility.yul\":11524:11629   */\n      sstore\n        /* \"#utility.yul\":11442:11635   */\n      pop\n        /* \"#utility.yul\":11366:11635   */\n      pop\n      pop\n      pop\n      jump\t// out\n        /* \"#utility.yul\":11641:11714   */\n    tag_153:\n        /* \"#utility.yul\":11686:11689   */\n      0x00\n        /* \"#utility.yul\":11641:11714   */\n      swap1\n      jump\t// out\n        /* \"#utility.yul\":11720:11909   */\n    tag_154:\n        /* \"#utility.yul\":11797:11829   */\n      tag_299\n      tag_153\n      jump\t// in\n    tag_299:\n        /* \"#utility.yul\":11838:11903   */\n      tag_300\n        /* \"#utility.yul\":11896:11902   */\n      dup2\n        /* \"#utility.yul\":11888:11894   */\n      dup5\n        /* \"#utility.yul\":11882:11886   */\n      dup5\n        /* \"#utility.yul\":11838:11903   */\n      tag_152\n      jump\t// in\n    tag_300:\n        /* \"#utility.yul\":11773:11909   */\n      pop\n        /* \"#utility.yul\":11720:11909   */\n      pop\n      pop\n      jump\t// out\n        /* \"#utility.yul\":11915:12101   */\n    tag_155:\n        /* \"#utility.yul\":11975:12095   */\n    tag_302:\n        /* \"#utility.yul\":11992:11995   */\n      dup2\n        /* \"#utility.yul\":11985:11990   */\n      dup2\n        /* \"#utility.yul\":11982:11996   */\n      lt\n        /* \"#utility.yul\":11975:12095   */\n      iszero\n      tag_304\n      jumpi\n        /* \"#utility.yul\":12046:12085   */\n      tag_305\n        /* \"#utility.yul\":12083:12084   */\n      0x00\n        /* \"#utility.yul\":12076:12081   */\n      dup3\n        /* \"#utility.yul\":12046:12085   */\n      tag_154\n      jump\t// in\n    tag_305:\n        /* \"#utility.yul\":12019:12020   */\n      0x01\n        /* \"#utility.yul\":12012:12017   */\n      dup2\n        /* \"#utility.yul\":12008:12021   */\n      add\n        /* \"#utility.yul\":11999:12021   */\n      swap1\n      pop\n        /* \"#utility.yul\":11975:12095   */\n      jump(tag_302)\n    tag_304:\n        /* \"#utility.yul\":11915:12101   */\n      pop\n      pop\n      jump\t// out\n        /* \"#utility.yul\":12107:12650   */\n    tag_156:\n        /* \"#utility.yul\":12208:12210   */\n      0x1f\n        /* \"#utility.yul\":12203:12206   */\n      dup3\n        /* \"#utility.yul\":12200:12211   */\n      gt\n        /* \"#utility.yul\":12197:12643   */\n      iszero\n      tag_307\n      jumpi\n        /* \"#utility.yul\":12242:12280   */\n      tag_308\n        /* \"#utility.yul\":12274:12279   */\n      dup2\n        /* \"#utility.yul\":12242:12280   */\n      tag_145\n      jump\t// in\n    tag_308:\n        /* \"#utility.yul\":12326:12355   */\n      tag_309\n        /* \"#utility.yul\":12344:12354   */\n      dup5\n        /* \"#utility.yul\":12326:12355   */\n      tag_146\n      jump\t// in\n    tag_309:\n        /* \"#utility.yul\":12316:12324   */\n      dup2\n        /* \"#utility.yul\":12312:12356   */\n      add\n        /* \"#utility.yul\":12509:12511   */\n      0x20\n        /* \"#utility.yul\":12497:12507   */\n      dup6\n        /* \"#utility.yul\":12494:12512   */\n      lt\n        /* \"#utility.yul\":12491:12540   */\n      iszero\n      tag_310\n      jumpi\n        /* \"#utility.yul\":12530:12538   */\n      dup2\n        /* \"#utility.yul\":12515:12538   */\n      swap1\n      pop\n        /* \"#utility.yul\":12491:12540   */\n    tag_310:\n        /* \"#utility.yul\":12553:12633   */\n      tag_311\n        /* \"#utility.yul\":12609:12631   */\n      tag_312\n        /* \"#utility.yul\":12627:12630   */\n      dup6\n        /* \"#utility.yul\":12609:12631   */\n      tag_146\n      jump\t// in\n    tag_312:\n        /* \"#utility.yul\":12599:12607   */\n      dup4\n        /* \"#utility.yul\":12595:12632   */\n      add\n        /* \"#utility.yul\":12582:12593   */\n      dup3\n        /* \"#utility.yul\":12553:12633   */\n      tag_155\n      jump\t// in\n    tag_311:\n        /* \"#utility.yul\":12212:12643   */\n      pop\n      pop\n        /* \"#utility.yul\":12197:12643   */\n    tag_307:\n        /* \"#utility.yul\":12107:12650   */\n      pop\n      pop\n      pop\n      jump\t// out\n        /* \"#utility.yul\":12656:12773   */\n    tag_157:\n        /* \"#utility.yul\":12710:12718   */\n      0x00\n        /* \"#utility.yul\":12760:12765   */\n      dup3\n        /* \"#utility.yul\":12754:12758   */\n      dup3\n        /* \"#utility.yul\":12750:12766   */\n      shr\n        /* \"#utility.yul\":12729:12766   */\n      swap1\n      pop\n        /* \"#utility.yul\":12656:12773   */\n      swap3\n      swap2\n      pop\n      pop\n      jump\t// out\n        /* \"#utility.yul\":12779:12948   */\n    tag_158:\n        /* \"#utility.yul\":12823:12829   */\n      0x00\n        /* \"#utility.yul\":12856:12907   */\n      tag_315\n        /* \"#utility.yul\":12904:12905   */\n      0x00\n        /* \"#utility.yul\":12900:12906   */\n      not\n        /* \"#utility.yul\":12892:12897   */\n      dup5\n        /* \"#utility.yul\":12889:12890   */\n      0x08\n        /* \"#utility.yul\":12885:12898   */\n      mul\n        /* \"#utility.yul\":12856:12907   */\n      tag_157\n      jump\t// in\n    tag_315:\n        /* \"#utility.yul\":12852:12908   */\n      not\n        /* \"#utility.yul\":12937:12941   */\n      dup1\n        /* \"#utility.yul\":12931:12935   */\n      dup4\n        /* \"#utility.yul\":12927:12942   */\n      and\n        /* \"#utility.yul\":12917:12942   */\n      swap2\n      pop\n        /* \"#utility.yul\":12830:12948   */\n      pop\n        /* \"#utility.yul\":12779:12948   */\n      swap3\n      swap2\n      pop\n      pop\n      jump\t// out\n        /* \"#utility.yul\":12953:13248   */\n    tag_159:\n        /* \"#utility.yul\":13029:13033   */\n      0x00\n        /* \"#utility.yul\":13175:13204   */\n      tag_317\n        /* \"#utility.yul\":13200:13203   */\n      dup4\n        /* \"#utility.yul\":13194:13198   */\n      dup4\n        /* \"#utility.yul\":13175:13204   */\n      tag_158\n      jump\t// in\n    tag_317:\n        /* \"#utility.yul\":13167:13204   */\n      swap2\n      pop\n        /* \"#utility.yul\":13237:13240   */\n      dup3\n        /* \"#utility.yul\":13234:13235   */\n      0x02\n        /* \"#utility.yul\":13230:13241   */\n      mul\n        /* \"#utility.yul\":13224:13228   */\n      dup3\n        /* \"#utility.yul\":13221:13242   */\n      or\n        /* \"#utility.yul\":13213:13242   */\n      swap1\n      pop\n        /* \"#utility.yul\":12953:13248   */\n      swap3\n      swap2\n      pop\n      pop\n      jump\t// out\n        /* \"#utility.yul\":13253:14648   */\n    tag_100:\n        /* \"#utility.yul\":13370:13407   */\n      tag_319\n        /* \"#utility.yul\":13403:13406   */\n      dup3\n        /* \"#utility.yul\":13370:13407   */\n      tag_126\n      jump\t// in\n    tag_319:\n        /* \"#utility.yul\":13472:13490   */\n      0xffffffffffffffff\n        /* \"#utility.yul\":13464:13470   */\n      dup2\n        /* \"#utility.yul\":13461:13491   */\n      gt\n        /* \"#utility.yul\":13458:13514   */\n      iszero\n      tag_320\n      jumpi\n        /* \"#utility.yul\":13494:13512   */\n      tag_321\n      tag_133\n      jump\t// in\n    tag_321:\n        /* \"#utility.yul\":13458:13514   */\n    tag_320:\n        /* \"#utility.yul\":13538:13576   */\n      tag_322\n        /* \"#utility.yul\":13570:13574   */\n      dup3\n        /* \"#utility.yul\":13564:13575   */\n      sload\n        /* \"#utility.yul\":13538:13576   */\n      tag_89\n      jump\t// in\n    tag_322:\n        /* \"#utility.yul\":13623:13690   */\n      tag_323\n        /* \"#utility.yul\":13683:13689   */\n      dup3\n        /* \"#utility.yul\":13675:13681   */\n      dup3\n        /* \"#utility.yul\":13669:13673   */\n      dup6\n        /* \"#utility.yul\":13623:13690   */\n      tag_156\n      jump\t// in\n    tag_323:\n        /* \"#utility.yul\":13717:13718   */\n      0x00\n        /* \"#utility.yul\":13741:13745   */\n      0x20\n        /* \"#utility.yul\":13728:13745   */\n      swap1\n      pop\n        /* \"#utility.yul\":13773:13775   */\n      0x1f\n        /* \"#utility.yul\":13765:13771   */\n      dup4\n        /* \"#utility.yul\":13762:13776   */\n      gt\n        /* \"#utility.yul\":13790:13791   */\n      0x01\n        /* \"#utility.yul\":13785:14403   */\n      dup2\n      eq\n      tag_325\n      jumpi\n        /* \"#utility.yul\":14447:14448   */\n      0x00\n        /* \"#utility.yul\":14464:14470   */\n      dup5\n        /* \"#utility.yul\":14461:14538   */\n      iszero\n      tag_326\n      jumpi\n        /* \"#utility.yul\":14513:14522   */\n      dup3\n        /* \"#utility.yul\":14508:14511   */\n      dup8\n        /* \"#utility.yul\":14504:14523   */\n      add\n        /* \"#utility.yul\":14498:14524   */\n      mload\n        /* \"#utility.yul\":14489:14524   */\n      swap1\n      pop\n        /* \"#utility.yul\":14461:14538   */\n    tag_326:\n        /* \"#utility.yul\":14564:14631   */\n      tag_327\n        /* \"#utility.yul\":14624:14630   */\n      dup6\n        /* \"#utility.yul\":14617:14622   */\n      dup3\n        /* \"#utility.yul\":14564:14631   */\n      tag_159\n      jump\t// in\n    tag_327:\n        /* \"#utility.yul\":14558:14562   */\n      dup7\n        /* \"#utility.yul\":14551:14632   */\n      sstore\n        /* \"#utility.yul\":14420:14642   */\n      pop\n        /* \"#utility.yul\":13755:14642   */\n      jump(tag_324)\n        /* \"#utility.yul\":13785:14403   */\n    tag_325:\n        /* \"#utility.yul\":13837:13841   */\n      0x1f\n        /* \"#utility.yul\":13833:13842   */\n      not\n        /* \"#utility.yul\":13825:13831   */\n      dup5\n        /* \"#utility.yul\":13821:13843   */\n      and\n        /* \"#utility.yul\":13871:13908   */\n      tag_328\n        /* \"#utility.yul\":13903:13907   */\n      dup7\n        /* \"#utility.yul\":13871:13908   */\n      tag_145\n      jump\t// in\n    tag_328:\n        /* \"#utility.yul\":13930:13931   */\n      0x00\n        /* \"#utility.yul\":13944:14152   */\n    tag_329:\n        /* \"#utility.yul\":13958:13965   */\n      dup3\n        /* \"#utility.yul\":13955:13956   */\n      dup2\n        /* \"#utility.yul\":13952:13966   */\n      lt\n        /* \"#utility.yul\":13944:14152   */\n      iszero\n      tag_331\n      jumpi\n        /* \"#utility.yul\":14037:14046   */\n      dup5\n        /* \"#utility.yul\":14032:14035   */\n      dup10\n        /* \"#utility.yul\":14028:14047   */\n      add\n        /* \"#utility.yul\":14022:14048   */\n      mload\n        /* \"#utility.yul\":14014:14020   */\n      dup3\n        /* \"#utility.yul\":14007:14049   */\n      sstore\n        /* \"#utility.yul\":14088:14089   */\n      0x01\n        /* \"#utility.yul\":14080:14086   */\n      dup3\n        /* \"#utility.yul\":14076:14090   */\n      add\n        /* \"#utility.yul\":14066:14090   */\n      swap2\n      pop\n        /* \"#utility.yul\":14135:14137   */\n      0x20\n        /* \"#utility.yul\":14124:14133   */\n      dup6\n        /* \"#utility.yul\":14120:14138   */\n      add\n        /* \"#utility.yul\":14107:14138   */\n      swap5\n      pop\n        /* \"#utility.yul\":13981:13985   */\n      0x20\n        /* \"#utility.yul\":13978:13979   */\n      dup2\n        /* \"#utility.yul\":13974:13986   */\n      add\n        /* \"#utility.yul\":13969:13986   */\n      swap1\n      pop\n        /* \"#utility.yul\":13944:14152   */\n      jump(tag_329)\n    tag_331:\n        /* \"#utility.yul\":14180:14186   */\n      dup7\n        /* \"#utility.yul\":14171:14178   */\n      dup4\n        /* \"#utility.yul\":14168:14187   */\n      lt\n        /* \"#utility.yul\":14165:14344   */\n      iszero\n      tag_332\n      jumpi\n        /* \"#utility.yul\":14238:14247   */\n      dup5\n        /* \"#utility.yul\":14233:14236   */\n      dup10\n        /* \"#utility.yul\":14229:14248   */\n      add\n        /* \"#utility.yul\":14223:14249   */\n      mload\n        /* \"#utility.yul\":14281:14329   */\n      tag_333\n        /* \"#utility.yul\":14323:14327   */\n      0x1f\n        /* \"#utility.yul\":14315:14321   */\n      dup10\n        /* \"#utility.yul\":14311:14328   */\n      and\n        /* \"#utility.yul\":14300:14309   */\n      dup3\n        /* \"#utility.yul\":14281:14329   */\n      tag_158\n      jump\t// in\n    tag_333:\n        /* \"#utility.yul\":14273:14279   */\n      dup4\n        /* \"#utility.yul\":14266:14330   */\n      sstore\n        /* \"#utility.yul\":14188:14344   */\n      pop\n        /* \"#utility.yul\":14165:14344   */\n    tag_332:\n        /* \"#utility.yul\":14390:14391   */\n      0x01\n        /* \"#utility.yul\":14386:14387   */\n      0x02\n        /* \"#utility.yul\":14378:14384   */\n      dup9\n        /* \"#utility.yul\":14374:14388   */\n      mul\n        /* \"#utility.yul\":14370:14392   */\n      add\n        /* \"#utility.yul\":14364:14368   */\n      dup9\n        /* \"#utility.yul\":14357:14393   */\n      sstore\n        /* \"#utility.yul\":13792:14403   */\n      pop\n      pop\n      pop\n        /* \"#utility.yul\":13755:14642   */\n    tag_324:\n      pop\n        /* \"#utility.yul\":13345:14648   */\n      pop\n      pop\n      pop\n        /* \"#utility.yul\":13253:14648   */\n      pop\n      pop\n      jump\t// out\n\n    auxdata: 0xa264697066735822122095a51c8d58f1b5cfd83875acfd67acda15c68b8becb2552e537784463d1e3e4e64736f6c63430008110033\n}\n","bytecode":{"linkReferences":{},"object":"60806040523480156200001157600080fd5b50604051620012e1380380620012e183398181016040528101906200003791906200012c565b80600460006101000a81548173ffffffffffffffffffffffffffffffffffffffff021916908373ffffffffffffffffffffffffffffffffffffffff16021790555081600181905550505062000173565b600080fd5b6000819050919050565b620000a1816200008c565b8114620000ad57600080fd5b50565b600081519050620000c18162000096565b92915050565b600073ffffffffffffffffffffffffffffffffffffffff82169050919050565b6000620000f482620000c7565b9050919050565b6200010681620000e7565b81146200011257600080fd5b50565b6000815190506200012681620000fb565b92915050565b6000806040838503121562000146576200014562000087565b5b60006200015685828601620000b0565b9250506020620001698582860162000115565b9150509250929050565b61115e80620001836000396000f3fe6080604052600436106100c25760003560e01c806382fde0931161007f578063aa8a7eeb11610059578063aa8a7eeb14610272578063d7bb99ba1461029d578063d7d1bbdb146102a7578063fbfa4b7f146102d0576100c2565b806382fde093146101f35780638a9cfd551461021e578063937e09b114610247576100c2565b806303441006146100c75780630a144391146100f05780633410452a1461012d5780634051ddac14610158578063481c6a751461018757806381d12c58146101b2575b600080fd5b3480156100d357600080fd5b506100ee60048036038101906100e99190610903565b6102fb565b005b3480156100fc57600080fd5b506101176004803603810190610112919061098e565b610435565b60405161012491906109d6565b60405180910390f35b34801561013957600080fd5b50610142610455565b60405161014f9190610a00565b60405180910390f35b34801561016457600080fd5b5061016d61045f565b60405161017e959493929190610a2a565b60405180910390f35b34801561019357600080fd5b5061019c6104a5565b6040516101a99190610a9e565b60405180910390f35b3480156101be57600080fd5b506101d960048036038101906101d49190610903565b6104cb565b6040516101ea959493929190610b49565b60405180910390f35b3480156101ff57600080fd5b506102086105b6565b6040516102159190610a00565b60405180910390f35b34801561022a57600080fd5b5061024560048036038101906102409190610d04565b6105bc565b005b34801561025357600080fd5b5061025c6106e5565b6040516102699190610a00565b60405180910390f35b34801561027e57600080fd5b506102876106eb565b6040516102949190610a00565b60405180910390f35b6102a56106f5565b005b3480156102b357600080fd5b506102ce60048036038101906102c99190610903565b610775565b005b3480156102dc57600080fd5b506102e56108b3565b6040516102f29190610a00565b60405180910390f35b600460009054906101000a900473ffffffffffffffffffffffffffffffffffffffff1673ffffffffffffffffffffffffffffffffffffffff163373ffffffffffffffffffffffffffffffffffffffff161461035557600080fd5b60006005600083815260200190815260200160002090506002805461037a9190610dd1565b81600301541161038957600080fd5b8060020160149054906101000a900460ff16156103a557600080fd5b8060020160009054906101000a900473ffffffffffffffffffffffffffffffffffffffff1673ffffffffffffffffffffffffffffffffffffffff166108fc82600101549081150290604051600060405180830381858888f19350505050158015610413573d6000803e3d6000fd5b5060018160020160146101000a81548160ff0219169083151502179055505050565b60066020528060005260406000206000915054906101000a900460ff1681565b6000600354905090565b600080600080600060015447600354600254600460009054906101000a900473ffffffffffffffffffffffffffffffffffffffff16945094509450945094509091929394565b600460009054906101000a900473ffffffffffffffffffffffffffffffffffffffff1681565b60056020528060005260406000206000915090508060000180546104ee90610e31565b80601f016020809104026020016040519081016040528092919081815260200182805461051a90610e31565b80156105675780601f1061053c57610100808354040283529160200191610567565b820191906000526020600020905b81548152906001019060200180831161054a57829003601f168201915b5050505050908060010154908060020160009054906101000a900473ffffffffffffffffffffffffffffffffffffffff16908060020160149054906101000a900460ff16908060030154905085565b60025481565b600460009054906101000a900473ffffffffffffffffffffffffffffffffffffffff1673ffffffffffffffffffffffffffffffffffffffff163373ffffffffffffffffffffffffffffffffffffffff161461061657600080fd5b60006005600080600081548092919061062e90610e62565b9190505581526020019081526020016000209050838160000190816106539190611056565b50828160010181905550818160020160006101000a81548173ffffffffffffffffffffffffffffffffffffffff021916908373ffffffffffffffffffffffffffffffffffffffff16021790555060008160020160146101000a81548160ff02191690831515021790555060008160030181905550600360008154809291906106da90610e62565b919050555050505050565b60015481565b6000600254905090565b600154341161070357600080fd5b6001600660003373ffffffffffffffffffffffffffffffffffffffff1673ffffffffffffffffffffffffffffffffffffffff16815260200190815260200160002060006101000a81548160ff0219169083151502179055506002600081548092919061076e90610e62565b9190505550565b6000600560008381526020019081526020016000209050600660003373ffffffffffffffffffffffffffffffffffffffff1673ffffffffffffffffffffffffffffffffffffffff16815260200190815260200160002060009054906101000a900460ff166107e257600080fd5b8060040160003373ffffffffffffffffffffffffffffffffffffffff1673ffffffffffffffffffffffffffffffffffffffff16815260200190815260200160002060009054906101000a900460ff161561083b57600080fd5b60018160040160003373ffffffffffffffffffffffffffffffffffffffff1673ffffffffffffffffffffffffffffffffffffffff16815260200190815260200160002060006101000a81548160ff0219169083151502179055508060030160008154809291906108aa90610e62565b91905055505050565b60035481565b6000604051905090565b600080fd5b600080fd5b6000819050919050565b6108e0816108cd565b81146108eb57600080fd5b50565b6000813590506108fd816108d7565b92915050565b600060208284031215610919576109186108c3565b5b6000610927848285016108ee565b91505092915050565b600073ffffffffffffffffffffffffffffffffffffffff82169050919050565b600061095b82610930565b9050919050565b61096b81610950565b811461097657600080fd5b50565b60008135905061098881610962565b92915050565b6000602082840312156109a4576109a36108c3565b5b60006109b284828501610979565b91505092915050565b60008115159050919050565b6109d0816109bb565b82525050565b60006020820190506109eb60008301846109c7565b92915050565b6109fa816108cd565b82525050565b6000602082019050610a1560008301846109f1565b92915050565b610a2481610950565b82525050565b600060a082019050610a3f60008301886109f1565b610a4c60208301876109f1565b610a5960408301866109f1565b610a6660608301856109f1565b610a736080830184610a1b565b9695505050505050565b6000610a8882610930565b9050919050565b610a9881610a7d565b82525050565b6000602082019050610ab36000830184610a8f565b92915050565b600081519050919050565b600082825260208201905092915050565b60005b83811015610af3578082015181840152602081019050610ad8565b60008484015250505050565b6000601f19601f8301169050919050565b6000610b1b82610ab9565b610b258185610ac4565b9350610b35818560208601610ad5565b610b3e81610aff565b840191505092915050565b600060a0820190508181036000830152610b638188610b10565b9050610b7260208301876109f1565b610b7f6040830186610a8f565b610b8c60608301856109c7565b610b9960808301846109f1565b9695505050505050565b600080fd5b600080fd5b7f4e487b7100000000000000000000000000000000000000000000000000000000600052604160045260246000fd5b610be582610aff565b810181811067ffffffffffffffff82111715610c0457610c03610bad565b5b80604052505050565b6000610c176108b9565b9050610c238282610bdc565b919050565b600067ffffffffffffffff821115610c4357610c42610bad565b5b610c4c82610aff565b9050602081019050919050565b82818337600083830152505050565b6000610c7b610c7684610c28565b610c0d565b905082815260208101848484011115610c9757610c96610ba8565b5b610ca2848285610c59565b509392505050565b600082601f830112610cbf57610cbe610ba3565b5b8135610ccf848260208601610c68565b91505092915050565b610ce181610a7d565b8114610cec57600080fd5b50565b600081359050610cfe81610cd8565b92915050565b600080600060608486031215610d1d57610d1c6108c3565b5b600084013567ffffffffffffffff811115610d3b57610d3a6108c8565b5b610d4786828701610caa565b9350506020610d58868287016108ee565b9250506040610d6986828701610cef565b9150509250925092565b7f4e487b7100000000000000000000000000000000000000000000000000000000600052601260045260246000fd5b7f4e487b7100000000000000000000000000000000000000000000000000000000600052601160045260246000fd5b6000610ddc826108cd565b9150610de7836108cd565b925082610df757610df6610d73565b5b828204905092915050565b7f4e487b7100000000000000000000000000000000000000000000000000000000600052602260045260246000fd5b60006002820490506001821680610e4957607f821691505b602082108103610e5c57610e5b610e02565b5b50919050565b6000610e6d826108cd565b91507fffffffffffffffffffffffffffffffffffffffffffffffffffffffffffffffff8203610e9f57610e9e610da2565b5b600182019050919050565b60008190508160005260206000209050919050565b60006020601f8301049050919050565b600082821b905092915050565b600060088302610f0c7fffffffffffffffffffffffffffffffffffffffffffffffffffffffffffffffff82610ecf565b610f168683610ecf565b95508019841693508086168417925050509392505050565b6000819050919050565b6000610f53610f4e610f49846108cd565b610f2e565b6108cd565b9050919050565b6000819050919050565b610f6d83610f38565b610f81610f7982610f5a565b848454610edc565b825550505050565b600090565b610f96610f89565b610fa1818484610f64565b505050565b5b81811015610fc557610fba600082610f8e565b600181019050610fa7565b5050565b601f82111561100a57610fdb81610eaa565b610fe484610ebf565b81016020851015610ff3578190505b611007610fff85610ebf565b830182610fa6565b50505b505050565b600082821c905092915050565b600061102d6000198460080261100f565b1980831691505092915050565b6000611046838361101c565b9150826002028217905092915050565b61105f82610ab9565b67ffffffffffffffff81111561107857611077610bad565b5b6110828254610e31565b61108d828285610fc9565b600060209050601f8311600181146110c057600084156110ae578287015190505b6110b8858261103a565b865550611120565b601f1984166110ce86610eaa565b60005b828110156110f6578489015182556001820191506020850194506020810190506110d1565b86831015611113578489015161110f601f89168261101c565b8355505b6001600288020188555050505b50505050505056fea264697066735822122095a51c8d58f1b5cfd83875acfd67acda15c68b8becb2552e537784463d1e3e4e64736f6c63430008110033","opcodes":"PUSH1 0x80 PUSH1 0x40 MSTORE CALLVALUE DUP1 ISZERO PUSH3 0x11 JUMPI PUSH1 0x0 DUP1 REVERT JUMPDEST POP PUSH1 0x40 MLOAD PUSH3 0x12E1 CODESIZE SUB DUP1 PUSH3 0x12E1 DUP4 CODECOPY DUP2 DUP2 ADD PUSH1 0x40 MSTORE DUP2 ADD SWAP1 PUSH3 0x37 SWAP2 SWAP1 PUSH3 0x12C JUMP JUMPDEST DUP1 PUSH1 0x4 PUSH1 0x0 PUSH2 0x100 EXP DUP2 SLOAD DUP2 PUSH20 0xFFFFFFFFFFFFFFFFFFFFFFFFFFFFFFFFFFFFFFFF MUL NOT AND SWAP1 DUP4 PUSH20 0xFFFFFFFFFFFFFFFFFFFFFFFFFFFFFFFFFFFFFFFF AND MUL OR SWAP1 SSTORE POP DUP2 PUSH1 0x1 DUP2 SWAP1 SSTORE POP POP POP PUSH3 0x173 JUMP JUMPDEST PUSH1 0x0 DUP1 REVERT JUMPDEST PUSH1 0x0 DUP2 SWAP1 POP SWAP2 SWAP1 POP JUMP JUMPDEST PUSH3 0xA1 DUP2 PUSH3 0x8C JUMP JUMPDEST DUP2 EQ PUSH3 0xAD JUMPI PUSH1 0x0 DUP1 REVERT JUMPDEST POP JUMP JUMPDEST PUSH1 0x0 DUP2 MLOAD SWAP1 POP PUSH3 0xC1 DUP2 PUSH3 0x96 JUMP JUMPDEST SWAP3 SWAP2 POP POP JUMP JUMPDEST PUSH1 0x0 PUSH20 0xFFFFFFFFFFFFFFFFFFFFFFFFFFFFFFFFFFFFFFFF DUP3 AND SWAP1 POP SWAP2 SWAP1 POP JUMP JUMPDEST PUSH1 0x0 PUSH3 0xF4 DUP3 PUSH3 0xC7 JUMP JUMPDEST SWAP1 POP SWAP2 SWAP1 POP JUMP JUMPDEST PUSH3 0x106 DUP2 PUSH3 0xE7 JUMP JUMPDEST DUP2 EQ PUSH3 0x112 JUMPI PUSH1 0x0 DUP1 REVERT JUMPDEST POP JUMP JUMPDEST PUSH1 0x0 DUP2 MLOAD SWAP1 POP PUSH3 0x126 DUP2 PUSH3 0xFB JUMP JUMPDEST SWAP3 SWAP2 POP POP JUMP JUMPDEST PUSH1 0x0 DUP1 PUSH1 0x40 DUP4 DUP6 SUB SLT ISZERO PUSH3 0x146 JUMPI PUSH3 0x145 PUSH3 0x87 JUMP JUMPDEST JUMPDEST PUSH1 0x0 PUSH3 0x156 DUP6 DUP3 DUP7 ADD PUSH3 0xB0 JUMP JUMPDEST SWAP3 POP POP PUSH1 0x20 PUSH3 0x169 DUP6 DUP3 DUP7 ADD PUSH3 0x115 JUMP JUMPDEST SWAP2 POP POP SWAP3 POP SWAP3 SWAP1 POP JUMP JUMPDEST PUSH2 0x115E DUP1 PUSH3 0x183 PUSH1 0x0 CODECOPY PUSH1 0x0 RETURN INVALID PUSH1 0x80 PUSH1 0x40 MSTORE PUSH1 0x4 CALLDATASIZE LT PUSH2 0xC2 JUMPI PUSH1 0x0 CALLDATALOAD PUSH1 0xE0 SHR DUP1 PUSH4 0x82FDE093 GT PUSH2 0x7F JUMPI DUP1 PUSH4 0xAA8A7EEB GT PUSH2 0x59 JUMPI DUP1 PUSH4 0xAA8A7EEB EQ PUSH2 0x272 JUMPI DUP1 PUSH4 0xD7BB99BA EQ PUSH2 0x29D JUMPI DUP1 PUSH4 0xD7D1BBDB EQ PUSH2 0x2A7 JUMPI DUP1 PUSH4 0xFBFA4B7F EQ PUSH2 0x2D0 JUMPI PUSH2 0xC2 JUMP JUMPDEST DUP1 PUSH4 0x82FDE093 EQ PUSH2 0x1F3 JUMPI DUP1 PUSH4 0x8A9CFD55 EQ PUSH2 0x21E JUMPI DUP1 PUSH4 0x937E09B1 EQ PUSH2 0x247 JUMPI PUSH2 0xC2 JUMP JUMPDEST DUP1 PUSH4 0x3441006 EQ PUSH2 0xC7 JUMPI DUP1 PUSH4 0xA144391 EQ PUSH2 0xF0 JUMPI DUP1 PUSH4 0x3410452A EQ PUSH2 0x12D JUMPI DUP1 PUSH4 0x4051DDAC EQ PUSH2 0x158 JUMPI DUP1 PUSH4 0x481C6A75 EQ PUSH2 0x187 JUMPI DUP1 PUSH4 0x81D12C58 EQ PUSH2 0x1B2 JUMPI JUMPDEST PUSH1 0x0 DUP1 REVERT JUMPDEST CALLVALUE DUP1 ISZERO PUSH2 0xD3 JUMPI PUSH1 0x0 DUP1 REVERT JUMPDEST POP PUSH2 0xEE PUSH1 0x4 DUP1 CALLDATASIZE SUB DUP2 ADD SWAP1 PUSH2 0xE9 SWAP2 SWAP1 PUSH2 0x903 JUMP JUMPDEST PUSH2 0x2FB JUMP JUMPDEST STOP JUMPDEST CALLVALUE DUP1 ISZERO PUSH2 0xFC JUMPI PUSH1 0x0 DUP1 REVERT JUMPDEST POP PUSH2 0x117 PUSH1 0x4 DUP1 CALLDATASIZE SUB DUP2 ADD SWAP1 PUSH2 0x112 SWAP2 SWAP1 PUSH2 0x98E JUMP JUMPDEST PUSH2 0x435 JUMP JUMPDEST PUSH1 0x40 MLOAD PUSH2 0x124 SWAP2 SWAP1 PUSH2 0x9D6 JUMP JUMPDEST PUSH1 0x40 MLOAD DUP1 SWAP2 SUB SWAP1 RETURN JUMPDEST CALLVALUE DUP1 ISZERO PUSH2 0x139 JUMPI PUSH1 0x0 DUP1 REVERT JUMPDEST POP PUSH2 0x142 PUSH2 0x455 JUMP JUMPDEST PUSH1 0x40 MLOAD PUSH2 0x14F SWAP2 SWAP1 PUSH2 0xA00 JUMP JUMPDEST PUSH1 0x40 MLOAD DUP1 SWAP2 SUB SWAP1 RETURN JUMPDEST CALLVALUE DUP1 ISZERO PUSH2 0x164 JUMPI PUSH1 0x0 DUP1 REVERT JUMPDEST POP PUSH2 0x16D PUSH2 0x45F JUMP JUMPDEST PUSH1 0x40 MLOAD PUSH2 0x17E SWAP6 SWAP5 SWAP4 SWAP3 SWAP2 SWAP1 PUSH2 0xA2A JUMP JUMPDEST PUSH1 0x40 MLOAD DUP1 SWAP2 SUB SWAP1 RETURN JUMPDEST CALLVALUE DUP1 ISZERO PUSH2 0x193 JUMPI PUSH1 0x0 DUP1 REVERT JUMPDEST POP PUSH2 0x19C PUSH2 0x4A5 JUMP JUMPDEST PUSH1 0x40 MLOAD PUSH2 0x1A9 SWAP2 SWAP1 PUSH2 0xA9E JUMP JUMPDEST PUSH1 0x40 MLOAD DUP1 SWAP2 SUB SWAP1 RETURN JUMPDEST CALLVALUE DUP1 ISZERO PUSH2 0x1BE JUMPI PUSH1 0x0 DUP1 REVERT JUMPDEST POP PUSH2 0x1D9 PUSH1 0x4 DUP1 CALLDATASIZE SUB DUP2 ADD SWAP1 PUSH2 0x1D4 SWAP2 SWAP1 PUSH2 0x903 JUMP JUMPDEST PUSH2 0x4CB JUMP JUMPDEST PUSH1 0x40 MLOAD PUSH2 0x1EA SWAP6 SWAP5 SWAP4 SWAP3 SWAP2 SWAP1 PUSH2 0xB49 JUMP JUMPDEST PUSH1 0x40 MLOAD DUP1 SWAP2 SUB SWAP1 RETURN JUMPDEST CALLVALUE DUP1 ISZERO PUSH2 0x1FF JUMPI PUSH1 0x0 DUP1 REVERT JUMPDEST POP PUSH2 0x208 PUSH2 0x5B6 JUMP JUMPDEST PUSH1 0x40 MLOAD PUSH2 0x215 SWAP2 SWAP1 PUSH2 0xA00 JUMP JUMPDEST PUSH1 0x40 MLOAD DUP1 SWAP2 SUB SWAP1 RETURN JUMPDEST CALLVALUE DUP1 ISZERO PUSH2 0x22A JUMPI PUSH1 0x0 DUP1 REVERT JUMPDEST POP PUSH2 0x245 PUSH1 0x4 DUP1 CALLDATASIZE SUB DUP2 ADD SWAP1 PUSH2 0x240 SWAP2 SWAP1 PUSH2 0xD04 JUMP JUMPDEST PUSH2 0x5BC JUMP JUMPDEST STOP JUMPDEST CALLVALUE DUP1 ISZERO PUSH2 0x253 JUMPI PUSH1 0x0 DUP1 REVERT JUMPDEST POP PUSH2 0x25C PUSH2 0x6E5 JUMP JUMPDEST PUSH1 0x40 MLOAD PUSH2 0x269 SWAP2 SWAP1 PUSH2 0xA00 JUMP JUMPDEST PUSH1 0x40 MLOAD DUP1 SWAP2 SUB SWAP1 RETURN JUMPDEST CALLVALUE DUP1 ISZERO PUSH2 0x27E JUMPI PUSH1 0x0 DUP1 REVERT JUMPDEST POP PUSH2 0x287 PUSH2 0x6EB JUMP JUMPDEST PUSH1 0x40 MLOAD PUSH2 0x294 SWAP2 SWAP1 PUSH2 0xA00 JUMP JUMPDEST PUSH1 0x40 MLOAD DUP1 SWAP2 SUB SWAP1 RETURN JUMPDEST PUSH2 0x2A5 PUSH2 0x6F5 JUMP JUMPDEST STOP JUMPDEST CALLVALUE DUP1 ISZERO PUSH2 0x2B3 JUMPI PUSH1 0x0 DUP1 REVERT JUMPDEST POP PUSH2 0x2CE PUSH1 0x4 DUP1 CALLDATASIZE SUB DUP2 ADD SWAP1 PUSH2 0x2C9 SWAP2 SWAP1 PUSH2 0x903 JUMP JUMPDEST PUSH2 0x775 JUMP JUMPDEST STOP JUMPDEST CALLVALUE DUP1 ISZERO PUSH2 0x2DC JUMPI PUSH1 0x0 DUP1 REVERT JUMPDEST POP PUSH2 0x2E5 PUSH2 0x8B3 JUMP JUMPDEST PUSH1 0x40 MLOAD PUSH2 0x2F2 SWAP2 SWAP1 PUSH2 0xA00 JUMP JUMPDEST PUSH1 0x40 MLOAD DUP1 SWAP2 SUB SWAP1 RETURN JUMPDEST PUSH1 0x4 PUSH1 0x0 SWAP1 SLOAD SWAP1 PUSH2 0x100 EXP SWAP1 DIV PUSH20 0xFFFFFFFFFFFFFFFFFFFFFFFFFFFFFFFFFFFFFFFF AND PUSH20 0xFFFFFFFFFFFFFFFFFFFFFFFFFFFFFFFFFFFFFFFF AND CALLER PUSH20 0xFFFFFFFFFFFFFFFFFFFFFFFFFFFFFFFFFFFFFFFF AND EQ PUSH2 0x355 JUMPI PUSH1 0x0 DUP1 REVERT JUMPDEST PUSH1 0x0 PUSH1 0x5 PUSH1 0x0 DUP4 DUP2 MSTORE PUSH1 0x20 ADD SWAP1 DUP2 MSTORE PUSH1 0x20 ADD PUSH1 0x0 KECCAK256 SWAP1 POP PUSH1 0x2 DUP1 SLOAD PUSH2 0x37A SWAP2 SWAP1 PUSH2 0xDD1 JUMP JUMPDEST DUP2 PUSH1 0x3 ADD SLOAD GT PUSH2 0x389 JUMPI PUSH1 0x0 DUP1 REVERT JUMPDEST DUP1 PUSH1 0x2 ADD PUSH1 0x14 SWAP1 SLOAD SWAP1 PUSH2 0x100 EXP SWAP1 DIV PUSH1 0xFF AND ISZERO PUSH2 0x3A5 JUMPI PUSH1 0x0 DUP1 REVERT JUMPDEST DUP1 PUSH1 0x2 ADD PUSH1 0x0 SWAP1 SLOAD SWAP1 PUSH2 0x100 EXP SWAP1 DIV PUSH20 0xFFFFFFFFFFFFFFFFFFFFFFFFFFFFFFFFFFFFFFFF AND PUSH20 0xFFFFFFFFFFFFFFFFFFFFFFFFFFFFFFFFFFFFFFFF AND PUSH2 0x8FC DUP3 PUSH1 0x1 ADD SLOAD SWAP1 DUP2 ISZERO MUL SWAP1 PUSH1 0x40 MLOAD PUSH1 0x0 PUSH1 0x40 MLOAD DUP1 DUP4 SUB DUP2 DUP6 DUP9 DUP9 CALL SWAP4 POP POP POP POP ISZERO DUP1 ISZERO PUSH2 0x413 JUMPI RETURNDATASIZE PUSH1 0x0 DUP1 RETURNDATACOPY RETURNDATASIZE PUSH1 0x0 REVERT JUMPDEST POP PUSH1 0x1 DUP2 PUSH1 0x2 ADD PUSH1 0x14 PUSH2 0x100 EXP DUP2 SLOAD DUP2 PUSH1 0xFF MUL NOT AND SWAP1 DUP4 ISZERO ISZERO MUL OR SWAP1 SSTORE POP POP POP JUMP JUMPDEST PUSH1 0x6 PUSH1 0x20 MSTORE DUP1 PUSH1 0x0 MSTORE PUSH1 0x40 PUSH1 0x0 KECCAK256 PUSH1 0x0 SWAP2 POP SLOAD SWAP1 PUSH2 0x100 EXP SWAP1 DIV PUSH1 0xFF AND DUP2 JUMP JUMPDEST PUSH1 0x0 PUSH1 0x3 SLOAD SWAP1 POP SWAP1 JUMP JUMPDEST PUSH1 0x0 DUP1 PUSH1 0x0 DUP1 PUSH1 0x0 PUSH1 0x1 SLOAD SELFBALANCE PUSH1 0x3 SLOAD PUSH1 0x2 SLOAD PUSH1 0x4 PUSH1 0x0 SWAP1 SLOAD SWAP1 PUSH2 0x100 EXP SWAP1 DIV PUSH20 0xFFFFFFFFFFFFFFFFFFFFFFFFFFFFFFFFFFFFFFFF AND SWAP5 POP SWAP5 POP SWAP5 POP SWAP5 POP SWAP5 POP SWAP1 SWAP2 SWAP3 SWAP4 SWAP5 JUMP JUMPDEST PUSH1 0x4 PUSH1 0x0 SWAP1 SLOAD SWAP1 PUSH2 0x100 EXP SWAP1 DIV PUSH20 0xFFFFFFFFFFFFFFFFFFFFFFFFFFFFFFFFFFFFFFFF AND DUP2 JUMP JUMPDEST PUSH1 0x5 PUSH1 0x20 MSTORE DUP1 PUSH1 0x0 MSTORE PUSH1 0x40 PUSH1 0x0 KECCAK256 PUSH1 0x0 SWAP2 POP SWAP1 POP DUP1 PUSH1 0x0 ADD DUP1 SLOAD PUSH2 0x4EE SWAP1 PUSH2 0xE31 JUMP JUMPDEST DUP1 PUSH1 0x1F ADD PUSH1 0x20 DUP1 SWAP2 DIV MUL PUSH1 0x20 ADD PUSH1 0x40 MLOAD SWAP1 DUP2 ADD PUSH1 0x40 MSTORE DUP1 SWAP3 SWAP2 SWAP1 DUP2 DUP2 MSTORE PUSH1 0x20 ADD DUP3 DUP1 SLOAD PUSH2 0x51A SWAP1 PUSH2 0xE31 JUMP JUMPDEST DUP1 ISZERO PUSH2 0x567 JUMPI DUP1 PUSH1 0x1F LT PUSH2 0x53C JUMPI PUSH2 0x100 DUP1 DUP4 SLOAD DIV MUL DUP4 MSTORE SWAP2 PUSH1 0x20 ADD SWAP2 PUSH2 0x567 JUMP JUMPDEST DUP3 ADD SWAP2 SWAP1 PUSH1 0x0 MSTORE PUSH1 0x20 PUSH1 0x0 KECCAK256 SWAP1 JUMPDEST DUP2 SLOAD DUP2 MSTORE SWAP1 PUSH1 0x1 ADD SWAP1 PUSH1 0x20 ADD DUP1 DUP4 GT PUSH2 0x54A JUMPI DUP3 SWAP1 SUB PUSH1 0x1F AND DUP3 ADD SWAP2 JUMPDEST POP POP POP POP POP SWAP1 DUP1 PUSH1 0x1 ADD SLOAD SWAP1 DUP1 PUSH1 0x2 ADD PUSH1 0x0 SWAP1 SLOAD SWAP1 PUSH2 0x100 EXP SWAP1 DIV PUSH20 0xFFFFFFFFFFFFFFFFFFFFFFFFFFFFFFFFFFFFFFFF AND SWAP1 DUP1 PUSH1 0x2 ADD PUSH1 0x14 SWAP1 SLOAD SWAP1 PUSH2 0x100 EXP SWAP1 DIV PUSH1 0xFF AND SWAP1 DUP1 PUSH1 0x3 ADD SLOAD SWAP1 POP DUP6 JUMP JUMPDEST PUSH1 0x2 SLOAD DUP2 JUMP JUMPDEST PUSH1 0x4 PUSH1 0x0 SWAP1 SLOAD SWAP1 PUSH2 0x100 EXP SWAP1 DIV PUSH20 0xFFFFFFFFFFFFFFFFFFFFFFFFFFFFFFFFFFFFFFFF AND PUSH20 0xFFFFFFFFFFFFFFFFFFFFFFFFFFFFFFFFFFFFFFFF AND CALLER PUSH20 0xFFFFFFFFFFFFFFFFFFFFFFFFFFFFFFFFFFFFFFFF AND EQ PUSH2 0x616 JUMPI PUSH1 0x0 DUP1 REVERT JUMPDEST PUSH1 0x0 PUSH1 0x5 PUSH1 0x0 DUP1 PUSH1 0x0 DUP2 SLOAD DUP1 SWAP3 SWAP2 SWAP1 PUSH2 0x62E SWAP1 PUSH2 0xE62 JUMP JUMPDEST SWAP2 SWAP1 POP SSTORE DUP2 MSTORE PUSH1 0x20 ADD SWAP1 DUP2 MSTORE PUSH1 0x20 ADD PUSH1 0x0 KECCAK256 SWAP1 POP DUP4 DUP2 PUSH1 0x0 ADD SWAP1 DUP2 PUSH2 0x653 SWAP2 SWAP1 PUSH2 0x1056 JUMP JUMPDEST POP DUP3 DUP2 PUSH1 0x1 ADD DUP2 SWAP1 SSTORE POP DUP2 DUP2 PUSH1 0x2 ADD PUSH1 0x0 PUSH2 0x100 EXP DUP2 SLOAD DUP2 PUSH20 0xFFFFFFFFFFFFFFFFFFFFFFFFFFFFFFFFFFFFFFFF MUL NOT AND SWAP1 DUP4 PUSH20 0xFFFFFFFFFFFFFFFFFFFFFFFFFFFFFFFFFFFFFFFF AND MUL OR SWAP1 SSTORE POP PUSH1 0x0 DUP2 PUSH1 0x2 ADD PUSH1 0x14 PUSH2 0x100 EXP DUP2 SLOAD DUP2 PUSH1 0xFF MUL NOT AND SWAP1 DUP4 ISZERO ISZERO MUL OR SWAP1 SSTORE POP PUSH1 0x0 DUP2 PUSH1 0x3 ADD DUP2 SWAP1 SSTORE POP PUSH1 0x3 PUSH1 0x0 DUP2 SLOAD DUP1 SWAP3 SWAP2 SWAP1 PUSH2 0x6DA SWAP1 PUSH2 0xE62 JUMP JUMPDEST SWAP2 SWAP1 POP SSTORE POP POP POP POP POP JUMP JUMPDEST PUSH1 0x1 SLOAD DUP2 JUMP JUMPDEST PUSH1 0x0 PUSH1 0x2 SLOAD SWAP1 POP SWAP1 JUMP JUMPDEST PUSH1 0x1 SLOAD CALLVALUE GT PUSH2 0x703 JUMPI PUSH1 0x0 DUP1 REVERT JUMPDEST PUSH1 0x1 PUSH1 0x6 PUSH1 0x0 CALLER PUSH20 0xFFFFFFFFFFFFFFFFFFFFFFFFFFFFFFFFFFFFFFFF AND PUSH20 0xFFFFFFFFFFFFFFFFFFFFFFFFFFFFFFFFFFFFFFFF AND DUP2 MSTORE PUSH1 0x20 ADD SWAP1 DUP2 MSTORE PUSH1 0x20 ADD PUSH1 0x0 KECCAK256 PUSH1 0x0 PUSH2 0x100 EXP DUP2 SLOAD DUP2 PUSH1 0xFF MUL NOT AND SWAP1 DUP4 ISZERO ISZERO MUL OR SWAP1 SSTORE POP PUSH1 0x2 PUSH1 0x0 DUP2 SLOAD DUP1 SWAP3 SWAP2 SWAP1 PUSH2 0x76E SWAP1 PUSH2 0xE62 JUMP JUMPDEST SWAP2 SWAP1 POP SSTORE POP JUMP JUMPDEST PUSH1 0x0 PUSH1 0x5 PUSH1 0x0 DUP4 DUP2 MSTORE PUSH1 0x20 ADD SWAP1 DUP2 MSTORE PUSH1 0x20 ADD PUSH1 0x0 KECCAK256 SWAP1 POP PUSH1 0x6 PUSH1 0x0 CALLER PUSH20 0xFFFFFFFFFFFFFFFFFFFFFFFFFFFFFFFFFFFFFFFF AND PUSH20 0xFFFFFFFFFFFFFFFFFFFFFFFFFFFFFFFFFFFFFFFF AND DUP2 MSTORE PUSH1 0x20 ADD SWAP1 DUP2 MSTORE PUSH1 0x20 ADD PUSH1 0x0 KECCAK256 PUSH1 0x0 SWAP1 SLOAD SWAP1 PUSH2 0x100 EXP SWAP1 DIV PUSH1 0xFF AND PUSH2 0x7E2 JUMPI PUSH1 0x0 DUP1 REVERT JUMPDEST DUP1 PUSH1 0x4 ADD PUSH1 0x0 CALLER PUSH20 0xFFFFFFFFFFFFFFFFFFFFFFFFFFFFFFFFFFFFFFFF AND PUSH20 0xFFFFFFFFFFFFFFFFFFFFFFFFFFFFFFFFFFFFFFFF AND DUP2 MSTORE PUSH1 0x20 ADD SWAP1 DUP2 MSTORE PUSH1 0x20 ADD PUSH1 0x0 KECCAK256 PUSH1 0x0 SWAP1 SLOAD SWAP1 PUSH2 0x100 EXP SWAP1 DIV PUSH1 0xFF AND ISZERO PUSH2 0x83B JUMPI PUSH1 0x0 DUP1 REVERT JUMPDEST PUSH1 0x1 DUP2 PUSH1 0x4 ADD PUSH1 0x0 CALLER PUSH20 0xFFFFFFFFFFFFFFFFFFFFFFFFFFFFFFFFFFFFFFFF AND PUSH20 0xFFFFFFFFFFFFFFFFFFFFFFFFFFFFFFFFFFFFFFFF AND DUP2 MSTORE PUSH1 0x20 ADD SWAP1 DUP2 MSTORE PUSH1 0x20 ADD PUSH1 0x0 KECCAK256 PUSH1 0x0 PUSH2 0x100 EXP DUP2 SLOAD DUP2 PUSH1 0xFF MUL NOT AND SWAP1 DUP4 ISZERO ISZERO MUL OR SWAP1 SSTORE POP DUP1 PUSH1 0x3 ADD PUSH1 0x0 DUP2 SLOAD DUP1 SWAP3 SWAP2 SWAP1 PUSH2 0x8AA SWAP1 PUSH2 0xE62 JUMP JUMPDEST SWAP2 SWAP1 POP SSTORE POP POP POP JUMP JUMPDEST PUSH1 0x3 SLOAD DUP2 JUMP JUMPDEST PUSH1 0x0 PUSH1 0x40 MLOAD SWAP1 POP SWAP1 JUMP JUMPDEST PUSH1 0x0 DUP1 REVERT JUMPDEST PUSH1 0x0 DUP1 REVERT JUMPDEST PUSH1 0x0 DUP2 SWAP1 POP SWAP2 SWAP1 POP JUMP JUMPDEST PUSH2 0x8E0 DUP2 PUSH2 0x8CD JUMP JUMPDEST DUP2 EQ PUSH2 0x8EB JUMPI PUSH1 0x0 DUP1 REVERT JUMPDEST POP JUMP JUMPDEST PUSH1 0x0 DUP2 CALLDATALOAD SWAP1 POP PUSH2 0x8FD DUP2 PUSH2 0x8D7 JUMP JUMPDEST SWAP3 SWAP2 POP POP JUMP JUMPDEST PUSH1 0x0 PUSH1 0x20 DUP3 DUP5 SUB SLT ISZERO PUSH2 0x919 JUMPI PUSH2 0x918 PUSH2 0x8C3 JUMP JUMPDEST JUMPDEST PUSH1 0x0 PUSH2 0x927 DUP5 DUP3 DUP6 ADD PUSH2 0x8EE JUMP JUMPDEST SWAP2 POP POP SWAP3 SWAP2 POP POP JUMP JUMPDEST PUSH1 0x0 PUSH20 0xFFFFFFFFFFFFFFFFFFFFFFFFFFFFFFFFFFFFFFFF DUP3 AND SWAP1 POP SWAP2 SWAP1 POP JUMP JUMPDEST PUSH1 0x0 PUSH2 0x95B DUP3 PUSH2 0x930 JUMP JUMPDEST SWAP1 POP SWAP2 SWAP1 POP JUMP JUMPDEST PUSH2 0x96B DUP2 PUSH2 0x950 JUMP JUMPDEST DUP2 EQ PUSH2 0x976 JUMPI PUSH1 0x0 DUP1 REVERT JUMPDEST POP JUMP JUMPDEST PUSH1 0x0 DUP2 CALLDATALOAD SWAP1 POP PUSH2 0x988 DUP2 PUSH2 0x962 JUMP JUMPDEST SWAP3 SWAP2 POP POP JUMP JUMPDEST PUSH1 0x0 PUSH1 0x20 DUP3 DUP5 SUB SLT ISZERO PUSH2 0x9A4 JUMPI PUSH2 0x9A3 PUSH2 0x8C3 JUMP JUMPDEST JUMPDEST PUSH1 0x0 PUSH2 0x9B2 DUP5 DUP3 DUP6 ADD PUSH2 0x979 JUMP JUMPDEST SWAP2 POP POP SWAP3 SWAP2 POP POP JUMP JUMPDEST PUSH1 0x0 DUP2 ISZERO ISZERO SWAP1 POP SWAP2 SWAP1 POP JUMP JUMPDEST PUSH2 0x9D0 DUP2 PUSH2 0x9BB JUMP JUMPDEST DUP3 MSTORE POP POP JUMP JUMPDEST PUSH1 0x0 PUSH1 0x20 DUP3 ADD SWAP1 POP PUSH2 0x9EB PUSH1 0x0 DUP4 ADD DUP5 PUSH2 0x9C7 JUMP JUMPDEST SWAP3 SWAP2 POP POP JUMP JUMPDEST PUSH2 0x9FA DUP2 PUSH2 0x8CD JUMP JUMPDEST DUP3 MSTORE POP POP JUMP JUMPDEST PUSH1 0x0 PUSH1 0x20 DUP3 ADD SWAP1 POP PUSH2 0xA15 PUSH1 0x0 DUP4 ADD DUP5 PUSH2 0x9F1 JUMP JUMPDEST SWAP3 SWAP2 POP POP JUMP JUMPDEST PUSH2 0xA24 DUP2 PUSH2 0x950 JUMP JUMPDEST DUP3 MSTORE POP POP JUMP JUMPDEST PUSH1 0x0 PUSH1 0xA0 DUP3 ADD SWAP1 POP PUSH2 0xA3F PUSH1 0x0 DUP4 ADD DUP9 PUSH2 0x9F1 JUMP JUMPDEST PUSH2 0xA4C PUSH1 0x20 DUP4 ADD DUP8 PUSH2 0x9F1 JUMP JUMPDEST PUSH2 0xA59 PUSH1 0x40 DUP4 ADD DUP7 PUSH2 0x9F1 JUMP JUMPDEST PUSH2 0xA66 PUSH1 0x60 DUP4 ADD DUP6 PUSH2 0x9F1 JUMP JUMPDEST PUSH2 0xA73 PUSH1 0x80 DUP4 ADD DUP5 PUSH2 0xA1B JUMP JUMPDEST SWAP7 SWAP6 POP POP POP POP POP POP JUMP JUMPDEST PUSH1 0x0 PUSH2 0xA88 DUP3 PUSH2 0x930 JUMP JUMPDEST SWAP1 POP SWAP2 SWAP1 POP JUMP JUMPDEST PUSH2 0xA98 DUP2 PUSH2 0xA7D JUMP JUMPDEST DUP3 MSTORE POP POP JUMP JUMPDEST PUSH1 0x0 PUSH1 0x20 DUP3 ADD SWAP1 POP PUSH2 0xAB3 PUSH1 0x0 DUP4 ADD DUP5 PUSH2 0xA8F JUMP JUMPDEST SWAP3 SWAP2 POP POP JUMP JUMPDEST PUSH1 0x0 DUP2 MLOAD SWAP1 POP SWAP2 SWAP1 POP JUMP JUMPDEST PUSH1 0x0 DUP3 DUP3 MSTORE PUSH1 0x20 DUP3 ADD SWAP1 POP SWAP3 SWAP2 POP POP JUMP JUMPDEST PUSH1 0x0 JUMPDEST DUP4 DUP2 LT ISZERO PUSH2 0xAF3 JUMPI DUP1 DUP3 ADD MLOAD DUP2 DUP5 ADD MSTORE PUSH1 0x20 DUP2 ADD SWAP1 POP PUSH2 0xAD8 JUMP JUMPDEST PUSH1 0x0 DUP5 DUP5 ADD MSTORE POP POP POP POP JUMP JUMPDEST PUSH1 0x0 PUSH1 0x1F NOT PUSH1 0x1F DUP4 ADD AND SWAP1 POP SWAP2 SWAP1 POP JUMP JUMPDEST PUSH1 0x0 PUSH2 0xB1B DUP3 PUSH2 0xAB9 JUMP JUMPDEST PUSH2 0xB25 DUP2 DUP6 PUSH2 0xAC4 JUMP JUMPDEST SWAP4 POP PUSH2 0xB35 DUP2 DUP6 PUSH1 0x20 DUP7 ADD PUSH2 0xAD5 JUMP JUMPDEST PUSH2 0xB3E DUP2 PUSH2 0xAFF JUMP JUMPDEST DUP5 ADD SWAP2 POP POP SWAP3 SWAP2 POP POP JUMP JUMPDEST PUSH1 0x0 PUSH1 0xA0 DUP3 ADD SWAP1 POP DUP2 DUP2 SUB PUSH1 0x0 DUP4 ADD MSTORE PUSH2 0xB63 DUP2 DUP9 PUSH2 0xB10 JUMP JUMPDEST SWAP1 POP PUSH2 0xB72 PUSH1 0x20 DUP4 ADD DUP8 PUSH2 0x9F1 JUMP JUMPDEST PUSH2 0xB7F PUSH1 0x40 DUP4 ADD DUP7 PUSH2 0xA8F JUMP JUMPDEST PUSH2 0xB8C PUSH1 0x60 DUP4 ADD DUP6 PUSH2 0x9C7 JUMP JUMPDEST PUSH2 0xB99 PUSH1 0x80 DUP4 ADD DUP5 PUSH2 0x9F1 JUMP JUMPDEST SWAP7 SWAP6 POP POP POP POP POP POP JUMP JUMPDEST PUSH1 0x0 DUP1 REVERT JUMPDEST PUSH1 0x0 DUP1 REVERT JUMPDEST PUSH32 0x4E487B7100000000000000000000000000000000000000000000000000000000 PUSH1 0x0 MSTORE PUSH1 0x41 PUSH1 0x4 MSTORE PUSH1 0x24 PUSH1 0x0 REVERT JUMPDEST PUSH2 0xBE5 DUP3 PUSH2 0xAFF JUMP JUMPDEST DUP2 ADD DUP2 DUP2 LT PUSH8 0xFFFFFFFFFFFFFFFF DUP3 GT OR ISZERO PUSH2 0xC04 JUMPI PUSH2 0xC03 PUSH2 0xBAD JUMP JUMPDEST JUMPDEST DUP1 PUSH1 0x40 MSTORE POP POP POP JUMP JUMPDEST PUSH1 0x0 PUSH2 0xC17 PUSH2 0x8B9 JUMP JUMPDEST SWAP1 POP PUSH2 0xC23 DUP3 DUP3 PUSH2 0xBDC JUMP JUMPDEST SWAP2 SWAP1 POP JUMP JUMPDEST PUSH1 0x0 PUSH8 0xFFFFFFFFFFFFFFFF DUP3 GT ISZERO PUSH2 0xC43 JUMPI PUSH2 0xC42 PUSH2 0xBAD JUMP JUMPDEST JUMPDEST PUSH2 0xC4C DUP3 PUSH2 0xAFF JUMP JUMPDEST SWAP1 POP PUSH1 0x20 DUP2 ADD SWAP1 POP SWAP2 SWAP1 POP JUMP JUMPDEST DUP3 DUP2 DUP4 CALLDATACOPY PUSH1 0x0 DUP4 DUP4 ADD MSTORE POP POP POP JUMP JUMPDEST PUSH1 0x0 PUSH2 0xC7B PUSH2 0xC76 DUP5 PUSH2 0xC28 JUMP JUMPDEST PUSH2 0xC0D JUMP JUMPDEST SWAP1 POP DUP3 DUP2 MSTORE PUSH1 0x20 DUP2 ADD DUP5 DUP5 DUP5 ADD GT ISZERO PUSH2 0xC97 JUMPI PUSH2 0xC96 PUSH2 0xBA8 JUMP JUMPDEST JUMPDEST PUSH2 0xCA2 DUP5 DUP3 DUP6 PUSH2 0xC59 JUMP JUMPDEST POP SWAP4 SWAP3 POP POP POP JUMP JUMPDEST PUSH1 0x0 DUP3 PUSH1 0x1F DUP4 ADD SLT PUSH2 0xCBF JUMPI PUSH2 0xCBE PUSH2 0xBA3 JUMP JUMPDEST JUMPDEST DUP2 CALLDATALOAD PUSH2 0xCCF DUP5 DUP3 PUSH1 0x20 DUP7 ADD PUSH2 0xC68 JUMP JUMPDEST SWAP2 POP POP SWAP3 SWAP2 POP POP JUMP JUMPDEST PUSH2 0xCE1 DUP2 PUSH2 0xA7D JUMP JUMPDEST DUP2 EQ PUSH2 0xCEC JUMPI PUSH1 0x0 DUP1 REVERT JUMPDEST POP JUMP JUMPDEST PUSH1 0x0 DUP2 CALLDATALOAD SWAP1 POP PUSH2 0xCFE DUP2 PUSH2 0xCD8 JUMP JUMPDEST SWAP3 SWAP2 POP POP JUMP JUMPDEST PUSH1 0x0 DUP1 PUSH1 0x0 PUSH1 0x60 DUP5 DUP7 SUB SLT ISZERO PUSH2 0xD1D JUMPI PUSH2 0xD1C PUSH2 0x8C3 JUMP JUMPDEST JUMPDEST PUSH1 0x0 DUP5 ADD CALLDATALOAD PUSH8 0xFFFFFFFFFFFFFFFF DUP2 GT ISZERO PUSH2 0xD3B JUMPI PUSH2 0xD3A PUSH2 0x8C8 JUMP JUMPDEST JUMPDEST PUSH2 0xD47 DUP7 DUP3 DUP8 ADD PUSH2 0xCAA JUMP JUMPDEST SWAP4 POP POP PUSH1 0x20 PUSH2 0xD58 DUP7 DUP3 DUP8 ADD PUSH2 0x8EE JUMP JUMPDEST SWAP3 POP POP PUSH1 0x40 PUSH2 0xD69 DUP7 DUP3 DUP8 ADD PUSH2 0xCEF JUMP JUMPDEST SWAP2 POP POP SWAP3 POP SWAP3 POP SWAP3 JUMP JUMPDEST PUSH32 0x4E487B7100000000000000000000000000000000000000000000000000000000 PUSH1 0x0 MSTORE PUSH1 0x12 PUSH1 0x4 MSTORE PUSH1 0x24 PUSH1 0x0 REVERT JUMPDEST PUSH32 0x4E487B7100000000000000000000000000000000000000000000000000000000 PUSH1 0x0 MSTORE PUSH1 0x11 PUSH1 0x4 MSTORE PUSH1 0x24 PUSH1 0x0 REVERT JUMPDEST PUSH1 0x0 PUSH2 0xDDC DUP3 PUSH2 0x8CD JUMP JUMPDEST SWAP2 POP PUSH2 0xDE7 DUP4 PUSH2 0x8CD JUMP JUMPDEST SWAP3 POP DUP3 PUSH2 0xDF7 JUMPI PUSH2 0xDF6 PUSH2 0xD73 JUMP JUMPDEST JUMPDEST DUP3 DUP3 DIV SWAP1 POP SWAP3 SWAP2 POP POP JUMP JUMPDEST PUSH32 0x4E487B7100000000000000000000000000000000000000000000000000000000 PUSH1 0x0 MSTORE PUSH1 0x22 PUSH1 0x4 MSTORE PUSH1 0x24 PUSH1 0x0 REVERT JUMPDEST PUSH1 0x0 PUSH1 0x2 DUP3 DIV SWAP1 POP PUSH1 0x1 DUP3 AND DUP1 PUSH2 0xE49 JUMPI PUSH1 0x7F DUP3 AND SWAP2 POP JUMPDEST PUSH1 0x20 DUP3 LT DUP2 SUB PUSH2 0xE5C JUMPI PUSH2 0xE5B PUSH2 0xE02 JUMP JUMPDEST JUMPDEST POP SWAP2 SWAP1 POP JUMP JUMPDEST PUSH1 0x0 PUSH2 0xE6D DUP3 PUSH2 0x8CD JUMP JUMPDEST SWAP2 POP PUSH32 0xFFFFFFFFFFFFFFFFFFFFFFFFFFFFFFFFFFFFFFFFFFFFFFFFFFFFFFFFFFFFFFFF DUP3 SUB PUSH2 0xE9F JUMPI PUSH2 0xE9E PUSH2 0xDA2 JUMP JUMPDEST JUMPDEST PUSH1 0x1 DUP3 ADD SWAP1 POP SWAP2 SWAP1 POP JUMP JUMPDEST PUSH1 0x0 DUP2 SWAP1 POP DUP2 PUSH1 0x0 MSTORE PUSH1 0x20 PUSH1 0x0 KECCAK256 SWAP1 POP SWAP2 SWAP1 POP JUMP JUMPDEST PUSH1 0x0 PUSH1 0x20 PUSH1 0x1F DUP4 ADD DIV SWAP1 POP SWAP2 SWAP1 POP JUMP JUMPDEST PUSH1 0x0 DUP3 DUP3 SHL SWAP1 POP SWAP3 SWAP2 POP POP JUMP JUMPDEST PUSH1 0x0 PUSH1 0x8 DUP4 MUL PUSH2 0xF0C PUSH32 0xFFFFFFFFFFFFFFFFFFFFFFFFFFFFFFFFFFFFFFFFFFFFFFFFFFFFFFFFFFFFFFFF DUP3 PUSH2 0xECF JUMP JUMPDEST PUSH2 0xF16 DUP7 DUP4 PUSH2 0xECF JUMP JUMPDEST SWAP6 POP DUP1 NOT DUP5 AND SWAP4 POP DUP1 DUP7 AND DUP5 OR SWAP3 POP POP POP SWAP4 SWAP3 POP POP POP JUMP JUMPDEST PUSH1 0x0 DUP2 SWAP1 POP SWAP2 SWAP1 POP JUMP JUMPDEST PUSH1 0x0 PUSH2 0xF53 PUSH2 0xF4E PUSH2 0xF49 DUP5 PUSH2 0x8CD JUMP JUMPDEST PUSH2 0xF2E JUMP JUMPDEST PUSH2 0x8CD JUMP JUMPDEST SWAP1 POP SWAP2 SWAP1 POP JUMP JUMPDEST PUSH1 0x0 DUP2 SWAP1 POP SWAP2 SWAP1 POP JUMP JUMPDEST PUSH2 0xF6D DUP4 PUSH2 0xF38 JUMP JUMPDEST PUSH2 0xF81 PUSH2 0xF79 DUP3 PUSH2 0xF5A JUMP JUMPDEST DUP5 DUP5 SLOAD PUSH2 0xEDC JUMP JUMPDEST DUP3 SSTORE POP POP POP POP JUMP JUMPDEST PUSH1 0x0 SWAP1 JUMP JUMPDEST PUSH2 0xF96 PUSH2 0xF89 JUMP JUMPDEST PUSH2 0xFA1 DUP2 DUP5 DUP5 PUSH2 0xF64 JUMP JUMPDEST POP POP POP JUMP JUMPDEST JUMPDEST DUP2 DUP2 LT ISZERO PUSH2 0xFC5 JUMPI PUSH2 0xFBA PUSH1 0x0 DUP3 PUSH2 0xF8E JUMP JUMPDEST PUSH1 0x1 DUP2 ADD SWAP1 POP PUSH2 0xFA7 JUMP JUMPDEST POP POP JUMP JUMPDEST PUSH1 0x1F DUP3 GT ISZERO PUSH2 0x100A JUMPI PUSH2 0xFDB DUP2 PUSH2 0xEAA JUMP JUMPDEST PUSH2 0xFE4 DUP5 PUSH2 0xEBF JUMP JUMPDEST DUP2 ADD PUSH1 0x20 DUP6 LT ISZERO PUSH2 0xFF3 JUMPI DUP2 SWAP1 POP JUMPDEST PUSH2 0x1007 PUSH2 0xFFF DUP6 PUSH2 0xEBF JUMP JUMPDEST DUP4 ADD DUP3 PUSH2 0xFA6 JUMP JUMPDEST POP POP JUMPDEST POP POP POP JUMP JUMPDEST PUSH1 0x0 DUP3 DUP3 SHR SWAP1 POP SWAP3 SWAP2 POP POP JUMP JUMPDEST PUSH1 0x0 PUSH2 0x102D PUSH1 0x0 NOT DUP5 PUSH1 0x8 MUL PUSH2 0x100F JUMP JUMPDEST NOT DUP1 DUP4 AND SWAP2 POP POP SWAP3 SWAP2 POP POP JUMP JUMPDEST PUSH1 0x0 PUSH2 0x1046 DUP4 DUP4 PUSH2 0x101C JUMP JUMPDEST SWAP2 POP DUP3 PUSH1 0x2 MUL DUP3 OR SWAP1 POP SWAP3 SWAP2 POP POP JUMP JUMPDEST PUSH2 0x105F DUP3 PUSH2 0xAB9 JUMP JUMPDEST PUSH8 0xFFFFFFFFFFFFFFFF DUP2 GT ISZERO PUSH2 0x1078 JUMPI PUSH2 0x1077 PUSH2 0xBAD JUMP JUMPDEST JUMPDEST PUSH2 0x1082 DUP3 SLOAD PUSH2 0xE31 JUMP JUMPDEST PUSH2 0x108D DUP3 DUP3 DUP6 PUSH2 0xFC9 JUMP JUMPDEST PUSH1 0x0 PUSH1 0x20 SWAP1 POP PUSH1 0x1F DUP4 GT PUSH1 0x1 DUP2 EQ PUSH2 0x10C0 JUMPI PUSH1 0x0 DUP5 ISZERO PUSH2 0x10AE JUMPI DUP3 DUP8 ADD MLOAD SWAP1 POP JUMPDEST PUSH2 0x10B8 DUP6 DUP3 PUSH2 0x103A JUMP JUMPDEST DUP7 SSTORE POP PUSH2 0x1120 JUMP JUMPDEST PUSH1 0x1F NOT DUP5 AND PUSH2 0x10CE DUP7 PUSH2 0xEAA JUMP JUMPDEST PUSH1 0x0 JUMPDEST DUP3 DUP2 LT ISZERO PUSH2 0x10F6 JUMPI DUP5 DUP10 ADD MLOAD DUP3 SSTORE PUSH1 0x1 DUP3 ADD SWAP2 POP PUSH1 0x20 DUP6 ADD SWAP5 POP PUSH1 0x20 DUP2 ADD SWAP1 POP PUSH2 0x10D1 JUMP JUMPDEST DUP7 DUP4 LT ISZERO PUSH2 0x1113 JUMPI DUP5 DUP10 ADD MLOAD PUSH2 0x110F PUSH1 0x1F DUP10 AND DUP3 PUSH2 0x101C JUMP JUMPDEST DUP4 SSTORE POP JUMPDEST PUSH1 0x1 PUSH1 0x2 DUP9 MUL ADD DUP9 SSTORE POP POP POP JUMPDEST POP POP POP POP POP POP JUMP INVALID LOG2 PUSH5 0x6970667358 0x22 SLT KECCAK256 SWAP6 0xA5 SHR DUP14 PC CALL 0xB5 0xCF 0xD8 CODESIZE PUSH22 0xACFD67ACDA15C68B8BECB2552E537784463D1E3E4E64 PUSH20 0x6F6C634300081100330000000000000000000000 "},"gasEstimates":{"creation":{"codeDepositCost":"889200","executionCost":"infinite","totalCost":"infinite"},"external":{"approveRequest(uint256)":"infinite","approvers(address)":"2868","approversCount()":"2452","contribute()":"50999","createRequest(string,uint256,address)":"infinite","finalizeRequest(uint256)":"infinite","getApproversCount()":"2459","getRequestsCount()":"2482","getSummary()":"infinite","manager()":"2603","minimumContribution()":"2496","requests(uint256)":"infinite","requestsCount()":"2517"}},"methodIdentifiers":{"approveRequest(uint256)":"d7d1bbdb","approvers(address)":"0a144391","approversCount()":"82fde093","contribute()":"d7bb99ba","createRequest(string,uint256,address)":"8a9cfd55","finalizeRequest(uint256)":"03441006","getApproversCount()":"aa8a7eeb","getRequestsCount()":"3410452a","getSummary()":"4051ddac","manager()":"481c6a75","minimumContribution()":"937e09b1","requests(uint256)":"81d12c58","requestsCount()":"fbfa4b7f"}},"storageLayout":{"storage":[{"astId":56,"contract":"Campaign.sol:Campaign","label":"_numRequests","offset":0,"slot":"0","type":"t_uint256"},{"astId":58,"contract":"Campaign.sol:Campaign","label":"minimumContribution","offset":0,"slot":"1","type":"t_uint256"},{"astId":60,"contract":"Campaign.sol:Campaign","label":"approversCount","offset":0,"slot":"2","type":"t_uint256"},{"astId":62,"contract":"Campaign.sol:Campaign","label":"requestsCount","offset":0,"slot":"3","type":"t_uint256"},{"astId":64,"contract":"Campaign.sol:Campaign","label":"manager","offset":0,"slot":"4","type":"t_address_payable"},{"astId":69,"contract":"Campaign.sol:Campaign","label":"requests","offset":0,"slot":"5","type":"t_mapping(t_uint256,t_struct(Request)54_storage)"},{"astId":73,"contract":"Campaign.sol:Campaign","label":"approvers","offset":0,"slot":"6","type":"t_mapping(t_address,t_bool)"}],"types":{"t_address":{"encoding":"inplace","label":"address","numberOfBytes":"20"},"t_address_payable":{"encoding":"inplace","label":"address payable","numberOfBytes":"20"},"t_bool":{"encoding":"inplace","label":"bool","numberOfBytes":"1"},"t_mapping(t_address,t_bool)":{"encoding":"mapping","key":"t_address","label":"mapping(address => bool)","numberOfBytes":"32","value":"t_bool"},"t_mapping(t_uint256,t_struct(Request)54_storage)":{"encoding":"mapping","key":"t_uint256","label":"mapping(uint256 => struct Campaign.Request)","numberOfBytes":"32","value":"t_struct(Request)54_storage"},"t_string_storage":{"encoding":"bytes","label":"string","numberOfBytes":"32"},"t_struct(Request)54_storage":{"encoding":"inplace","label":"struct Campaign.Request","members":[{"astId":41,"contract":"Campaign.sol:Campaign","label":"description","offset":0,"slot":"0","type":"t_string_storage"},{"astId":43,"contract":"Campaign.sol:Campaign","label":"value","offset":0,"slot":"1","type":"t_uint256"},{"astId":45,"contract":"Campaign.sol:Campaign","label":"recipient","offset":0,"slot":"2","type":"t_address_payable"},{"astId":47,"contract":"Campaign.sol:Campaign","label":"complete","offset":20,"slot":"2","type":"t_bool"},{"astId":49,"contract":"Campaign.sol:Campaign","label":"approvalCount","offset":0,"slot":"3","type":"t_uint256"},{"astId":53,"contract":"Campaign.sol:Campaign","label":"approvals","offset":0,"slot":"4","type":"t_mapping(t_address,t_bool)"}],"numberOfBytes":"160"},"t_uint256":{"encoding":"inplace","label":"uint256","numberOfBytes":"32"}}},"userdoc":{"kind":"user","methods":{},"version":1}}